{
  "contractName": "MultiSigWalletWithTimeLock",
  "abi": [
    {
      "constant": true,
      "inputs": [
        {
          "name": "",
          "type": "uint256"
        }
      ],
      "name": "owners",
      "outputs": [
        {
          "name": "",
          "type": "address"
        }
      ],
      "payable": false,
      "stateMutability": "view",
      "type": "function"
    },
    {
      "constant": false,
      "inputs": [
        {
          "name": "owner",
          "type": "address"
        }
      ],
      "name": "removeOwner",
      "outputs": [],
      "payable": false,
      "stateMutability": "nonpayable",
      "type": "function"
    },
    {
      "constant": false,
      "inputs": [
        {
          "name": "transactionId",
          "type": "uint256"
        }
      ],
      "name": "revokeConfirmation",
      "outputs": [],
      "payable": false,
      "stateMutability": "nonpayable",
      "type": "function"
    },
    {
      "constant": true,
      "inputs": [
        {
          "name": "",
          "type": "address"
        }
      ],
      "name": "isOwner",
      "outputs": [
        {
          "name": "",
          "type": "bool"
        }
      ],
      "payable": false,
      "stateMutability": "view",
      "type": "function"
    },
    {
      "constant": true,
      "inputs": [
        {
          "name": "",
          "type": "uint256"
        },
        {
          "name": "",
          "type": "address"
        }
      ],
      "name": "confirmations",
      "outputs": [
        {
          "name": "",
          "type": "bool"
        }
      ],
      "payable": false,
      "stateMutability": "view",
      "type": "function"
    },
    {
      "constant": true,
      "inputs": [],
      "name": "secondsTimeLocked",
      "outputs": [
        {
          "name": "",
          "type": "uint256"
        }
      ],
      "payable": false,
      "stateMutability": "view",
      "type": "function"
    },
    {
      "constant": true,
      "inputs": [
        {
          "name": "pending",
          "type": "bool"
        },
        {
          "name": "executed",
          "type": "bool"
        }
      ],
      "name": "getTransactionCount",
      "outputs": [
        {
          "name": "count",
          "type": "uint256"
        }
      ],
      "payable": false,
      "stateMutability": "view",
      "type": "function"
    },
    {
      "constant": false,
      "inputs": [
        {
          "name": "owner",
          "type": "address"
        }
      ],
      "name": "addOwner",
      "outputs": [],
      "payable": false,
      "stateMutability": "nonpayable",
      "type": "function"
    },
    {
      "constant": true,
      "inputs": [
        {
          "name": "transactionId",
          "type": "uint256"
        }
      ],
      "name": "isConfirmed",
      "outputs": [
        {
          "name": "",
          "type": "bool"
        }
      ],
      "payable": false,
      "stateMutability": "view",
      "type": "function"
    },
    {
      "constant": true,
      "inputs": [
        {
          "name": "transactionId",
          "type": "uint256"
        }
      ],
      "name": "getConfirmationCount",
      "outputs": [
        {
          "name": "count",
          "type": "uint256"
        }
      ],
      "payable": false,
      "stateMutability": "view",
      "type": "function"
    },
    {
      "constant": true,
      "inputs": [
        {
          "name": "",
          "type": "uint256"
        }
      ],
      "name": "transactions",
      "outputs": [
        {
          "name": "destination",
          "type": "address"
        },
        {
          "name": "value",
          "type": "uint256"
        },
        {
          "name": "data",
          "type": "bytes"
        },
        {
          "name": "executed",
          "type": "bool"
        }
      ],
      "payable": false,
      "stateMutability": "view",
      "type": "function"
    },
    {
      "constant": true,
      "inputs": [],
      "name": "getOwners",
      "outputs": [
        {
          "name": "",
          "type": "address[]"
        }
      ],
      "payable": false,
      "stateMutability": "view",
      "type": "function"
    },
    {
      "constant": true,
      "inputs": [
        {
          "name": "from",
          "type": "uint256"
        },
        {
          "name": "to",
          "type": "uint256"
        },
        {
          "name": "pending",
          "type": "bool"
        },
        {
          "name": "executed",
          "type": "bool"
        }
      ],
      "name": "getTransactionIds",
      "outputs": [
        {
          "name": "_transactionIds",
          "type": "uint256[]"
        }
      ],
      "payable": false,
      "stateMutability": "view",
      "type": "function"
    },
    {
      "constant": true,
      "inputs": [
        {
          "name": "transactionId",
          "type": "uint256"
        }
      ],
      "name": "getConfirmations",
      "outputs": [
        {
          "name": "_confirmations",
          "type": "address[]"
        }
      ],
      "payable": false,
      "stateMutability": "view",
      "type": "function"
    },
    {
      "constant": true,
      "inputs": [],
      "name": "transactionCount",
      "outputs": [
        {
          "name": "",
          "type": "uint256"
        }
      ],
      "payable": false,
      "stateMutability": "view",
      "type": "function"
    },
    {
      "constant": false,
      "inputs": [
        {
          "name": "_required",
          "type": "uint256"
        }
      ],
      "name": "changeRequirement",
      "outputs": [],
      "payable": false,
      "stateMutability": "nonpayable",
      "type": "function"
    },
    {
      "constant": false,
      "inputs": [
        {
          "name": "destination",
          "type": "address"
        },
        {
          "name": "value",
          "type": "uint256"
        },
        {
          "name": "data",
          "type": "bytes"
        }
      ],
      "name": "submitTransaction",
      "outputs": [
        {
          "name": "transactionId",
          "type": "uint256"
        }
      ],
      "payable": false,
      "stateMutability": "nonpayable",
      "type": "function"
    },
    {
      "constant": true,
      "inputs": [
        {
          "name": "",
          "type": "uint256"
        }
      ],
      "name": "confirmationTimes",
      "outputs": [
        {
          "name": "",
          "type": "uint256"
        }
      ],
      "payable": false,
      "stateMutability": "view",
      "type": "function"
    },
    {
      "constant": true,
      "inputs": [],
      "name": "MAX_OWNER_COUNT",
      "outputs": [
        {
          "name": "",
          "type": "uint256"
        }
      ],
      "payable": false,
      "stateMutability": "view",
      "type": "function"
    },
    {
      "constant": true,
      "inputs": [],
      "name": "required",
      "outputs": [
        {
          "name": "",
          "type": "uint256"
        }
      ],
      "payable": false,
      "stateMutability": "view",
      "type": "function"
    },
    {
      "constant": false,
      "inputs": [
        {
          "name": "owner",
          "type": "address"
        },
        {
          "name": "newOwner",
          "type": "address"
        }
      ],
      "name": "replaceOwner",
      "outputs": [],
      "payable": false,
      "stateMutability": "nonpayable",
      "type": "function"
    },
    {
      "inputs": [
        {
          "name": "_owners",
          "type": "address[]"
        },
        {
          "name": "_required",
          "type": "uint256"
        },
        {
          "name": "_secondsTimeLocked",
          "type": "uint256"
        }
      ],
      "payable": false,
      "stateMutability": "nonpayable",
      "type": "constructor"
    },
    {
      "payable": true,
      "stateMutability": "payable",
      "type": "fallback"
    },
    {
      "anonymous": false,
      "inputs": [
        {
          "indexed": true,
          "name": "transactionId",
          "type": "uint256"
        },
        {
          "indexed": false,
          "name": "confirmationTime",
          "type": "uint256"
        }
      ],
      "name": "ConfirmationTimeSet",
      "type": "event"
    },
    {
      "anonymous": false,
      "inputs": [
        {
          "indexed": false,
          "name": "secondsTimeLocked",
          "type": "uint256"
        }
      ],
      "name": "TimeLockChange",
      "type": "event"
    },
    {
      "anonymous": false,
      "inputs": [
        {
          "indexed": true,
          "name": "sender",
          "type": "address"
        },
        {
          "indexed": true,
          "name": "transactionId",
          "type": "uint256"
        }
      ],
      "name": "Confirmation",
      "type": "event"
    },
    {
      "anonymous": false,
      "inputs": [
        {
          "indexed": true,
          "name": "sender",
          "type": "address"
        },
        {
          "indexed": true,
          "name": "transactionId",
          "type": "uint256"
        }
      ],
      "name": "Revocation",
      "type": "event"
    },
    {
      "anonymous": false,
      "inputs": [
        {
          "indexed": true,
          "name": "transactionId",
          "type": "uint256"
        }
      ],
      "name": "Submission",
      "type": "event"
    },
    {
      "anonymous": false,
      "inputs": [
        {
          "indexed": true,
          "name": "transactionId",
          "type": "uint256"
        }
      ],
      "name": "Execution",
      "type": "event"
    },
    {
      "anonymous": false,
      "inputs": [
        {
          "indexed": true,
          "name": "transactionId",
          "type": "uint256"
        }
      ],
      "name": "ExecutionFailure",
      "type": "event"
    },
    {
      "anonymous": false,
      "inputs": [
        {
          "indexed": true,
          "name": "sender",
          "type": "address"
        },
        {
          "indexed": false,
          "name": "value",
          "type": "uint256"
        }
      ],
      "name": "Deposit",
      "type": "event"
    },
    {
      "anonymous": false,
      "inputs": [
        {
          "indexed": true,
          "name": "owner",
          "type": "address"
        }
      ],
      "name": "OwnerAddition",
      "type": "event"
    },
    {
      "anonymous": false,
      "inputs": [
        {
          "indexed": true,
          "name": "owner",
          "type": "address"
        }
      ],
      "name": "OwnerRemoval",
      "type": "event"
    },
    {
      "anonymous": false,
      "inputs": [
        {
          "indexed": false,
          "name": "required",
          "type": "uint256"
        }
      ],
      "name": "RequirementChange",
      "type": "event"
    },
    {
      "constant": false,
      "inputs": [
        {
          "name": "_secondsTimeLocked",
          "type": "uint256"
        }
      ],
      "name": "changeTimeLock",
      "outputs": [],
      "payable": false,
      "stateMutability": "nonpayable",
      "type": "function"
    },
    {
      "constant": false,
      "inputs": [
        {
          "name": "transactionId",
          "type": "uint256"
        }
      ],
      "name": "confirmTransaction",
      "outputs": [],
      "payable": false,
      "stateMutability": "nonpayable",
      "type": "function"
    },
    {
      "constant": false,
      "inputs": [
        {
          "name": "transactionId",
          "type": "uint256"
        }
      ],
      "name": "executeTransaction",
      "outputs": [],
      "payable": false,
      "stateMutability": "nonpayable",
      "type": "function"
    }
  ],
  "bytecode": "0x60806040523480156200001157600080fd5b5060405162001b0038038062001b00833981018060405260608110156200003757600080fd5b8101908080516401000000008111156200005057600080fd5b820160208101848111156200006457600080fd5b81518560208202830111640100000000821117156200008257600080fd5b505060208201516040909201518151919450919250839083908160328211801590620000ae5750818111155b8015620000ba57508015155b8015620000c657508115155b1515620000d257600080fd5b60005b8451811015620001a557600260008683815181101515620000f257fe5b6020908102909101810151600160a060020a031682528101919091526040016000205460ff1615801562000149575084516000908690839081106200013357fe5b90602001906020020151600160a060020a031614155b15156200015557600080fd5b60016002600087848151811015156200016a57fe5b602090810291909101810151600160a060020a03168252810191909152604001600020805460ff1916911515919091179055600101620000d5565b508351620001bb906003906020870190620001ce565b5050506004555060065550620002629050565b82805482825590600052602060002090810192821562000226579160200282015b82811115620002265782518254600160a060020a031916600160a060020a03909116178255602090920191600190910190620001ef565b506200023492915062000238565b5090565b6200025f91905b8082111562000234578054600160a060020a03191681556001016200023f565b90565b61188e80620002726000396000f3fe60806040526004361061013d5763ffffffff7c0100000000000000000000000000000000000000000000000000000000600035041663025e7c27811461017f578063173825d9146101c557806320ea8d86146101f85780632f54bf6e146102225780633411c81c1461026957806337bd78a0146102a257806354741525146102c95780637065cb48146102fd578063784547a7146103305780637ad28c511461035a5780638b51d13f146103845780639ace38c2146103ae578063a0e67e2b1461047b578063a8abe69a146104e0578063b5dc40c314610520578063b77bf6001461054a578063ba51a6df1461055f578063c01a8c8414610589578063c6427474146105b3578063d38f2d821461067b578063d74f8edd146106a5578063dc8452cd146106ba578063e20056e6146106cf578063ee22610b1461070a575b600034111561017d5760408051348152905133917fe1fffcc4923d04b559f4d29a8bfc6cda04eb5b0d3c460751c2402c5c5cc9109c919081900360200190a25b005b34801561018b57600080fd5b506101a9600480360360208110156101a257600080fd5b5035610734565b60408051600160a060020a039092168252519081900360200190f35b3480156101d157600080fd5b5061017d600480360360208110156101e857600080fd5b5035600160a060020a031661075c565b34801561020457600080fd5b5061017d6004803603602081101561021b57600080fd5b50356108cc565b34801561022e57600080fd5b506102556004803603602081101561024557600080fd5b5035600160a060020a0316610986565b604080519115158252519081900360200190f35b34801561027557600080fd5b506102556004803603604081101561028c57600080fd5b5080359060200135600160a060020a031661099b565b3480156102ae57600080fd5b506102b76109bb565b60408051918252519081900360200190f35b3480156102d557600080fd5b506102b7600480360360408110156102ec57600080fd5b5080351515906020013515156109c1565b34801561030957600080fd5b5061017d6004803603602081101561032057600080fd5b5035600160a060020a0316610a2d565b34801561033c57600080fd5b506102556004803603602081101561035357600080fd5b5035610b52565b34801561036657600080fd5b5061017d6004803603602081101561037d57600080fd5b5035610bd9565b34801561039057600080fd5b506102b7600480360360208110156103a757600080fd5b5035610c20565b3480156103ba57600080fd5b506103d8600480360360208110156103d157600080fd5b5035610c8f565b6040518085600160a060020a0316600160a060020a031681526020018481526020018060200183151515158152602001828103825284818151815260200191508051906020019080838360005b8381101561043d578181015183820152602001610425565b50505050905090810190601f16801561046a5780820380516001836020036101000a031916815260200191505b509550505050505060405180910390f35b34801561048757600080fd5b50610490610d4d565b60408051602080825283518183015283519192839290830191858101910280838360005b838110156104cc5781810151838201526020016104b4565b505050509050019250505060405180910390f35b3480156104ec57600080fd5b506104906004803603608081101561050357600080fd5b508035906020810135906040810135151590606001351515610db0565b34801561052c57600080fd5b506104906004803603602081101561054357600080fd5b5035610ee1565b34801561055657600080fd5b506102b7611052565b34801561056b57600080fd5b5061017d6004803603602081101561058257600080fd5b5035611058565b34801561059557600080fd5b5061017d600480360360208110156105ac57600080fd5b50356110d7565b3480156105bf57600080fd5b506102b7600480360360608110156105d657600080fd5b600160a060020a038235169160208101359181019060608101604082013564010000000081111561060657600080fd5b82018360208201111561061857600080fd5b8035906020019184600183028401116401000000008311171561063a57600080fd5b91908080601f016020809104026020016040519081016040528093929190818152602001838380828437600092019190915250929550611228945050505050565b34801561068757600080fd5b506102b76004803603602081101561069e57600080fd5b5035611247565b3480156106b157600080fd5b506102b7611259565b3480156106c657600080fd5b506102b761125e565b3480156106db57600080fd5b5061017d600480360360408110156106f257600080fd5b50600160a060020a0381358116916020013516611264565b34801561071657600080fd5b5061017d6004803603602081101561072d57600080fd5b50356113e7565b600380548290811061074257fe5b600091825260209091200154600160a060020a0316905081565b33301461076857600080fd5b600160a060020a038116600090815260026020526040902054819060ff16151561079157600080fd5b600160a060020a0382166000908152600260205260408120805460ff191690555b600354600019018110156108675782600160a060020a03166003828154811015156107d957fe5b600091825260209091200154600160a060020a0316141561085f5760038054600019810190811061080657fe5b60009182526020909120015460038054600160a060020a03909216918390811061082c57fe5b9060005260206000200160006101000a815481600160a060020a030219169083600160a060020a03160217905550610867565b6001016107b2565b5060038054600019019061087b90826117a1565b5060035460045411156108945760035461089490611058565b604051600160a060020a038316907f8001553a916ef2f495d26a907cc54d96ed840d7bda71e73194bf5a9df7a76b9090600090a25050565b3360008181526002602052604090205460ff1615156108ea57600080fd5b60008281526001602090815260408083203380855292529091205483919060ff16151561091657600080fd5b600084815260208190526040902060030154849060ff161561093757600080fd5b6000858152600160209081526040808320338085529252808320805460ff191690555187927ff6a317157440607f36269043eb55f1287a5a19ba2216afeab88cd46cbcfb88e991a35050505050565b60026020526000908152604090205460ff1681565b600160209081526000928352604080842090915290825290205460ff1681565b60065481565b6000805b600554811015610a26578380156109ee575060008181526020819052604090206003015460ff16155b80610a125750828015610a12575060008181526020819052604090206003015460ff165b15610a1e576001820191505b6001016109c5565b5092915050565b333014610a3957600080fd5b600160a060020a038116600090815260026020526040902054819060ff1615610a6157600080fd5b81600160a060020a0381161515610a7757600080fd5b60038054905060010160045460328211158015610a945750818111155b8015610a9f57508015155b8015610aaa57508115155b1515610ab557600080fd5b600160a060020a038516600081815260026020526040808220805460ff1916600190811790915560038054918201815583527fc2575a0e9e593c00f959f8c92f12db2869c3395a3b0502d05e2516446f71f85b01805473ffffffffffffffffffffffffffffffffffffffff191684179055517ff39e6e1eb0edcf53c221607b54b00cd28f3196fed0a24994dc308b8f611b682d9190a25050505050565b600080805b600354811015610bd15760008481526001602052604081206003805491929184908110610b8057fe5b6000918252602080832090910154600160a060020a0316835282019290925260400190205460ff1615610bb4576001820191505b600454821415610bc957600192505050610bd4565b600101610b57565b50505b919050565b333014610be557600080fd5b60068190556040805182815290517fd1c9101a34feff75cccef14a28785a0279cb0b49c1f321f21f5f422e746b43779181900360200190a150565b6000805b600354811015610c895760008381526001602052604081206003805491929184908110610c4d57fe5b6000918252602080832090910154600160a060020a0316835282019290925260400190205460ff1615610c81576001820191505b600101610c24565b50919050565b6000602081815291815260409081902080546001808301546002808501805487516101009582161595909502600019011691909104601f8101889004880284018801909652858352600160a060020a0390931695909491929190830182828015610d3a5780601f10610d0f57610100808354040283529160200191610d3a565b820191906000526020600020905b815481529060010190602001808311610d1d57829003601f168201915b5050506003909301549192505060ff1684565b60606003805480602002602001604051908101604052809291908181526020018280548015610da557602002820191906000526020600020905b8154600160a060020a03168152600190910190602001808311610d87575b505050505090505b90565b606080600554604051908082528060200260200182016040528015610ddf578160200160208202803883390190505b5090506000805b600554811015610e6157858015610e0f575060008181526020819052604090206003015460ff16155b80610e335750848015610e33575060008181526020819052604090206003015460ff165b15610e5957808383815181101515610e4757fe5b60209081029091010152600191909101905b600101610de6565b878703604051908082528060200260200182016040528015610e8d578160200160208202803883390190505b5093508790505b86811015610ed6578281815181101515610eaa57fe5b9060200190602002015184898303815181101515610ec457fe5b60209081029091010152600101610e94565b505050949350505050565b606080600380549050604051908082528060200260200182016040528015610f13578160200160208202803883390190505b5090506000805b600354811015610fcb5760008581526001602052604081206003805491929184908110610f4357fe5b6000918252602080832090910154600160a060020a0316835282019290925260400190205460ff1615610fc3576003805482908110610f7e57fe5b6000918252602090912001548351600160a060020a0390911690849084908110610fa457fe5b600160a060020a03909216602092830290910190910152600191909101905b600101610f1a565b81604051908082528060200260200182016040528015610ff5578160200160208202803883390190505b509350600090505b8181101561104a57828181518110151561101357fe5b90602001906020020151848281518110151561102b57fe5b600160a060020a03909216602092830290910190910152600101610ffd565b505050919050565b60055481565b33301461106457600080fd5b60035481603282118015906110795750818111155b801561108457508015155b801561108f57508115155b151561109a57600080fd5b60048390556040805184815290517fa3f1ee9126a074d9326c682f561767f710e927faa811f7a99829d49dc421797a9181900360200190a1505050565b3360008181526002602052604090205460ff1615156110f557600080fd5b6000828152602081905260409020548290600160a060020a0316151561111a57600080fd5b60008381526001602090815260408083203380855292529091205484919060ff161561114557600080fd5b8461114f81610b52565b156111bb57604080517f08c379a000000000000000000000000000000000000000000000000000000000815260206004820152601260248201527f54585f46554c4c595f434f4e4649524d45440000000000000000000000000000604482015290519081900360640190fd5b6000868152600160208181526040808420338086529252808420805460ff1916909317909255905188927f4a504a94899432a9846e1aa406dceb1bcfd538bb839071d49d1e5e23f5be30ef91a361121186610b52565b15611220576112208642611643565b505050505050565b600061123584848461168e565b9050611240816110d7565b9392505050565b60076020526000908152604090205481565b603281565b60045481565b33301461127057600080fd5b600160a060020a038216600090815260026020526040902054829060ff16151561129957600080fd5b600160a060020a038216600090815260026020526040902054829060ff16156112c157600080fd5b60005b60035481101561134d5784600160a060020a03166003828154811015156112e757fe5b600091825260209091200154600160a060020a03161415611345578360038281548110151561131257fe5b9060005260206000200160006101000a815481600160a060020a030219169083600160a060020a0316021790555061134d565b6001016112c4565b50600160a060020a03808516600081815260026020526040808220805460ff1990811690915593871682528082208054909416600117909355915190917f8001553a916ef2f495d26a907cc54d96ed840d7bda71e73194bf5a9df7a76b9091a2604051600160a060020a038416907ff39e6e1eb0edcf53c221607b54b00cd28f3196fed0a24994dc308b8f611b682d90600090a250505050565b600081815260208190526040902060030154819060ff161561140857600080fd5b8161141281610b52565b151561147f57604080517f08c379a000000000000000000000000000000000000000000000000000000000815260206004820152601660248201527f54585f4e4f545f46554c4c595f434f4e4649524d454400000000000000000000604482015290519081900360640190fd5b60065460008481526007602052604090205484910142101561150257604080517f08c379a000000000000000000000000000000000000000000000000000000000815260206004820152601460248201527f54494d455f4c4f434b5f494e434f4d504c455445000000000000000000000000604482015290519081900360640190fd5b6000848152602081815260409182902060038101805460ff19166001908117909155815481830154600280850180548851601f6000199783161561010002979097019091169290920494850187900487028201870190975283815293956115cf95600160a060020a039093169491939283908301828280156115c55780601f1061159a576101008083540402835291602001916115c5565b820191906000526020600020905b8154815290600101906020018083116115a857829003601f168201915b505050505061177e565b156116045760405185907f33e13ecb54c3076d8e8bb8c2881800a4d972b792045ffae98fdf46df365fed7590600090a261163c565b60405185907f526441bb6c1aba3c9a4a6ca1d6545da9c2333c8c48343ef398eb858d72b7923690600090a260038101805460ff191690555b5050505050565b6000828152600760209081526040918290208390558151838152915184927f0b237afe65f1514fd7ea3f923ea4fe792bdd07000a912b6cd1602a8e7f573c8d92908290030190a25050565b600083600160a060020a03811615156116a657600080fd5b60055460408051608081018252600160a060020a0388811682526020808301898152838501898152600060608601819052878152808452959095208451815473ffffffffffffffffffffffffffffffffffffffff1916941693909317835551600183015592518051949650919390926117269260028501929101906117ca565b50606091909101516003909101805460ff191691151591909117905560058054600101905560405182907fc0ba8fe4b176c1714197d43b9cc6bcf797a4a7461c5fe8d0ef6e184ae7601e5190600090a2509392505050565b6000806040516020840160008287838a8c6187965a03f198975050505050505050565b8154818355818111156117c5576000838152602090206117c5918101908301611848565b505050565b828054600181600116156101000203166002900490600052602060002090601f016020900481019282601f1061180b57805160ff1916838001178555611838565b82800160010185558215611838579182015b8281111561183857825182559160200191906001019061181d565b50611844929150611848565b5090565b610dad91905b80821115611844576000815560010161184e56fea165627a7a723058209bac0d637f743817870753db8201a5bfdb030c2f33f04f3fc2879579b9c61cb00029",
  "source": "/*\n\n  Copyright 2018 ZeroEx Intl.\n\n  Licensed under the Apache License, Version 2.0 (the \"License\");\n  you may not use this file except in compliance with the License.\n  You may obtain a copy of the License at\n\n    http://www.apache.org/licenses/LICENSE-2.0\n\n  Unless required by applicable law or agreed to in writing, software\n  distributed under the License is distributed on an \"AS IS\" BASIS,\n  WITHOUT WARRANTIES OR CONDITIONS OF ANY KIND, either express or implied.\n  See the License for the specific language governing permissions and\n  limitations under the License.\n\n*/\n\npragma solidity 0.5.0;\n\nimport \"./MultiSigWallet.sol\";\n\n\n/// @title Multisignature wallet with time lock- Allows multiple parties to execute a transaction after a time lock has passed.\n/// @author Amir Bandeali - <amir@0xProject.com>\n// solhint-disable not-rely-on-time\ncontract MultiSigWalletWithTimeLock is\n    MultiSigWallet\n{\n    event ConfirmationTimeSet(uint256 indexed transactionId, uint256 confirmationTime);\n    event TimeLockChange(uint256 secondsTimeLocked);\n\n    uint256 public secondsTimeLocked;\n\n    mapping (uint256 => uint256) public confirmationTimes;\n\n    modifier notFullyConfirmed(uint256 transactionId) {\n        require(\n            !isConfirmed(transactionId),\n            \"TX_FULLY_CONFIRMED\"\n        );\n        _;\n    }\n\n    modifier fullyConfirmed(uint256 transactionId) {\n        require(\n            isConfirmed(transactionId),\n            \"TX_NOT_FULLY_CONFIRMED\"\n        );\n        _;\n    }\n\n    modifier pastTimeLock(uint256 transactionId) {\n        require(\n            block.timestamp >= confirmationTimes[transactionId] + secondsTimeLocked,\n            \"TIME_LOCK_INCOMPLETE\"\n        );\n        _;\n    }\n\n    /// @dev Contract constructor sets initial owners, required number of confirmations, and time lock.\n    /// @param _owners List of initial owners.\n    /// @param _required Number of required confirmations.\n    /// @param _secondsTimeLocked Duration needed after a transaction is confirmed and before it becomes executable, in seconds.\n    constructor (\n        address[] memory _owners,\n        uint256 _required,\n        uint256 _secondsTimeLocked\n    )\n        MultiSigWallet(_owners, _required)\n        public\n    {\n        secondsTimeLocked = _secondsTimeLocked;\n    }\n\n    /// @dev Changes the duration of the time lock for transactions.\n    /// @param _secondsTimeLocked Duration needed after a transaction is confirmed and before it becomes executable, in seconds.\n    function changeTimeLock(uint256 _secondsTimeLocked)\n        public\n        onlyWallet\n    {\n        secondsTimeLocked = _secondsTimeLocked;\n        emit TimeLockChange(_secondsTimeLocked);\n    }\n\n    /// @dev Allows an owner to confirm a transaction.\n    /// @param transactionId Transaction ID.\n    function confirmTransaction(uint256 transactionId)\n        public\n        ownerExists(msg.sender)\n        transactionExists(transactionId)\n        notConfirmed(transactionId, msg.sender)\n        notFullyConfirmed(transactionId)\n    {\n        confirmations[transactionId][msg.sender] = true;\n        emit Confirmation(msg.sender, transactionId);\n        if (isConfirmed(transactionId)) {\n            setConfirmationTime(transactionId, block.timestamp);\n        }\n    }\n\n    /// @dev Allows anyone to execute a confirmed transaction.\n    /// @param transactionId Transaction ID.\n    function executeTransaction(uint256 transactionId)\n        public\n        notExecuted(transactionId)\n        fullyConfirmed(transactionId)\n        pastTimeLock(transactionId)\n    {\n        Transaction storage txn = transactions[transactionId];\n        txn.executed = true;\n        if (external_call(txn.destination, txn.value, txn.data.length, txn.data)) {\n            emit Execution(transactionId);\n        } else {\n            emit ExecutionFailure(transactionId);\n            txn.executed = false;\n        }\n    }\n\n    /// @dev Sets the time of when a submission first passed.\n    function setConfirmationTime(uint256 transactionId, uint256 confirmationTime)\n        internal\n    {\n        confirmationTimes[transactionId] = confirmationTime;\n        emit ConfirmationTimeSet(transactionId, confirmationTime);\n    }\n}\n",
  "sourcePath": "/home/rogelio/Code/dbet/prediction-market/core/contracts/0x/multisig/MultiSigWalletWithTimeLock.sol",
  "compiler": {
    "name": "solc",
    "version": "0.5.0+commit.1d4f565a.Emscripten.clang"
  },
  "schemaVersion": "3.0.1",
  "updatedAt": "2019-01-31T19:07:12.892Z",
  "devdoc": {
    "author": "Amir Bandeali - <amir@0xProject.com>",
    "methods": {
      "addOwner(address)": {
        "details": "Allows to add a new owner. Transaction has to be sent by wallet.",
        "params": {
          "owner": "Address of new owner."
        }
      },
      "changeRequirement(uint256)": {
        "details": "Allows to change the number of required confirmations. Transaction has to be sent by wallet.",
        "params": {
          "_required": "Number of required confirmations."
        }
      },
      "changeTimeLock(uint256)": {
        "details": "Changes the duration of the time lock for transactions.",
        "params": {
          "_secondsTimeLocked": "Duration needed after a transaction is confirmed and before it becomes executable, in seconds."
        }
      },
      "confirmTransaction(uint256)": {
        "details": "Allows an owner to confirm a transaction.",
        "params": {
          "transactionId": "Transaction ID."
        }
      },
      "constructor": {
        "details": "Contract constructor sets initial owners, required number of confirmations, and time lock.",
        "params": {
          "_owners": "List of initial owners.",
          "_required": "Number of required confirmations.",
          "_secondsTimeLocked": "Duration needed after a transaction is confirmed and before it becomes executable, in seconds."
        }
      },
      "executeTransaction(uint256)": {
        "details": "Allows anyone to execute a confirmed transaction.",
        "params": {
          "transactionId": "Transaction ID."
        }
      },
      "getConfirmationCount(uint256)": {
        "details": "Returns number of confirmations of a transaction.",
        "params": {
          "transactionId": "Transaction ID."
        },
        "return": "Number of confirmations."
      },
      "getConfirmations(uint256)": {
        "details": "Returns array with owner addresses, which confirmed transaction.",
        "params": {
          "transactionId": "Transaction ID."
        },
        "return": "Returns array of owner addresses."
      },
      "getOwners()": {
        "details": "Returns list of owners.",
        "return": "List of owner addresses."
      },
      "getTransactionCount(bool,bool)": {
        "details": "Returns total number of transactions after filers are applied.",
        "params": {
          "executed": "Include executed transactions.",
          "pending": "Include pending transactions."
        },
        "return": "Total number of transactions after filters are applied."
      },
      "getTransactionIds(uint256,uint256,bool,bool)": {
        "details": "Returns list of transaction IDs in defined range.",
        "params": {
          "executed": "Include executed transactions.",
          "from": "Index start position of transaction array.",
          "pending": "Include pending transactions.",
          "to": "Index end position of transaction array."
        },
        "return": "Returns array of transaction IDs."
      },
      "isConfirmed(uint256)": {
        "details": "Returns the confirmation status of a transaction.",
        "params": {
          "transactionId": "Transaction ID."
        },
        "return": "Confirmation status."
      },
      "removeOwner(address)": {
        "details": "Allows to remove an owner. Transaction has to be sent by wallet.",
        "params": {
          "owner": "Address of owner."
        }
      },
      "replaceOwner(address,address)": {
        "details": "Allows to replace an owner with a new owner. Transaction has to be sent by wallet.",
        "params": {
          "newOwner": "Address of new owner.",
          "owner": "Address of owner to be replaced."
        }
      },
      "revokeConfirmation(uint256)": {
        "details": "Allows an owner to revoke a confirmation for a transaction.",
        "params": {
          "transactionId": "Transaction ID."
        }
      },
      "submitTransaction(address,uint256,bytes)": {
        "details": "Allows an owner to submit and confirm a transaction.",
        "params": {
          "data": "Transaction data payload.",
          "destination": "Transaction target address.",
          "value": "Transaction ether value."
        },
        "return": "Returns transaction ID."
      }
    },
    "title": "Multisignature wallet with time lock- Allows multiple parties to execute a transaction after a time lock has passed."
  },
  "userdoc": {
    "methods": {}
  }
}