{
  "contractName": "OutcomeShareToken",
  "abi": [
    {
      "constant": true,
      "inputs": [],
      "name": "name",
      "outputs": [
        {
          "name": "",
          "type": "string"
        }
      ],
      "payable": false,
      "stateMutability": "view",
      "type": "function"
    },
    {
      "constant": false,
      "inputs": [
        {
          "name": "_spender",
          "type": "address"
        },
        {
          "name": "_value",
          "type": "uint256"
        }
      ],
      "name": "approve",
      "outputs": [
        {
          "name": "",
          "type": "bool"
        }
      ],
      "payable": false,
      "stateMutability": "nonpayable",
      "type": "function"
    },
    {
      "constant": true,
      "inputs": [],
      "name": "totalSupply",
      "outputs": [
        {
          "name": "",
          "type": "uint256"
        }
      ],
      "payable": false,
      "stateMutability": "view",
      "type": "function"
    },
    {
      "constant": false,
      "inputs": [
        {
          "name": "_from",
          "type": "address"
        },
        {
          "name": "_to",
          "type": "address"
        },
        {
          "name": "_value",
          "type": "uint256"
        }
      ],
      "name": "transferFrom",
      "outputs": [
        {
          "name": "",
          "type": "bool"
        }
      ],
      "payable": false,
      "stateMutability": "nonpayable",
      "type": "function"
    },
    {
      "constant": true,
      "inputs": [],
      "name": "decimals",
      "outputs": [
        {
          "name": "",
          "type": "uint8"
        }
      ],
      "payable": false,
      "stateMutability": "view",
      "type": "function"
    },
    {
      "constant": false,
      "inputs": [
        {
          "name": "_spender",
          "type": "address"
        },
        {
          "name": "_subtractedValue",
          "type": "uint256"
        }
      ],
      "name": "decreaseApproval",
      "outputs": [
        {
          "name": "",
          "type": "bool"
        }
      ],
      "payable": false,
      "stateMutability": "nonpayable",
      "type": "function"
    },
    {
      "constant": true,
      "inputs": [],
      "name": "marketId",
      "outputs": [
        {
          "name": "",
          "type": "bytes32"
        }
      ],
      "payable": false,
      "stateMutability": "view",
      "type": "function"
    },
    {
      "constant": true,
      "inputs": [
        {
          "name": "_owner",
          "type": "address"
        }
      ],
      "name": "balanceOf",
      "outputs": [
        {
          "name": "",
          "type": "uint256"
        }
      ],
      "payable": false,
      "stateMutability": "view",
      "type": "function"
    },
    {
      "constant": true,
      "inputs": [],
      "name": "erc20Proxy",
      "outputs": [
        {
          "name": "",
          "type": "address"
        }
      ],
      "payable": false,
      "stateMutability": "view",
      "type": "function"
    },
    {
      "constant": true,
      "inputs": [],
      "name": "owner",
      "outputs": [
        {
          "name": "",
          "type": "address"
        }
      ],
      "payable": false,
      "stateMutability": "view",
      "type": "function"
    },
    {
      "constant": true,
      "inputs": [],
      "name": "symbol",
      "outputs": [
        {
          "name": "",
          "type": "string"
        }
      ],
      "payable": false,
      "stateMutability": "view",
      "type": "function"
    },
    {
      "constant": false,
      "inputs": [
        {
          "name": "account",
          "type": "address"
        }
      ],
      "name": "addMinter",
      "outputs": [],
      "payable": false,
      "stateMutability": "nonpayable",
      "type": "function"
    },
    {
      "constant": false,
      "inputs": [],
      "name": "renounceMinter",
      "outputs": [],
      "payable": false,
      "stateMutability": "nonpayable",
      "type": "function"
    },
    {
      "constant": true,
      "inputs": [],
      "name": "totalMinted",
      "outputs": [
        {
          "name": "",
          "type": "uint256"
        }
      ],
      "payable": false,
      "stateMutability": "view",
      "type": "function"
    },
    {
      "constant": false,
      "inputs": [
        {
          "name": "_to",
          "type": "address"
        },
        {
          "name": "_value",
          "type": "uint256"
        }
      ],
      "name": "transfer",
      "outputs": [
        {
          "name": "",
          "type": "bool"
        }
      ],
      "payable": false,
      "stateMutability": "nonpayable",
      "type": "function"
    },
    {
      "constant": true,
      "inputs": [
        {
          "name": "account",
          "type": "address"
        }
      ],
      "name": "isMinter",
      "outputs": [
        {
          "name": "",
          "type": "bool"
        }
      ],
      "payable": false,
      "stateMutability": "view",
      "type": "function"
    },
    {
      "constant": true,
      "inputs": [],
      "name": "exchange",
      "outputs": [
        {
          "name": "",
          "type": "address"
        }
      ],
      "payable": false,
      "stateMutability": "view",
      "type": "function"
    },
    {
      "constant": false,
      "inputs": [
        {
          "name": "_spender",
          "type": "address"
        },
        {
          "name": "_addedValue",
          "type": "uint256"
        }
      ],
      "name": "increaseApproval",
      "outputs": [
        {
          "name": "",
          "type": "bool"
        }
      ],
      "payable": false,
      "stateMutability": "nonpayable",
      "type": "function"
    },
    {
      "constant": true,
      "inputs": [
        {
          "name": "_owner",
          "type": "address"
        },
        {
          "name": "_spender",
          "type": "address"
        }
      ],
      "name": "allowance",
      "outputs": [
        {
          "name": "",
          "type": "uint256"
        }
      ],
      "payable": false,
      "stateMutability": "view",
      "type": "function"
    },
    {
      "inputs": [
        {
          "name": "_name",
          "type": "string"
        },
        {
          "name": "_symbol",
          "type": "string"
        },
        {
          "name": "_marketId",
          "type": "bytes32"
        },
        {
          "name": "_exchange",
          "type": "address"
        },
        {
          "name": "_erc20Proxy",
          "type": "address"
        }
      ],
      "payable": false,
      "stateMutability": "nonpayable",
      "type": "constructor"
    },
    {
      "anonymous": false,
      "inputs": [
        {
          "indexed": true,
          "name": "account",
          "type": "address"
        }
      ],
      "name": "MinterAdded",
      "type": "event"
    },
    {
      "anonymous": false,
      "inputs": [
        {
          "indexed": true,
          "name": "account",
          "type": "address"
        }
      ],
      "name": "MinterRemoved",
      "type": "event"
    },
    {
      "anonymous": false,
      "inputs": [
        {
          "indexed": true,
          "name": "owner",
          "type": "address"
        },
        {
          "indexed": true,
          "name": "spender",
          "type": "address"
        },
        {
          "indexed": false,
          "name": "value",
          "type": "uint256"
        }
      ],
      "name": "Approval",
      "type": "event"
    },
    {
      "anonymous": false,
      "inputs": [
        {
          "indexed": true,
          "name": "from",
          "type": "address"
        },
        {
          "indexed": true,
          "name": "to",
          "type": "address"
        },
        {
          "indexed": false,
          "name": "value",
          "type": "uint256"
        }
      ],
      "name": "Transfer",
      "type": "event"
    },
    {
      "constant": false,
      "inputs": [
        {
          "name": "to",
          "type": "address"
        },
        {
          "name": "value",
          "type": "uint256"
        }
      ],
      "name": "mint",
      "outputs": [
        {
          "name": "",
          "type": "bool"
        }
      ],
      "payable": false,
      "stateMutability": "nonpayable",
      "type": "function"
    },
    {
      "constant": false,
      "inputs": [
        {
          "name": "user",
          "type": "address"
        }
      ],
      "name": "redeem",
      "outputs": [
        {
          "name": "",
          "type": "bool"
        }
      ],
      "payable": false,
      "stateMutability": "nonpayable",
      "type": "function"
    }
  ],
  "bytecode": "0x60806040523480156200001157600080fd5b50604051620011ea380380620011ea833981018060405260a08110156200003757600080fd5b8101908080516401000000008111156200005057600080fd5b820160208101848111156200006457600080fd5b81516401000000008111828201871017156200007f57600080fd5b505092919060200180516401000000008111156200009c57600080fd5b82016020810184811115620000b057600080fd5b8151640100000000811182820187101715620000cb57600080fd5b5050602082015160408301516060909301519194509250620000f6336401000000006200019e810204565b84516200010b906004906020880190620002dd565b50835162000121906005906020870190620002dd565b50600783905560098054600160a060020a038416600160a060020a03199091161790556006805460ff191660121790556200016582640100000000620001f0810204565b6008805433600160a060020a031991821617909155600a8054909116600160a060020a0392909216919091179055506200038292505050565b620001b960038264010000000062000d526200022782021704565b604051600160a060020a038216907f6ae172837ea30b801fbfcdd4108aa1d5bf8ff775444fd70256b44e6bf3dfc3f690600090a250565b620002043364010000000062000282810204565b15156200021057600080fd5b62000224816401000000006200019e810204565b50565b600160a060020a03811615156200023d57600080fd5b620002528282640100000000620002a5810204565b156200025d57600080fd5b600160a060020a0316600090815260209190915260409020805460ff19166001179055565b60006200029f60038364010000000062000d1b620002a582021704565b92915050565b6000600160a060020a0382161515620002bd57600080fd5b50600160a060020a03166000908152602091909152604090205460ff1690565b828054600181600116156101000203166002900490600052602060002090601f016020900481019282601f106200032057805160ff191683800117855562000350565b8280016001018555821562000350579182015b828111156200035057825182559160200191906001019062000333565b506200035e92915062000362565b5090565b6200037f91905b808211156200035e576000815560010162000369565b90565b610e5880620003926000396000f3fe60806040526004361061011c5763ffffffff7c010000000000000000000000000000000000000000000000000000000060003504166306fdde038114610121578063095ea7b3146101ab57806318160ddd146101f857806323b872dd1461021f578063313ce5671461026257806340c10f191461028d57806366188463146102c65780636ed71ede146102ff57806370a08231146103145780637f555b03146103475780638da5cb5b1461037857806395a2251f1461038d57806395d89b41146103c0578063983b2d56146103d5578063986502751461040a578063a2309ff81461041f578063a9059cbb14610434578063aa271e1a1461046d578063d2f7265a146104a0578063d73dd623146104b5578063dd62ed3e146104ee575b600080fd5b34801561012d57600080fd5b50610136610529565b6040805160208082528351818301528351919283929083019185019080838360005b83811015610170578181015183820152602001610158565b50505050905090810190601f16801561019d5780820380516001836020036101000a031916815260200191505b509250505060405180910390f35b3480156101b757600080fd5b506101e4600480360360408110156101ce57600080fd5b50600160a060020a0381351690602001356105b7565b604080519115158252519081900360200190f35b34801561020457600080fd5b5061020d61060b565b60408051918252519081900360200190f35b34801561022b57600080fd5b506101e46004803603606081101561024257600080fd5b50600160a060020a03813581169160208101359091169060400135610611565b34801561026e57600080fd5b50610277610776565b6040805160ff9092168252519081900360200190f35b34801561029957600080fd5b506101e4600480360360408110156102b057600080fd5b50600160a060020a03813516906020013561077f565b3480156102d257600080fd5b506101e4600480360360408110156102e957600080fd5b50600160a060020a03813516906020013561087f565b34801561030b57600080fd5b5061020d61095d565b34801561032057600080fd5b5061020d6004803603602081101561033757600080fd5b5035600160a060020a0316610963565b34801561035357600080fd5b5061035c61097e565b60408051600160a060020a039092168252519081900360200190f35b34801561038457600080fd5b5061035c61098d565b34801561039957600080fd5b506101e4600480360360208110156103b057600080fd5b5035600160a060020a031661099c565b3480156103cc57600080fd5b50610136610a37565b3480156103e157600080fd5b50610408600480360360208110156103f857600080fd5b5035600160a060020a0316610a92565b005b34801561041657600080fd5b50610408610ab2565b34801561042b57600080fd5b5061020d610abd565b34801561044057600080fd5b506101e46004803603604081101561045757600080fd5b50600160a060020a038135169060200135610ac3565b34801561047957600080fd5b506101e46004803603602081101561049057600080fd5b5035600160a060020a0316610b92565b3480156104ac57600080fd5b5061035c610bab565b3480156104c157600080fd5b506101e4600480360360408110156104d857600080fd5b50600160a060020a038135169060200135610bba565b3480156104fa57600080fd5b5061020d6004803603604081101561051157600080fd5b50600160a060020a0381358116916020013516610c41565b6004805460408051602060026001851615610100026000190190941693909304601f810184900484028201840190925281815292918301828280156105af5780601f10610584576101008083540402835291602001916105af565b820191906000526020600020905b81548152906001019060200180831161059257829003601f168201915b505050505081565b336000818152600260209081526040808320600160a060020a03871680855290835281842086905581518681529151939490939092600080516020610e0d833981519152928290030190a350600192915050565b60015490565b6000600160a060020a038316151561062857600080fd5b600160a060020a03841660009081526020819052604090205482111561064d57600080fd5b600160a060020a038416600090815260026020908152604080832033845290915290205482111561067d57600080fd5b600160a060020a0384166000908152602081905260409020546106a6908363ffffffff610c6c16565b600160a060020a0380861660009081526020819052604080822093909355908516815220546106db908363ffffffff610c7e16565b600160a060020a0380851660009081526020818152604080832094909455918716815260028252828120338252909152205461071d908363ffffffff610c6c16565b600160a060020a0380861660008181526002602090815260408083203384528252918290209490945580518681529051928716939192600080516020610ded833981519152929181900390910190a35060019392505050565b60065460ff1681565b600061078a33610b92565b151561079557600080fd5b6001546107a8908363ffffffff610c7e16565b600155600b546107be908363ffffffff610c7e16565b600b55600160a060020a0383166000908152602081905260409020546107ea908363ffffffff610c7e16565b600160a060020a038085166000818152602081815260408083209590955560028152848220600a5490941682529283528381208690558351868152935191939092600080516020610ded83398151915292918290030190a3600a54604080518481529051600160a060020a0392831692861691600080516020610e0d833981519152919081900360200190a350600192915050565b336000908152600260209081526040808320600160a060020a0386168452909152812054808311156108d457336000908152600260209081526040808320600160a060020a0388168452909152812055610909565b6108e4818463ffffffff610c6c16565b336000908152600260209081526040808320600160a060020a03891684529091529020555b336000818152600260209081526040808320600160a060020a038916808552908352928190205481519081529051929392600080516020610e0d833981519152929181900390910190a35060019392505050565b60075481565b600160a060020a031660009081526020819052604090205490565b600a54600160a060020a031681565b600854600160a060020a031681565b600954600090600160a060020a031633146109b657600080fd5b60006109c183610963565b116109cb57600080fd5b60006109d683610963565b6001549091506109ec908263ffffffff610c6c16565b600155600160a060020a03831660008181526020818152604080832083905580518581529051929392600080516020610ded833981519152929181900390910190a350600192915050565b6005805460408051602060026001851615610100026000190190941693909304601f810184900484028201840190925281815292918301828280156105af5780601f10610584576101008083540402835291602001916105af565b610a9b33610b92565b1515610aa657600080fd5b610aaf81610c8b565b50565b610abb33610cd3565b565b600b5481565b6000600160a060020a0383161515610ada57600080fd5b33600090815260208190526040902054821115610af657600080fd5b33600090815260208190526040902054610b16908363ffffffff610c6c16565b3360009081526020819052604080822092909255600160a060020a03851681522054610b48908363ffffffff610c7e16565b600160a060020a03841660008181526020818152604091829020939093558051858152905191923392600080516020610ded8339815191529281900390910190a350600192915050565b6000610ba560038363ffffffff610d1b16565b92915050565b600954600160a060020a031681565b336000908152600260209081526040808320600160a060020a0386168452909152812054610bee908363ffffffff610c7e16565b336000818152600260209081526040808320600160a060020a038916808552908352928190208590558051948552519193600080516020610e0d833981519152929081900390910190a350600192915050565b600160a060020a03918216600090815260026020908152604080832093909416825291909152205490565b600082821115610c7857fe5b50900390565b81810182811015610ba557fe5b610c9c60038263ffffffff610d5216565b604051600160a060020a038216907f6ae172837ea30b801fbfcdd4108aa1d5bf8ff775444fd70256b44e6bf3dfc3f690600090a250565b610ce460038263ffffffff610da016565b604051600160a060020a038216907fe94479a9f7e1952cc78f2d6baab678adc1b772d936c6583def489e524cb6669290600090a250565b6000600160a060020a0382161515610d3257600080fd5b50600160a060020a03166000908152602091909152604090205460ff1690565b600160a060020a0381161515610d6757600080fd5b610d718282610d1b565b15610d7b57600080fd5b600160a060020a0316600090815260209190915260409020805460ff19166001179055565b600160a060020a0381161515610db557600080fd5b610dbf8282610d1b565b1515610dca57600080fd5b600160a060020a0316600090815260209190915260409020805460ff1916905556feddf252ad1be2c89b69c2b068fc378daa952ba7f163c4a11628f55a4df523b3ef8c5be1e5ebec7d5bd14f71427d1e84f3dd0314c0f7b2291e5b200ac8c7c3b925a165627a7a7230582059aca3fe8d64a1eae3f67285ca0bd0220e68d8a3a2da238104aa0f20b6e476920029",
  "source": "pragma solidity 0.5.0;\n\nimport \"./libs/Roles.sol\";\nimport '../protocol/libs/LibSafeMath.sol';\n\n// Outcome shares Token contract for all possible bet outcomes. 1 Share = 1 ETH\ncontract ERC20Basic {\n    function totalSupply() public view returns (uint256);\n    function balanceOf(address who) public view returns (uint256);\n    function transfer(address to, uint256 value) public returns (bool);\n    event Transfer(address indexed from, address indexed to, uint256 value);\n}\n\ncontract ERC20 is ERC20Basic {\n    function allowance(address owner, address spender)\n    public view returns (uint256);\n\n    function transferFrom(address from, address to, uint256 value)\n    public returns (bool);\n\n    function approve(address spender, uint256 value) public returns (bool);\n    event Approval(\n        address indexed owner,\n        address indexed spender,\n        uint256 value\n    );\n}\n\ncontract BasicToken is ERC20 {\n    using LibSafeMath for uint256;\n\n    mapping(address => uint256) balances;\n\n    uint256 totalSupply_;\n\n    /**\n    * @dev Total number of tokens in existence\n    */\n    function totalSupply() public view returns (uint256) {\n        return totalSupply_;\n    }\n\n    /**\n    * @dev Transfer token for a specified address\n    * @param _to The address to transfer to.\n    * @param _value The amount to be transferred.\n    */\n    function transfer(address _to, uint256 _value) public returns (bool) {\n        require(_to != address(0));\n        require(_value <= balances[msg.sender]);\n\n        balances[msg.sender] = balances[msg.sender].sub(_value);\n        balances[_to] = balances[_to].add(_value);\n        emit Transfer(msg.sender, _to, _value);\n        return true;\n    }\n\n    /**\n    * @dev Gets the balance of the specified address.\n    * @param _owner The address to query the the balance of.\n    * @return An uint256 representing the amount owned by the passed address.\n    */\n    function balanceOf(address _owner) public view returns (uint256) {\n        return balances[_owner];\n    }\n\n}\n\ncontract StandardToken is BasicToken {\n\n    mapping (address => mapping (address => uint256)) internal allowed;\n\n    /**\n     * @dev Transfer tokens from one address to another\n     * @param _from address The address which you want to send tokens from\n     * @param _to address The address which you want to transfer to\n     * @param _value uint256 the amount of tokens to be transferred\n     */\n    function transferFrom(\n        address _from,\n        address _to,\n        uint256 _value\n    )\n    public\n    returns (bool)\n    {\n        require(_to != address(0));\n        require(_value <= balances[_from]);\n        require(_value <= allowed[_from][msg.sender]);\n\n        balances[_from] = balances[_from].sub(_value);\n        balances[_to] = balances[_to].add(_value);\n        allowed[_from][msg.sender] = allowed[_from][msg.sender].sub(_value);\n        emit Transfer(_from, _to, _value);\n        return true;\n    }\n\n    /**\n     * @dev Approve the passed address to spend the specified amount of tokens on behalf of msg.sender.\n     * Beware that changing an allowance with this method brings the risk that someone may use both the old\n     * and the new allowance by unfortunate transaction ordering. One possible solution to mitigate this\n     * race condition is to first reduce the spender's allowance to 0 and set the desired value afterwards:\n     * https://github.com/ethereum/EIPs/issues/20#issuecomment-263524729\n     * @param _spender The address which will spend the funds.\n     * @param _value The amount of tokens to be spent.\n     */\n    function approve(address _spender, uint256 _value) public returns (bool) {\n        allowed[msg.sender][_spender] = _value;\n        emit Approval(msg.sender, _spender, _value);\n        return true;\n    }\n\n    /**\n     * @dev Function to check the amount of tokens that an owner allowed to a spender.\n     * @param _owner address The address which owns the funds.\n     * @param _spender address The address which will spend the funds.\n     * @return A uint256 specifying the amount of tokens still available for the spender.\n     */\n    function allowance(\n        address _owner,\n        address _spender\n    )\n    public\n    view\n    returns (uint256)\n    {\n        return allowed[_owner][_spender];\n    }\n\n    /**\n     * @dev Increase the amount of tokens that an owner allowed to a spender.\n     * approve should be called when allowed[_spender] == 0. To increment\n     * allowed value is better to use this function to avoid 2 calls (and wait until\n     * the first transaction is mined)\n     * From MonolithDAO Token.sol\n     * @param _spender The address which will spend the funds.\n     * @param _addedValue The amount of tokens to increase the allowance by.\n     */\n    function increaseApproval(\n        address _spender,\n        uint256 _addedValue\n    )\n    public\n    returns (bool)\n    {\n        allowed[msg.sender][_spender] = (\n        allowed[msg.sender][_spender].add(_addedValue));\n        emit Approval(msg.sender, _spender, allowed[msg.sender][_spender]);\n        return true;\n    }\n\n    /**\n     * @dev Decrease the amount of tokens that an owner allowed to a spender.\n     * approve should be called when allowed[_spender] == 0. To decrement\n     * allowed value is better to use this function to avoid 2 calls (and wait until\n     * the first transaction is mined)\n     * From MonolithDAO Token.sol\n     * @param _spender The address which will spend the funds.\n     * @param _subtractedValue The amount of tokens to decrease the allowance by.\n     */\n    function decreaseApproval(\n        address _spender,\n        uint256 _subtractedValue\n    )\n    public\n    returns (bool)\n    {\n        uint256 oldValue = allowed[msg.sender][_spender];\n        if (_subtractedValue > oldValue) {\n            allowed[msg.sender][_spender] = 0;\n        } else {\n            allowed[msg.sender][_spender] = oldValue.sub(_subtractedValue);\n        }\n        emit Approval(msg.sender, _spender, allowed[msg.sender][_spender]);\n        return true;\n    }\n\n}\n\ncontract MinterRole {\n    using Roles for Roles.Role;\n\n    event MinterAdded(address indexed account);\n    event MinterRemoved(address indexed account);\n\n    Roles.Role private _minters;\n\n    constructor () internal {\n        _addMinter(msg.sender);\n    }\n\n    modifier onlyMinter() {\n        require(isMinter(msg.sender));\n        _;\n    }\n\n    function isMinter(address account) public view returns (bool) {\n        return _minters.has(account);\n    }\n\n    function addMinter(address account) public onlyMinter {\n        _addMinter(account);\n    }\n\n    function renounceMinter() public {\n        _removeMinter(msg.sender);\n    }\n\n    function _addMinter(address account) internal {\n        _minters.add(account);\n        emit MinterAdded(account);\n    }\n\n    function _removeMinter(address account) internal {\n        _minters.remove(account);\n        emit MinterRemoved(account);\n    }\n}\n\ncontract OutcomeShareToken is StandardToken, MinterRole {\n\n    string public name;\n    string public symbol;\n    uint8 public decimals;\n    bytes32 public marketId;\n    // Used to verify whether contract creator is the DBET betting market and not a fake address\n    address public owner;\n    // Used to allow only the betting exchange contract to perform redemptions for outcome share tokens\n    address public exchange;\n    // Used to transfer minted outcome tokens during order fills\n    address public erc20Proxy;\n    // Used to calculate winning outcome distribution (even after tokens are redeemed)\n    uint256 public totalMinted;\n\n    constructor(\n        string memory _name,\n        string memory _symbol,\n        bytes32 _marketId,\n        address _exchange,\n        address _erc20Proxy\n    ) public {\n        name = _name;\n        symbol = _symbol;\n        marketId = _marketId;\n        exchange = _exchange;\n        decimals = 18;\n        // Allow the betting exchange wrapper to mint tokens\n        addMinter(_exchange);\n        owner = msg.sender;\n        erc20Proxy = _erc20Proxy;\n    }\n\n    /**\n     * @dev Function to mint tokens\n     * @param to The address that will receive the minted tokens.\n     * @param value The amount of tokens to mint.\n     * @return A boolean that indicates if the operation was successful.\n     */\n    function mint(\n        address to,\n        uint256 value\n    )\n    public\n    onlyMinter\n    returns (bool) {\n        totalSupply_ = totalSupply_.add(value);\n        totalMinted = totalMinted.add(value);\n        balances[to] = balances[to].add(value);\n        // Allow erc20Proxy to transfer tokens on behalf of the user\n        allowed[to][erc20Proxy] = value;\n        emit Transfer(address(0), to, value);\n        emit Approval(to, erc20Proxy, value);\n        return true;\n    }\n\n    /**\n    * Allows the betting exchange contract to redeem tokens for a user\n    * @param user Address of user\n    */\n    function redeem(\n        address user\n    )\n    public\n    returns (bool) {\n        // Only allow betting exchange to call function\n        require(msg.sender == exchange);\n        // User must have a positive balance\n        require(balanceOf(user) > 0);\n        uint256 userBalance = balanceOf(user);\n        // Reduce the total supply\n        totalSupply_ = totalSupply_.sub(userBalance);\n        // Set user balance to 0\n        balances[user] = 0;\n        emit Transfer(user, address(0), userBalance);\n        return true;\n    }\n\n}\n",
  "sourcePath": "/home/rogelio/Code/dbet/prediction-market/core/contracts/token/OutcomeShareToken.sol",
  "compiler": {
    "name": "solc",
    "version": "0.5.0+commit.1d4f565a.Emscripten.clang"
  },
  "schemaVersion": "3.0.1",
  "updatedAt": "2019-01-31T19:07:12.979Z",
  "devdoc": {
    "methods": {
      "allowance(address,address)": {
        "details": "Function to check the amount of tokens that an owner allowed to a spender.",
        "params": {
          "_owner": "address The address which owns the funds.",
          "_spender": "address The address which will spend the funds."
        },
        "return": "A uint256 specifying the amount of tokens still available for the spender."
      },
      "approve(address,uint256)": {
        "details": "Approve the passed address to spend the specified amount of tokens on behalf of msg.sender. Beware that changing an allowance with this method brings the risk that someone may use both the old and the new allowance by unfortunate transaction ordering. One possible solution to mitigate this race condition is to first reduce the spender's allowance to 0 and set the desired value afterwards: https://github.com/ethereum/EIPs/issues/20#issuecomment-263524729",
        "params": {
          "_spender": "The address which will spend the funds.",
          "_value": "The amount of tokens to be spent."
        }
      },
      "balanceOf(address)": {
        "details": "Gets the balance of the specified address.",
        "params": {
          "_owner": "The address to query the the balance of."
        },
        "return": "An uint256 representing the amount owned by the passed address."
      },
      "decreaseApproval(address,uint256)": {
        "details": "Decrease the amount of tokens that an owner allowed to a spender. approve should be called when allowed[_spender] == 0. To decrement allowed value is better to use this function to avoid 2 calls (and wait until the first transaction is mined) From MonolithDAO Token.sol",
        "params": {
          "_spender": "The address which will spend the funds.",
          "_subtractedValue": "The amount of tokens to decrease the allowance by."
        }
      },
      "increaseApproval(address,uint256)": {
        "details": "Increase the amount of tokens that an owner allowed to a spender. approve should be called when allowed[_spender] == 0. To increment allowed value is better to use this function to avoid 2 calls (and wait until the first transaction is mined) From MonolithDAO Token.sol",
        "params": {
          "_addedValue": "The amount of tokens to increase the allowance by.",
          "_spender": "The address which will spend the funds."
        }
      },
      "mint(address,uint256)": {
        "details": "Function to mint tokens",
        "params": {
          "to": "The address that will receive the minted tokens.",
          "value": "The amount of tokens to mint."
        },
        "return": "A boolean that indicates if the operation was successful."
      },
      "redeem(address)": {
        "params": {
          "user": "Address of user"
        }
      },
      "totalSupply()": {
        "details": "Total number of tokens in existence"
      },
      "transfer(address,uint256)": {
        "details": "Transfer token for a specified address",
        "params": {
          "_to": "The address to transfer to.",
          "_value": "The amount to be transferred."
        }
      },
      "transferFrom(address,address,uint256)": {
        "details": "Transfer tokens from one address to another",
        "params": {
          "_from": "address The address which you want to send tokens from",
          "_to": "address The address which you want to transfer to",
          "_value": "uint256 the amount of tokens to be transferred"
        }
      }
    }
  },
  "userdoc": {
    "methods": {
      "redeem(address)": {
        "notice": "Allows the betting exchange contract to redeem tokens for a user"
      }
    }
  }
}