{
  "contractName": "Market",
  "abi": [
    {
      "constant": true,
      "inputs": [
        {
          "name": "",
          "type": "address"
        }
      ],
      "name": "admins",
      "outputs": [
        {
          "name": "",
          "type": "bool"
        }
      ],
      "payable": false,
      "stateMutability": "view",
      "type": "function"
    },
    {
      "constant": true,
      "inputs": [],
      "name": "SHARE_LONG",
      "outputs": [
        {
          "name": "",
          "type": "string"
        }
      ],
      "payable": false,
      "stateMutability": "view",
      "type": "function"
    },
    {
      "constant": true,
      "inputs": [],
      "name": "SEPARATOR",
      "outputs": [
        {
          "name": "",
          "type": "string"
        }
      ],
      "payable": false,
      "stateMutability": "view",
      "type": "function"
    },
    {
      "constant": true,
      "inputs": [
        {
          "name": "",
          "type": "bytes32"
        }
      ],
      "name": "markets",
      "outputs": [
        {
          "name": "marketType",
          "type": "uint8"
        },
        {
          "name": "categoryId",
          "type": "uint256"
        },
        {
          "name": "eventStart",
          "type": "uint256"
        },
        {
          "name": "marketOpen",
          "type": "uint256"
        },
        {
          "name": "marketClose",
          "type": "uint256"
        },
        {
          "name": "minBet",
          "type": "uint256"
        },
        {
          "name": "maxBet",
          "type": "uint256"
        },
        {
          "name": "ipfsHash",
          "type": "string"
        },
        {
          "name": "winningOutcome",
          "type": "bytes32"
        }
      ],
      "payable": false,
      "stateMutability": "view",
      "type": "function"
    },
    {
      "constant": true,
      "inputs": [],
      "name": "erc20Proxy",
      "outputs": [
        {
          "name": "",
          "type": "address"
        }
      ],
      "payable": false,
      "stateMutability": "view",
      "type": "function"
    },
    {
      "constant": true,
      "inputs": [],
      "name": "owner",
      "outputs": [
        {
          "name": "",
          "type": "address"
        }
      ],
      "payable": false,
      "stateMutability": "view",
      "type": "function"
    },
    {
      "constant": true,
      "inputs": [
        {
          "name": "x",
          "type": "bytes32"
        }
      ],
      "name": "bytes32ToString",
      "outputs": [
        {
          "name": "",
          "type": "string"
        }
      ],
      "payable": false,
      "stateMutability": "pure",
      "type": "function"
    },
    {
      "constant": true,
      "inputs": [],
      "name": "SHARE_SHORT",
      "outputs": [
        {
          "name": "",
          "type": "string"
        }
      ],
      "payable": false,
      "stateMutability": "view",
      "type": "function"
    },
    {
      "constant": true,
      "inputs": [],
      "name": "exchange",
      "outputs": [
        {
          "name": "",
          "type": "address"
        }
      ],
      "payable": false,
      "stateMutability": "view",
      "type": "function"
    },
    {
      "constant": true,
      "inputs": [
        {
          "name": "b",
          "type": "bool"
        }
      ],
      "name": "boolToString",
      "outputs": [
        {
          "name": "",
          "type": "string"
        }
      ],
      "payable": false,
      "stateMutability": "pure",
      "type": "function"
    },
    {
      "constant": true,
      "inputs": [],
      "name": "marketCount",
      "outputs": [
        {
          "name": "",
          "type": "uint256"
        }
      ],
      "payable": false,
      "stateMutability": "view",
      "type": "function"
    },
    {
      "constant": true,
      "inputs": [
        {
          "name": "b",
          "type": "bytes32"
        }
      ],
      "name": "bytes32ToBool",
      "outputs": [
        {
          "name": "",
          "type": "bool"
        }
      ],
      "payable": false,
      "stateMutability": "pure",
      "type": "function"
    },
    {
      "constant": true,
      "inputs": [],
      "name": "token",
      "outputs": [
        {
          "name": "",
          "type": "address"
        }
      ],
      "payable": false,
      "stateMutability": "view",
      "type": "function"
    },
    {
      "inputs": [
        {
          "name": "_token",
          "type": "address"
        },
        {
          "name": "_erc20Proxy",
          "type": "address"
        }
      ],
      "payable": false,
      "stateMutability": "nonpayable",
      "type": "constructor"
    },
    {
      "anonymous": false,
      "inputs": [
        {
          "indexed": true,
          "name": "id",
          "type": "bytes32"
        },
        {
          "indexed": true,
          "name": "categoryId",
          "type": "uint256"
        },
        {
          "indexed": false,
          "name": "admin",
          "type": "address"
        }
      ],
      "name": "LogNewMarket",
      "type": "event"
    },
    {
      "anonymous": false,
      "inputs": [
        {
          "indexed": true,
          "name": "marketId",
          "type": "bytes32"
        },
        {
          "indexed": false,
          "name": "outcome",
          "type": "bytes32"
        },
        {
          "indexed": false,
          "name": "_type",
          "type": "string"
        },
        {
          "indexed": false,
          "name": "name",
          "type": "bytes32"
        },
        {
          "indexed": false,
          "name": "_address",
          "type": "address"
        }
      ],
      "name": "LogNewOutcomeShareToken",
      "type": "event"
    },
    {
      "anonymous": false,
      "inputs": [
        {
          "indexed": true,
          "name": "marketId",
          "type": "bytes32"
        },
        {
          "indexed": false,
          "name": "outcome",
          "type": "bytes32"
        }
      ],
      "name": "LogWinningOutcome",
      "type": "event"
    },
    {
      "anonymous": false,
      "inputs": [
        {
          "indexed": true,
          "name": "_address",
          "type": "address"
        }
      ],
      "name": "LogAddAdmin",
      "type": "event"
    },
    {
      "anonymous": false,
      "inputs": [
        {
          "indexed": true,
          "name": "_address",
          "type": "address"
        }
      ],
      "name": "LogRemoveAdmin",
      "type": "event"
    },
    {
      "constant": false,
      "inputs": [
        {
          "name": "_exchange",
          "type": "address"
        }
      ],
      "name": "setBettingExchange",
      "outputs": [
        {
          "name": "",
          "type": "bool"
        }
      ],
      "payable": false,
      "stateMutability": "nonpayable",
      "type": "function"
    },
    {
      "constant": false,
      "inputs": [
        {
          "name": "marketType",
          "type": "uint8"
        },
        {
          "name": "categoryId",
          "type": "uint256"
        },
        {
          "name": "eventStart",
          "type": "uint256"
        },
        {
          "name": "marketOpen",
          "type": "uint256"
        },
        {
          "name": "marketClose",
          "type": "uint256"
        },
        {
          "name": "outcomes",
          "type": "bytes32[]"
        },
        {
          "name": "minBet",
          "type": "uint256"
        },
        {
          "name": "maxBet",
          "type": "uint256"
        },
        {
          "name": "ipfsHash",
          "type": "string"
        }
      ],
      "name": "createBettingMarket",
      "outputs": [
        {
          "name": "",
          "type": "bytes32"
        }
      ],
      "payable": false,
      "stateMutability": "nonpayable",
      "type": "function"
    },
    {
      "constant": false,
      "inputs": [
        {
          "name": "id",
          "type": "bytes32"
        },
        {
          "name": "outcome",
          "type": "bytes32"
        }
      ],
      "name": "resolveMarket",
      "outputs": [
        {
          "name": "",
          "type": "bool"
        }
      ],
      "payable": false,
      "stateMutability": "nonpayable",
      "type": "function"
    },
    {
      "constant": false,
      "inputs": [
        {
          "name": "marketId",
          "type": "bytes32"
        }
      ],
      "name": "redeemFavorableOutcomeShares",
      "outputs": [
        {
          "name": "",
          "type": "uint256"
        }
      ],
      "payable": false,
      "stateMutability": "nonpayable",
      "type": "function"
    },
    {
      "constant": true,
      "inputs": [
        {
          "name": "marketId",
          "type": "bytes32"
        },
        {
          "name": "_address",
          "type": "address"
        },
        {
          "name": "outcome",
          "type": "bytes32"
        },
        {
          "name": "shareType",
          "type": "string"
        }
      ],
      "name": "getMarketOutcomeShareTokenBalance",
      "outputs": [
        {
          "name": "",
          "type": "uint256"
        }
      ],
      "payable": false,
      "stateMutability": "view",
      "type": "function"
    },
    {
      "constant": true,
      "inputs": [
        {
          "name": "marketId",
          "type": "bytes32"
        },
        {
          "name": "outcome",
          "type": "bytes32"
        },
        {
          "name": "shareType",
          "type": "string"
        }
      ],
      "name": "getTotalMintedOutcomeShareTokens",
      "outputs": [
        {
          "name": "",
          "type": "uint256"
        }
      ],
      "payable": false,
      "stateMutability": "view",
      "type": "function"
    },
    {
      "constant": true,
      "inputs": [
        {
          "name": "marketId",
          "type": "bytes32"
        }
      ],
      "name": "calculateProfitPerFavorableOutcomeShareToken",
      "outputs": [
        {
          "name": "",
          "type": "uint256"
        }
      ],
      "payable": false,
      "stateMutability": "view",
      "type": "function"
    },
    {
      "constant": false,
      "inputs": [
        {
          "name": "_address",
          "type": "address"
        }
      ],
      "name": "addAdmin",
      "outputs": [
        {
          "name": "",
          "type": "bool"
        }
      ],
      "payable": false,
      "stateMutability": "nonpayable",
      "type": "function"
    },
    {
      "constant": false,
      "inputs": [
        {
          "name": "_address",
          "type": "address"
        }
      ],
      "name": "removeAdmin",
      "outputs": [
        {
          "name": "",
          "type": "bool"
        }
      ],
      "payable": false,
      "stateMutability": "nonpayable",
      "type": "function"
    },
    {
      "constant": true,
      "inputs": [
        {
          "name": "marketId",
          "type": "bytes32"
        }
      ],
      "name": "getMarketOutcomeCount",
      "outputs": [
        {
          "name": "",
          "type": "uint256"
        }
      ],
      "payable": false,
      "stateMutability": "view",
      "type": "function"
    },
    {
      "constant": true,
      "inputs": [
        {
          "name": "marketId",
          "type": "bytes32"
        },
        {
          "name": "index",
          "type": "uint256"
        }
      ],
      "name": "getMarketOutcomeAtIndex",
      "outputs": [
        {
          "name": "",
          "type": "bytes32"
        }
      ],
      "payable": false,
      "stateMutability": "view",
      "type": "function"
    },
    {
      "constant": true,
      "inputs": [
        {
          "name": "marketId",
          "type": "bytes32"
        },
        {
          "name": "outcomeShareTokenName",
          "type": "bytes32"
        }
      ],
      "name": "getMarketOutcomeShareToken",
      "outputs": [
        {
          "name": "",
          "type": "address"
        }
      ],
      "payable": false,
      "stateMutability": "view",
      "type": "function"
    },
    {
      "constant": true,
      "inputs": [
        {
          "name": "marketId",
          "type": "bytes32"
        },
        {
          "name": "outcome",
          "type": "bytes32"
        },
        {
          "name": "shareType",
          "type": "string"
        }
      ],
      "name": "getMarketOutcomeShareToken",
      "outputs": [
        {
          "name": "",
          "type": "address"
        }
      ],
      "payable": false,
      "stateMutability": "view",
      "type": "function"
    },
    {
      "constant": true,
      "inputs": [
        {
          "name": "marketId",
          "type": "bytes32"
        },
        {
          "name": "outcome",
          "type": "bytes32"
        },
        {
          "name": "shareType",
          "type": "string"
        }
      ],
      "name": "getMarketOutcomeShareTokenName",
      "outputs": [
        {
          "name": "",
          "type": "bytes32"
        }
      ],
      "payable": false,
      "stateMutability": "view",
      "type": "function"
    },
    {
      "constant": true,
      "inputs": [
        {
          "name": "marketId",
          "type": "bytes32"
        }
      ],
      "name": "getMarketInfo",
      "outputs": [
        {
          "name": "",
          "type": "uint8"
        },
        {
          "name": "",
          "type": "uint256"
        },
        {
          "name": "",
          "type": "uint256"
        },
        {
          "name": "",
          "type": "uint256"
        },
        {
          "name": "",
          "type": "string"
        },
        {
          "name": "",
          "type": "bytes32"
        }
      ],
      "payable": false,
      "stateMutability": "view",
      "type": "function"
    }
  ],
  "bytecode": "0x608060405234801561001057600080fd5b50604051604080613c398339810180604052604081101561003057600080fd5b50805160209182015160008054600160a060020a03938416600160a060020a031991821617825560018054938516938216939093178355600280549091163317908190559092168252600490925260409020805460ff19169091179055613b9d8061009c6000396000f3fe6080604052600436106200016d5763ffffffff60e060020a6000350416631785f53c8114620001725780631df4732d14620001bd5780633536e6301462000203578063429b62e5146200023757806348b2529a146200026e5780635afa89ee14620002fe5780635d27e9a6146200032c5780637048027514620003445780637564912b146200037b5780637f555b03146200046b57806382b9373d146200049f5780638da5cb5b14620005655780639201de55146200057d578063a270cdf314620005ab578063a369f403146200067d578063a85377f514620007ed578063b79ced261462000821578063c22c09151462000858578063c3cbe87f1462000870578063c8025fd01462000936578063d2f7265a14620009fc578063d5c3a7481462000a14578063e1f7a3ab1462000aea578063e66591971462000b18578063ec9790821462000b48578063f3b761531462000b60578063f7302d7b1462000b8e578063fc0c546a1462000bbc575b600080fd5b3480156200017f57600080fd5b50620001a9600480360360208110156200019857600080fd5b5035600160a060020a031662000bd4565b604080519115158252519081900360200190f35b348015620001ca57600080fd5b50620001f160048036036040811015620001e357600080fd5b508035906020013562000c74565b60408051918252519081900360200190f35b3480156200021057600080fd5b50620001a9600480360360408110156200022957600080fd5b508035906020013562000ca5565b3480156200024457600080fd5b50620001a9600480360360208110156200025d57600080fd5b5035600160a060020a031662000eda565b3480156200027b57600080fd5b506200028662000eef565b6040805160208082528351818301528351919283929083019185019080838360005b83811015620002c2578181015183820152602001620002a8565b50505050905090810190601f168015620002f05780820380516001836020036101000a031916815260200191505b509250505060405180910390f35b3480156200030b57600080fd5b50620001f1600480360360208110156200032457600080fd5b503562000f10565b3480156200033957600080fd5b506200028662000f29565b3480156200035157600080fd5b50620001a9600480360360208110156200036a57600080fd5b5035600160a060020a031662000f60565b3480156200038857600080fd5b50620003a960048036036020811015620003a157600080fd5b503562001003565b604051808a6001811115620003ba57fe5b60ff16815260200189815260200188815260200187815260200186815260200185815260200184815260200180602001838152602001828103825284818151815260200191508051906020019080838360005b83811015620004275781810151838201526020016200040d565b50505050905090810190601f168015620004555780820380516001836020036101000a031916815260200191505b509a505050505050505050505060405180910390f35b3480156200047857600080fd5b5062000483620010e2565b60408051600160a060020a039092168252519081900360200190f35b348015620004ac57600080fd5b50620001f160048036036060811015620004c557600080fd5b813591602081013591810190606081016040820135640100000000811115620004ed57600080fd5b8201836020820111156200050057600080fd5b803590602001918460018302840111640100000000831117156200052357600080fd5b91908080601f016020809104026020016040519081016040528093929190818152602001838380828437600092019190915250929550620010f1945050505050565b3480156200057257600080fd5b5062000483620011ff565b3480156200058a57600080fd5b506200028660048036036020811015620005a357600080fd5b50356200120e565b348015620005b857600080fd5b50620005d960048036036020811015620005d157600080fd5b503562001374565b604051808760ff1660ff16815260200186815260200185815260200184815260200180602001838152602001828103825284818151815260200191508051906020019080838360005b838110156200063c57818101518382015260200162000622565b50505050905090810190601f1680156200066a5780820380516001836020036101000a031916815260200191505b5097505050505050505060405180910390f35b3480156200068a57600080fd5b50620001f16004803603610120811015620006a457600080fd5b60ff823516916020810135916040820135916060810135916080820135919081019060c0810160a0820135640100000000811115620006e257600080fd5b820183602082011115620006f557600080fd5b803590602001918460208302840111640100000000831117156200071857600080fd5b91908080602002602001604051908101604052809392919081815260200183836020028082843760009201919091525092958435956020860135959194509250606081019150604001356401000000008111156200077557600080fd5b8201836020820111156200078857600080fd5b80359060200191846001830284011164010000000083111715620007ab57600080fd5b91908080601f01602080910402602001604051908101604052809392919081815260200183838082843760009201919091525092955062001470945050505050565b348015620007fa57600080fd5b5062000483600480360360408110156200081357600080fd5b5080359060200135620017e4565b3480156200082e57600080fd5b50620001a9600480360360208110156200084757600080fd5b5035600160a060020a03166200180e565b3480156200086557600080fd5b506200028662001895565b3480156200087d57600080fd5b5062000483600480360360608110156200089657600080fd5b813591602081013591810190606081016040820135640100000000811115620008be57600080fd5b820183602082011115620008d157600080fd5b80359060200191846001830284011164010000000083111715620008f457600080fd5b91908080601f016020809104026020016040519081016040528093929190818152602001838380828437600092019190915250929550620018b7945050505050565b3480156200094357600080fd5b50620001f1600480360360608110156200095c57600080fd5b8135916020810135918101906060810160408201356401000000008111156200098457600080fd5b8201836020820111156200099757600080fd5b80359060200191846001830284011164010000000083111715620009ba57600080fd5b91908080601f016020809104026020016040519081016040528093929190818152602001838380828437600092019190915250929550620018de945050505050565b34801562000a0957600080fd5b506200048362001955565b34801562000a2157600080fd5b50620001f16004803603608081101562000a3a57600080fd5b813591600160a060020a03602082013516916040820135919081019060808101606082013564010000000081111562000a7257600080fd5b82018360208201111562000a8557600080fd5b8035906020019184600183028401116401000000008311171562000aa857600080fd5b91908080601f01602080910402602001604051908101604052809392919081815260200183838082843760009201919091525092955062001964945050505050565b34801562000af757600080fd5b50620001f16004803603602081101562000b1057600080fd5b503562001a03565b34801562000b2557600080fd5b50620002866004803603602081101562000b3e57600080fd5b5035151562001bc1565b34801562000b5557600080fd5b50620001f162001c4d565b34801562000b6d57600080fd5b50620001f16004803603602081101562000b8657600080fd5b503562001c53565b34801562000b9b57600080fd5b50620001a96004803603602081101562000bb457600080fd5b503562001fc3565b34801562000bc957600080fd5b506200048362001fe9565b600254600090600160a060020a0316331462000c29576040805160e560020a62461bcd02815260206004820152600e602482015260008051602062003b52833981519152604482015290519081900360640190fd5b600160a060020a038216600081815260046020526040808220805460ff19169055517f78693bd77b9425cf4363f929f93dd7d744f9d7474b3de94b2895020cf56f4a019190a2919050565b600082815260056020819052604082200180548390811062000c9257fe5b9060005260206000200154905092915050565b3360009081526004602052604081205460ff16151562000cfe576040805160e560020a62461bcd02815260206004820152600e602482015260008051602062003b52833981519152604482015290519081900360640190fd5b6000838152600560208190526040822001541162000d66576040805160e560020a62461bcd02815260206004820152601160248201527f494e56414c49445f4d41524b45545f4944000000000000000000000000000000604482015290519081900360640190fd5b600083815260056020526040902060040154421162000dcf576040805160e560020a62461bcd02815260206004820152601460248201527f494e56414c49445f4d41524b45545f434c4f5345000000000000000000000000604482015290519081900360640190fd5b6000805b6000858152600560208190526040909120015481101562000e305760008581526005602081905260409091200180548591908390811062000e1057fe5b9060005260206000200154141562000e2757600191505b60010162000dd3565b5080151562000e89576040805160e560020a62461bcd02815260206004820152600f60248201527f494e56414c49445f4f5554434f4d450000000000000000000000000000000000604482015290519081900360640190fd5b600084815260056020908152604091829020600a018590558151858152915186927f85e0df5956eb3871f0e2f1891b8d89cb474ec7ae5633dcbbc7b70f6df2d0eeba92908290030190a25092915050565b60046020526000908152604090205460ff1681565b604080518082019091526004815260e060020a636c6f6e6702602082015281565b600081815260056020819052604090912001545b919050565b60408051808201909152600181527f2d00000000000000000000000000000000000000000000000000000000000000602082015281565b600254600090600160a060020a0316331462000fb5576040805160e560020a62461bcd02815260206004820152600e602482015260008051602062003b52833981519152604482015290519081900360640190fd5b600160a060020a038216600081815260046020526040808220805460ff19166001179055517f6b752a74438d47bfe20cac17baf37ecb035071c961f1f9fc463d4f4baf78ce6a9190a2919050565b6005602090815260009182526040918290208054600180830154600280850154600386015460048701546007880154600889015460098a0180548d51601f6000199b831615610100029b909b01909116979097049889018c90048c0287018c01909c5287865260ff9098169a9599939892979196909591949293830182828015620010d25780601f10620010a657610100808354040283529160200191620010d2565b820191906000526020600020905b815481529060010190602001808311620010b457829003601f168201915b50505050509080600a0154905089565b600154600160a060020a031681565b600060028484846040516020018084815260200183815260200182805190602001908083835b60208310620011385780518252601f19909201916020918201910162001117565b6001836020036101000a03801982511681845116808217855250505050505090500193505050506040516020818303038152906040526040518082805190602001908083835b602083106200119f5780518252601f1990920191602091820191016200117e565b51815160209384036101000a60001901801990921691161790526040519190930194509192505080830381855afa158015620011df573d6000803e3d6000fd5b5050506040513d6020811015620011f557600080fd5b5051949350505050565b600254600160a060020a031681565b6040805160208082528183019092526060918291906020820181803883390190505090506000805b6020811015620012c3576008810260020a85027fff00000000000000000000000000000000000000000000000000000000000000811615620012b9578084848151811015156200128257fe5b9060200101907effffffffffffffffffffffffffffffffffffffffffffffffffffffffffffff1916908160001a9053506001909201915b5060010162001236565b506060816040519080825280601f01601f191660200182016040528015620012f2576020820181803883390190505b50905060005b828110156200136b5783818151811015156200131057fe5b90602001015160f860020a900460f860020a0282828151811015156200133257fe5b9060200101907effffffffffffffffffffffffffffffffffffffffffffffffffffffffffffff1916908160001a905350600101620012f8565b50949350505050565b600081815260056020526040812054819081908190606090829060ff1660018111156200139d57fe5b60008881526005602090815260409182902060028082015460038301546004840154600a8501546009909501805488516001821615610100026000190190911695909504601f81018890048802860188019098528785529296919590949293918491830182828015620014545780601f10620014285761010080835404028352916020019162001454565b820191906000526020600020905b8154815290600101906020018083116200143657829003601f168201915b5050505050915095509550955095509550955091939550919395565b600354600090600160a060020a03161515620014d6576040805160e560020a62461bcd02815260206004820152601860248201527f494e56414c49445f45584348414e47455f414444524553530000000000000000604482015290519081900360640190fd5b3360009081526004602052604090205460ff1615156200152f576040805160e560020a62461bcd02815260206004820152600e602482015260008051602062003b52833981519152604482015290519081900360640190fd5b4287101580156200153f57508787105b151562001596576040805160e560020a62461bcd02815260206004820152601360248201527f494e56414c49445f4d41524b45545f4f50454e00000000000000000000000000604482015290519081900360640190fd5b8686118015620015a557508786105b1515620015fc576040805160e560020a62461bcd02815260206004820152601460248201527f494e56414c49445f4d41524b45545f434c4f5345000000000000000000000000604482015290519081900360640190fd5b4288101562001655576040805160e560020a62461bcd02815260206004820152601360248201527f494e56414c49445f4556454e545f535441525400000000000000000000000000604482015290519081900360640190fd5b845160011115620016b0576040805160e560020a62461bcd02815260206004820152601060248201527f494e56414c49445f4f5554434f4d455300000000000000000000000000000000604482015290519081900360640190fd5b8315801590620016bf57508215155b8015620016cc5750838310155b151562001723576040805160e560020a62461bcd02815260206004820152601360248201527f494e56414c49445f4245545f414d4f554e545300000000000000000000000000604482015290519081900360640190fd5b815115156200177c576040805160e560020a62461bcd02815260206004820152601160248201527f494e56414c49445f495046535f48415348000000000000000000000000000000604482015290519081900360640190fd5b6000620017918b8b8b8b8b8b8b8b8b62001ff8565b90506200179f818762002243565b6040805133815290518b9183917f1069530dd42c149d0628cc9f16033aa007e9857fb0b25fe01d7a52729822d0aa9181900360200190a3509998505050505050505050565b600091825260056020908152604080842092845260069092019052902054600160a060020a031690565b600254600090600160a060020a0316331462001863576040805160e560020a62461bcd02815260206004820152600e602482015260008051602062003b52833981519152604482015290519081900360640190fd5b5060038054600160a060020a03831673ffffffffffffffffffffffffffffffffffffffff199091161790556001919050565b604080518082019091526005815260da60020a641cda1bdc9d02602082015281565b600080620018c7858585620010f1565b9050620018d58582620017e4565b95945050505050565b6000620018ed848484620018b7565b600160a060020a031663a2309ff86040518163ffffffff1660e060020a02815260040160206040518083038186803b1580156200192957600080fd5b505afa1580156200193e573d6000803e3d6000fd5b505050506040513d6020811015620011f557600080fd5b600354600160a060020a031681565b600062001973858484620018b7565b600160a060020a03166370a08231856040518263ffffffff1660e060020a0281526004018082600160a060020a0316600160a060020a0316815260200191505060206040518083038186803b158015620019cc57600080fd5b505afa158015620019e1573d6000803e3d6000fd5b505050506040513d6020811015620019f857600080fd5b505195945050505050565b60008080805b6000858152600560208190526040909120015481101562001ba6576000858152600560208190526040909120600a810154910180548390811062001a4957fe5b9060005260206000200154141562001b3e5762001ac762001ab986600560008981526020019081526020016000206005018481548110151562001a8857fe5b906000526020600020015460408051908101604052806004815260200160e060020a636c6f6e6702815250620018de565b849063ffffffff6200284a16565b925062001b3662001b2886600560008981526020019081526020016000206005018481548110151562001af657fe5b906000526020600020015460408051908101604052806005815260200160da60020a641cda1bdc9d02815250620018de565b839063ffffffff6200284a16565b915062001b9d565b62001b6b62001ab986600560008981526020019081526020016000206005018481548110151562001af657fe5b925062001b9a62001b2886600560008981526020019081526020016000206005018481548110151562001a8857fe5b91505b60010162001a09565b5062001bb9818363ffffffff6200285e16565b949350505050565b60606001821515141562001c0a575060408051808201909152600481527f7472756500000000000000000000000000000000000000000000000000000000602082015262000f24565b81151562000f24575060408051808201909152600581527f66616c7365000000000000000000000000000000000000000000000000000000602082015262000f24565b60065481565b600081815260056020819052604082200154811062001cbc576040805160e560020a62461bcd02815260206004820152601160248201527f494e56414c49445f4d41524b45545f4944000000000000000000000000000000604482015290519081900360640190fd5b600082815260056020526040902060040154421162001d25576040805160e560020a62461bcd02815260206004820152601460248201527f494e56414c49445f4d41524b45545f434c4f5345000000000000000000000000604482015290519081900360640190fd5b6000828152600560205260409020600a0154151562001d8e576040805160e560020a62461bcd02815260206004820152601360248201527f4d41524b45545f4e4f545f5245534f4c56454400000000000000000000000000604482015290519081900360640190fd5b600062001d9b8362001a03565b90506000805b6000858152600560208190526040909120015481101562001fbb576000858152600560208190526040822001805462001e6f9188913391908690811062001de457fe5b60009182526020808320909101548b83526005918290526040909220600a810154910180548890811062001e1457fe5b90600052602060002001541462001e4a57604080518082019091526005815260da60020a641cda1bdc9d02602082015262001e69565b604080518082019091526004815260e060020a636c6f6e670260208201525b62001964565b9050600081111562001fb1576003546000878152600560208190526040909120018054600160a060020a0390921691638686bc999189918690811062001eb157fe5b9060005260206000200154336040518463ffffffff1660e060020a0281526004018084815260200183815260200182600160a060020a0316600160a060020a031681526020019350505050602060405180830381600087803b15801562001f1757600080fd5b505af115801562001f2c573d6000803e3d6000fd5b505050506040513d602081101562001f4357600080fd5b5051151562001f9c576040805160e560020a62461bcd02815260206004820152601d60248201527f42455454494e475f45584348414e47455f52454445454d5f4552524f52000000604482015290519081900360640190fd5b62001fae838263ffffffff6200284a16565b92505b5060010162001da1565b509392505050565b600081151562001fd65750600062000f24565b60018214156200016d5750600162000f24565b600054600160a060020a031681565b600080600260066000815480929190600101919050558c8a8a8d8b604051602001808781526020018660ff1660ff1660f860020a028152600101858152602001848152602001838152602001828051906020019060200280838360005b838110156200206f57818101518382015260200162002055565b5050505090500196505050505050506040516020818303038152906040526040518082805190602001908083835b60208310620020be5780518252601f1990920191602091820191016200209d565b51815160209384036101000a60001901801990921691161790526040519190930194509192505080830381855afa158015620020fe573d6000803e3d6000fd5b5050506040513d60208110156200211457600080fd5b50516040805161014081019091529091508060ff8d1660018111156200213657fe5b60018111156200214257fe5b815260208082018d905260408083018d9052606083018c9052608083018b905260a083018a905260c0830189905260e08301889052610100830187905260006101209093018390528483526005909152902081518154829060ff191660018381811115620021ac57fe5b0217905550602082810151600183015560408301516002830155606083015160038301556080830151600483015560a08301518051620021f3926005850192019062002874565b5060c0820151600782015560e08201516008820155610100820151805162002226916009840191602090910190620028c4565b506101209190910151600a909101559a9950505050505050505050565b60005b81518160ff161015620028455760006200229c84848460ff168151811015156200226c57fe5b9060200190602002015160408051908101604052806004815260200160e060020a636c6f6e6702815250620010f1565b9050620022a9816200120e565b620022b4826200120e565b6003546001548791600160a060020a039081169116620022d362002936565b60408101849052600160a060020a0380841660608301528216608082015260a08082528651908201528551819060208083019160c08401918a019080838360005b838110156200232e57818101518382015260200162002314565b50505050905090810190601f1680156200235c5780820380516001836020036101000a031916815260200191505b50838103825287518152875160209182019189019080838360005b838110156200239157818101518382015260200162002377565b50505050905090810190601f168015620023bf5780820380516001836020036101000a031916815260200191505b50975050505050505050604051809103906000f080158015620023e6573d6000803e3d6000fd5b5060008581526005602090815260408083208584526006019091529020805473ffffffffffffffffffffffffffffffffffffffff1916600160a060020a0392909216919091179055825184907f5bcbeeaea42edea0636d62068c50e13e0e85000976dd67a518e2707230cdf17990859060ff86169081106200246457fe5b60209081029091018101516040805180820182526004815260e060020a636c6f6e670281850190815260008b81526005865283812089825260060186528381205484518681529485018a9052600160a060020a03166060850181905260809685018781528451978601979097528351959693958a9591949193919260a085019291908190849084905b8381101562002507578181015183820152602001620024ed565b50505050905090810190601f168015620025355780820380516001836020036101000a031916815260200191505b509550505050505060405180910390a260006200258f85858560ff168151811015156200255e57fe5b9060200190602002015160408051908101604052806005815260200160da60020a641cda1bdc9d02815250620010f1565b90506200259c816200120e565b620025a7826200120e565b6003546001548891600160a060020a039081169116620025c662002936565b60408101849052600160a060020a0380841660608301528216608082015260a08082528651908201528551819060208083019160c08401918a019080838360005b838110156200262157818101518382015260200162002607565b50505050905090810190601f1680156200264f5780820380516001836020036101000a031916815260200191505b50838103825287518152875160209182019189019080838360005b83811015620026845781810151838201526020016200266a565b50505050905090810190601f168015620026b25780820380516001836020036101000a031916815260200191505b50975050505050505050604051809103906000f080158015620026d9573d6000803e3d6000fd5b5060008681526005602090815260408083208584526006019091529020805473ffffffffffffffffffffffffffffffffffffffff1916600160a060020a0392909216919091179055835185907f5bcbeeaea42edea0636d62068c50e13e0e85000976dd67a518e2707230cdf17990869060ff87169081106200275757fe5b6020908102909101810151604080518082018252600580825260da60020a641cda1bdc9d0282860190815260008d815291865283822089835260060186528382205484518681529485018a9052600160a060020a03166060850181905260809685018781528451978601979097528351959693958a9591949193919260a08501929091908190849084905b83811015620027fc578181015183820152602001620027e2565b50505050905090810190601f1680156200282a5780820380516001836020036101000a031916815260200191505b509550505050505060405180910390a2505060010162002246565b505050565b818101828110156200285857fe5b92915050565b600081838115156200286c57fe5b049392505050565b828054828255906000526020600020908101928215620028b2579160200282015b82811115620028b257825182559160200191906001019062002895565b50620028c092915062002947565b5090565b828054600181600116156101000203166002900490600052602060002090601f016020900481019282601f106200290757805160ff1916838001178555620028b2565b82800160010185558215620028b25791820182811115620028b257825182559160200191906001019062002895565b6040516111ea806200296883390190565b6200296491905b80821115620028c057600081556001016200294e565b9056fe60806040523480156200001157600080fd5b50604051620011ea380380620011ea833981018060405260a08110156200003757600080fd5b8101908080516401000000008111156200005057600080fd5b820160208101848111156200006457600080fd5b81516401000000008111828201871017156200007f57600080fd5b505092919060200180516401000000008111156200009c57600080fd5b82016020810184811115620000b057600080fd5b8151640100000000811182820187101715620000cb57600080fd5b5050602082015160408301516060909301519194509250620000f6336401000000006200019e810204565b84516200010b906004906020880190620002dd565b50835162000121906005906020870190620002dd565b50600783905560098054600160a060020a038416600160a060020a03199091161790556006805460ff191660121790556200016582640100000000620001f0810204565b6008805433600160a060020a031991821617909155600a8054909116600160a060020a0392909216919091179055506200038292505050565b620001b960038264010000000062000d526200022782021704565b604051600160a060020a038216907f6ae172837ea30b801fbfcdd4108aa1d5bf8ff775444fd70256b44e6bf3dfc3f690600090a250565b620002043364010000000062000282810204565b15156200021057600080fd5b62000224816401000000006200019e810204565b50565b600160a060020a03811615156200023d57600080fd5b620002528282640100000000620002a5810204565b156200025d57600080fd5b600160a060020a0316600090815260209190915260409020805460ff19166001179055565b60006200029f60038364010000000062000d1b620002a582021704565b92915050565b6000600160a060020a0382161515620002bd57600080fd5b50600160a060020a03166000908152602091909152604090205460ff1690565b828054600181600116156101000203166002900490600052602060002090601f016020900481019282601f106200032057805160ff191683800117855562000350565b8280016001018555821562000350579182015b828111156200035057825182559160200191906001019062000333565b506200035e92915062000362565b5090565b6200037f91905b808211156200035e576000815560010162000369565b90565b610e5880620003926000396000f3fe60806040526004361061011c5763ffffffff7c010000000000000000000000000000000000000000000000000000000060003504166306fdde038114610121578063095ea7b3146101ab57806318160ddd146101f857806323b872dd1461021f578063313ce5671461026257806340c10f191461028d57806366188463146102c65780636ed71ede146102ff57806370a08231146103145780637f555b03146103475780638da5cb5b1461037857806395a2251f1461038d57806395d89b41146103c0578063983b2d56146103d5578063986502751461040a578063a2309ff81461041f578063a9059cbb14610434578063aa271e1a1461046d578063d2f7265a146104a0578063d73dd623146104b5578063dd62ed3e146104ee575b600080fd5b34801561012d57600080fd5b50610136610529565b6040805160208082528351818301528351919283929083019185019080838360005b83811015610170578181015183820152602001610158565b50505050905090810190601f16801561019d5780820380516001836020036101000a031916815260200191505b509250505060405180910390f35b3480156101b757600080fd5b506101e4600480360360408110156101ce57600080fd5b50600160a060020a0381351690602001356105b7565b604080519115158252519081900360200190f35b34801561020457600080fd5b5061020d61060b565b60408051918252519081900360200190f35b34801561022b57600080fd5b506101e46004803603606081101561024257600080fd5b50600160a060020a03813581169160208101359091169060400135610611565b34801561026e57600080fd5b50610277610776565b6040805160ff9092168252519081900360200190f35b34801561029957600080fd5b506101e4600480360360408110156102b057600080fd5b50600160a060020a03813516906020013561077f565b3480156102d257600080fd5b506101e4600480360360408110156102e957600080fd5b50600160a060020a03813516906020013561087f565b34801561030b57600080fd5b5061020d61095d565b34801561032057600080fd5b5061020d6004803603602081101561033757600080fd5b5035600160a060020a0316610963565b34801561035357600080fd5b5061035c61097e565b60408051600160a060020a039092168252519081900360200190f35b34801561038457600080fd5b5061035c61098d565b34801561039957600080fd5b506101e4600480360360208110156103b057600080fd5b5035600160a060020a031661099c565b3480156103cc57600080fd5b50610136610a37565b3480156103e157600080fd5b50610408600480360360208110156103f857600080fd5b5035600160a060020a0316610a92565b005b34801561041657600080fd5b50610408610ab2565b34801561042b57600080fd5b5061020d610abd565b34801561044057600080fd5b506101e46004803603604081101561045757600080fd5b50600160a060020a038135169060200135610ac3565b34801561047957600080fd5b506101e46004803603602081101561049057600080fd5b5035600160a060020a0316610b92565b3480156104ac57600080fd5b5061035c610bab565b3480156104c157600080fd5b506101e4600480360360408110156104d857600080fd5b50600160a060020a038135169060200135610bba565b3480156104fa57600080fd5b5061020d6004803603604081101561051157600080fd5b50600160a060020a0381358116916020013516610c41565b6004805460408051602060026001851615610100026000190190941693909304601f810184900484028201840190925281815292918301828280156105af5780601f10610584576101008083540402835291602001916105af565b820191906000526020600020905b81548152906001019060200180831161059257829003601f168201915b505050505081565b336000818152600260209081526040808320600160a060020a03871680855290835281842086905581518681529151939490939092600080516020610e0d833981519152928290030190a350600192915050565b60015490565b6000600160a060020a038316151561062857600080fd5b600160a060020a03841660009081526020819052604090205482111561064d57600080fd5b600160a060020a038416600090815260026020908152604080832033845290915290205482111561067d57600080fd5b600160a060020a0384166000908152602081905260409020546106a6908363ffffffff610c6c16565b600160a060020a0380861660009081526020819052604080822093909355908516815220546106db908363ffffffff610c7e16565b600160a060020a0380851660009081526020818152604080832094909455918716815260028252828120338252909152205461071d908363ffffffff610c6c16565b600160a060020a0380861660008181526002602090815260408083203384528252918290209490945580518681529051928716939192600080516020610ded833981519152929181900390910190a35060019392505050565b60065460ff1681565b600061078a33610b92565b151561079557600080fd5b6001546107a8908363ffffffff610c7e16565b600155600b546107be908363ffffffff610c7e16565b600b55600160a060020a0383166000908152602081905260409020546107ea908363ffffffff610c7e16565b600160a060020a038085166000818152602081815260408083209590955560028152848220600a5490941682529283528381208690558351868152935191939092600080516020610ded83398151915292918290030190a3600a54604080518481529051600160a060020a0392831692861691600080516020610e0d833981519152919081900360200190a350600192915050565b336000908152600260209081526040808320600160a060020a0386168452909152812054808311156108d457336000908152600260209081526040808320600160a060020a0388168452909152812055610909565b6108e4818463ffffffff610c6c16565b336000908152600260209081526040808320600160a060020a03891684529091529020555b336000818152600260209081526040808320600160a060020a038916808552908352928190205481519081529051929392600080516020610e0d833981519152929181900390910190a35060019392505050565b60075481565b600160a060020a031660009081526020819052604090205490565b600a54600160a060020a031681565b600854600160a060020a031681565b600954600090600160a060020a031633146109b657600080fd5b60006109c183610963565b116109cb57600080fd5b60006109d683610963565b6001549091506109ec908263ffffffff610c6c16565b600155600160a060020a03831660008181526020818152604080832083905580518581529051929392600080516020610ded833981519152929181900390910190a350600192915050565b6005805460408051602060026001851615610100026000190190941693909304601f810184900484028201840190925281815292918301828280156105af5780601f10610584576101008083540402835291602001916105af565b610a9b33610b92565b1515610aa657600080fd5b610aaf81610c8b565b50565b610abb33610cd3565b565b600b5481565b6000600160a060020a0383161515610ada57600080fd5b33600090815260208190526040902054821115610af657600080fd5b33600090815260208190526040902054610b16908363ffffffff610c6c16565b3360009081526020819052604080822092909255600160a060020a03851681522054610b48908363ffffffff610c7e16565b600160a060020a03841660008181526020818152604091829020939093558051858152905191923392600080516020610ded8339815191529281900390910190a350600192915050565b6000610ba560038363ffffffff610d1b16565b92915050565b600954600160a060020a031681565b336000908152600260209081526040808320600160a060020a0386168452909152812054610bee908363ffffffff610c7e16565b336000818152600260209081526040808320600160a060020a038916808552908352928190208590558051948552519193600080516020610e0d833981519152929081900390910190a350600192915050565b600160a060020a03918216600090815260026020908152604080832093909416825291909152205490565b600082821115610c7857fe5b50900390565b81810182811015610ba557fe5b610c9c60038263ffffffff610d5216565b604051600160a060020a038216907f6ae172837ea30b801fbfcdd4108aa1d5bf8ff775444fd70256b44e6bf3dfc3f690600090a250565b610ce460038263ffffffff610da016565b604051600160a060020a038216907fe94479a9f7e1952cc78f2d6baab678adc1b772d936c6583def489e524cb6669290600090a250565b6000600160a060020a0382161515610d3257600080fd5b50600160a060020a03166000908152602091909152604090205460ff1690565b600160a060020a0381161515610d6757600080fd5b610d718282610d1b565b15610d7b57600080fd5b600160a060020a0316600090815260209190915260409020805460ff19166001179055565b600160a060020a0381161515610db557600080fd5b610dbf8282610d1b565b1515610dca57600080fd5b600160a060020a0316600090815260209190915260409020805460ff1916905556feddf252ad1be2c89b69c2b068fc378daa952ba7f163c4a11628f55a4df523b3ef8c5be1e5ebec7d5bd14f71427d1e84f3dd0314c0f7b2291e5b200ac8c7c3b925a165627a7a723058209e0fb46fde713eb9455879fa81f5c5b7867f19631b648f60a38b97b851989d4d0029494e56414c49445f53454e444552000000000000000000000000000000000000a165627a7a72305820caf0f83396fae8b59c19cebbe0f3acf8a5dd51d4b82144efc8cf5de2a912a9df0029",
  "source": "pragma solidity 0.5.0;\n\nimport \"./interfaces/IMarket.sol\";\n\nimport \"./BettingExchange.sol\";\nimport \"../token/OutcomeShareToken.sol\";\n\nimport \"./libs/LibConstants.sol\";\nimport \"./libs/LibSafeMath.sol\";\n\nimport \"../utils/Utils.sol\";\n\ncontract Market is\n    IMarket,\n    LibConstants,\n    LibMarket,\n    Utils\n{\n\n    using LibSafeMath for uint256;\n\n    // DBET token address (base currency)\n    ERC20 public token;\n    // ERC20 proxy address\n    address public erc20Proxy;\n    // Owner of market contract\n    address public owner;\n    // Betting exchange contract\n    address public exchange;\n    // Admins mapping\n    mapping (address => bool) public admins;\n    // Market ID to details mapping\n    mapping (bytes32 => EventMarket) public markets;\n    // Number of markets\n    uint256 public marketCount;\n\n    // New market event\n    event LogNewMarket(\n        bytes32 indexed id,\n        uint256 indexed categoryId,\n        address admin\n    );\n    // New outcome share token\n    event LogNewOutcomeShareToken(\n        bytes32 indexed marketId,\n        bytes32 outcome,\n        string _type,\n        bytes32 name,\n        address _address\n    );\n    // Winning outcome event\n    event LogWinningOutcome(\n        bytes32 indexed marketId,\n        bytes32 outcome\n    );\n    // On add admin event\n    event LogAddAdmin(\n        address indexed _address\n    );\n    // On remove admin event\n    event LogRemoveAdmin(\n        address indexed _address\n    );\n\n    constructor(\n        address _token,\n        address _erc20Proxy\n    )\n    public {\n        token = ERC20(_token);\n        erc20Proxy = _erc20Proxy;\n        owner = msg.sender;\n        // Make owner an admin\n        admins[owner] = true;\n    }\n\n    /**\n    * Sets the betting exchange contract\n    * @param _exchange Address of betting exchange contract\n    * @return bool whether exchange address was updated\n    */\n    function setBettingExchange(address _exchange)\n    public\n    returns (bool) {\n        require(\n            msg.sender == owner,\n            \"INVALID_SENDER\"\n        );\n        exchange = _exchange;\n        return true;\n    }\n\n    /**\n    * Creates a new betting market\n    * @param marketType Type of market to open - one side or p2p\n    * @param categoryId Category ID\n    * @param eventStart Time the event starts\n    * @param marketOpen Time the betting market opens\n    * @param marketClose Time the betting market closes\n    * @param outcomes All possible outcomes to bet on\n    * @param minBet Minimum amount in DBETs to bet\n    * @param maxBet Maximum amount in DBETs to bet\n    * @param ipfsHash Hash of betting market details pushed to IPFS\n    * @return bytes32 Unique ID for betting market\n    */\n    function createBettingMarket(\n        uint8 marketType,\n        uint256 categoryId,\n        uint256 eventStart,\n        uint256 marketOpen,\n        uint256 marketClose,\n        bytes32[] memory outcomes,\n        uint256 minBet,\n        uint256 maxBet,\n        string memory ipfsHash\n    )\n    public\n    returns (bytes32) {\n        // Betting exchange address must be set\n        require(\n            exchange != address(0),\n            \"INVALID_EXCHANGE_ADDRESS\"\n        );\n        // msg.sender must be an admin\n        require(\n            admins[msg.sender],\n            \"INVALID_SENDER\"\n        );\n        // marketOpen must be before eventStart and cannot be in the past\n        require(\n            marketOpen >= block.timestamp &&\n            marketOpen < eventStart,\n            \"INVALID_MARKET_OPEN\"\n        );\n        // marketClose must be after marketOpen and before eventStart\n        require(\n            marketClose > marketOpen &&\n            marketClose < eventStart,\n            \"INVALID_MARKET_CLOSE\"\n        );\n        // eventStart cannot be in the past\n        require(\n            eventStart >= block.timestamp,\n            \"INVALID_EVENT_START\"\n        );\n        // Outcomes must be greater than or equal to 1\n        require(\n            outcomes.length >= 1,\n            \"INVALID_OUTCOMES\"\n        );\n        // minBet and maxBet cannot be 0 and minBet must always be lesser or equal to maxBet\n        require(\n            minBet != 0 &&\n            maxBet != 0 &&\n            maxBet >= minBet,\n            \"INVALID_BET_AMOUNTS\"\n        );\n        // IPFS hash must not be null\n        require(\n            bytes(ipfsHash).length != 0,\n            \"INVALID_IPFS_HASH\"\n        );\n\n        // Create betting market and retrieve it's unique ID\n        bytes32 id = createBettingMarketInternal(\n            marketType,\n            categoryId,\n            eventStart,\n            marketOpen,\n            marketClose,\n            outcomes,\n            minBet,\n            maxBet,\n            ipfsHash\n        );\n\n        // Deploy outcome share tokens representing shares for all possible outcomes for the market\n        deployOutcomeShareTokensInternal(\n            id,\n            outcomes\n        );\n\n        // Emit new market event\n        emit LogNewMarket(\n            id,\n            categoryId,\n            msg.sender\n        );\n    }\n\n    /**\n    * Core logic to create a new betting market\n    * @param marketType Type of market to open - one side or p2p\n    * @param categoryId Category ID\n    * @param eventStart Time the event starts\n    * @param marketOpen Time the betting market opens\n    * @param marketClose Time the betting market closes\n    * @param outcomes All possible outcomes to bet on\n    * @param minBet Minimum amount in DBETs to bet\n    * @param maxBet Maximum amount in DBETs to bet\n    * @param ipfsHash Hash of betting market details pushed to IPFS\n    * @return bytes32 Unique ID for betting market\n    */\n    function createBettingMarketInternal(\n        uint8 marketType,\n        uint256 categoryId,\n        uint256 eventStart,\n        uint256 marketOpen,\n        uint256 marketClose,\n        bytes32[] memory outcomes,\n        uint256 minBet,\n        uint256 maxBet,\n        string memory ipfsHash\n    )\n    internal\n    returns (bytes32)\n    {\n        // Unique ID for market\n        bytes32 id = sha256(\n            abi.encodePacked(\n                marketCount++,\n                marketType,\n                marketOpen,\n                marketClose,\n                eventStart,\n                outcomes\n            )\n        );\n\n        // Add to markets mapping\n        markets[id] = EventMarket({\n            marketType: MarketType(marketType),\n            categoryId: categoryId,\n            eventStart: eventStart,\n            marketOpen: marketOpen,\n            marketClose: marketClose,\n            outcomes: outcomes,\n            minBet: minBet,\n            maxBet: maxBet,\n            ipfsHash: ipfsHash,\n            winningOutcome: 0x0\n        });\n\n        return id;\n    }\n\n    /**\n    * Deploys share tokens for all possible outcomes for a market\n    * @param id ID of market\n    * @param outcomes All possible outcomes to bet on\n    * @return whether deployment was successful\n    */\n    function deployOutcomeShareTokensInternal(\n        bytes32 id,\n        bytes32[] memory outcomes\n    )\n    internal\n    {\n        // Create long/short outcome share tokens for all possible outcomes\n        for(uint8 i = 0; i < outcomes.length; i++) {\n            // TODO: Use EIP-1167 to clone a deployed shareToken contract\n            // https://github.com/ethereum/EIPs/blob/master/EIPS/eip-1167.md\n            // https://github.com/AugurProject/augur/blob/45cc71f9237886540d584cdf34bd0a66a643dc08/packages/augur-core/source/contracts/libraries/CloneFactory.sol\n            // https://github.com/AugurProject/augur/blob/45cc71f9237886540d584cdf34bd0a66a643dc08/packages/augur-core/source/contracts/reporting/Market.sol#L105\n\n            // Create long tokens\n            bytes32 longToken = getMarketOutcomeShareTokenName(\n                id,\n                outcomes[i],\n                SHARE_LONG\n            );\n            markets[id].outcomeShareTokens[longToken] = address(new OutcomeShareToken(\n                bytes32ToString(longToken), // Name\n                bytes32ToString(longToken), // Symbol\n                id,                         // Market ID\n                exchange,                   // Betting exchange\n                erc20Proxy                  // ERC20 proxy\n            ));\n            emit LogNewOutcomeShareToken(\n                id,\n                outcomes[i],\n                SHARE_LONG,\n                longToken,\n                markets[id].outcomeShareTokens[longToken]\n            );\n\n            // Create short tokens\n            bytes32 shortToken = getMarketOutcomeShareTokenName(\n                id,\n                outcomes[i],\n                SHARE_SHORT\n            );\n            markets[id].outcomeShareTokens[shortToken] = address(new OutcomeShareToken(\n                bytes32ToString(shortToken), // Name\n                bytes32ToString(shortToken), // Symbol\n                id,                          // Market ID\n                exchange,                    // Betting exchange\n                erc20Proxy                   // ERC20 proxy\n            ));\n            emit LogNewOutcomeShareToken(\n                id,\n                outcomes[i],\n                SHARE_SHORT,\n                shortToken,\n                markets[id].outcomeShareTokens[shortToken]\n            );\n        }\n    }\n\n    /**\n    * Resolves a market with a winning outcome\n    * @param id Market ID\n    * @param outcome Winning outcome\n    * @return whether market resolution was successful\n    */\n    function resolveMarket(\n        bytes32 id,\n        bytes32 outcome\n    )\n    public\n    returns (bool) {\n        // Only admins can set winning outcomes\n        require(\n            admins[msg.sender],\n            \"INVALID_SENDER\"\n        );\n        // Market must exist\n        require(\n            markets[id].outcomes.length > 0,\n            \"INVALID_MARKET_ID\"\n        );\n        // Market must be closed\n        require(\n            markets[id].marketClose < block.timestamp,\n            \"INVALID_MARKET_CLOSE\"\n        );\n        // Outcome must be valid\n        bool isValid;\n        for(uint i = 0; i < markets[id].outcomes.length; i++) {\n            if(markets[id].outcomes[i] == outcome)\n                isValid = true;\n        }\n        require(\n            isValid,\n            \"INVALID_OUTCOME\"\n        );\n        // Set winning outcome in market\n        markets[id].winningOutcome = outcome;\n        // Emit winning outcome event\n        emit LogWinningOutcome(\n            id,\n            outcome\n        );\n    }\n\n    /**\n    * Redeems favorable outcome shares (long winning outcome/short losing outcome(s)) for a closed market\n    * @param marketId Market ID\n    */\n    function redeemFavorableOutcomeShares(\n        bytes32 marketId\n    )\n    public\n    returns (uint256) {\n        // Market must exist\n        require(\n            markets[marketId].outcomes.length > 0,\n            \"INVALID_MARKET_ID\"\n        );\n        // Market must be closed\n        require(\n            markets[marketId].marketClose < block.timestamp,\n            \"INVALID_MARKET_CLOSE\"\n        );\n        // Market must be resolved\n        require(\n            markets[marketId].winningOutcome != 0x0,\n            \"MARKET_NOT_RESOLVED\"\n        );\n        // User must own winning outcome long shares or losing outcome short shares\n        uint256 profitPerFavorableOutcomeToken =\n            calculateProfitPerFavorableOutcomeShareToken(\n                marketId\n            );\n        uint256 totalRedeemed;\n        for(uint i = 0; i < markets[marketId].outcomes.length; i++) {\n            uint256 favorableOutcomeShareTokenBalance = getMarketOutcomeShareTokenBalance(\n                marketId,\n                msg.sender,\n                markets[marketId].outcomes[i],\n                markets[marketId].outcomes[i] == markets[marketId].winningOutcome ?\n                SHARE_LONG : SHARE_SHORT\n            );\n            // User has a positive favorable outcome share token balance\n            if(favorableOutcomeShareTokenBalance > 0) {\n                // Redeem favorable outcome share tokens for token balance in DBETs and profits per favorable token\n                require(\n                    BettingExchange(exchange).redeemFavorableOutcomeShareTokens(\n                        marketId,\n                        markets[marketId].outcomes[i],\n                        msg.sender\n                    ),\n                    \"BETTING_EXCHANGE_REDEEM_ERROR\"\n                );\n                totalRedeemed = totalRedeemed.add(favorableOutcomeShareTokenBalance);\n            }\n        }\n        return totalRedeemed;\n    }\n\n    /**\n    * Returns user balance for an outcome share token\n    * @param marketId Market ID\n    * @param _address Address of user\n    * @param outcome Market outcome\n    * @param shareType Type of share (Long/short)\n    */\n    function getMarketOutcomeShareTokenBalance(\n        bytes32 marketId,\n        address _address,\n        bytes32 outcome,\n        string memory shareType\n    )\n    public\n    view\n    returns (uint256) {\n        return ERC20(getMarketOutcomeShareToken(\n            marketId,\n            outcome,\n            shareType\n        )).balanceOf(_address);\n    }\n\n    /**\n    * Returns total minted outcome share tokens for a market\n    * @param marketId Market ID\n    * @param outcome Market outcome\n    * @param shareType Type of share (Long/short)\n    */\n    function getTotalMintedOutcomeShareTokens(\n        bytes32 marketId,\n        bytes32 outcome,\n        string memory shareType\n    )\n    public\n    view\n    returns (uint256) {\n        return OutcomeShareToken(getMarketOutcomeShareToken(\n            marketId,\n            outcome,\n            shareType\n        )).totalMinted();\n    }\n\n    /**\n    * Calculate profit per favorable outcome share token\n    * and calculate profit\n    * @param marketId Market ID\n    */\n    function calculateProfitPerFavorableOutcomeShareToken(\n        bytes32 marketId\n    )\n    public\n    view\n    returns (uint256) {\n        uint256 totalMintedFavorable;\n        uint256 totalMintedUnfavorable;\n        for(uint i = 0; i < markets[marketId].outcomes.length; i++) {\n            if(markets[marketId].outcomes[i] == markets[marketId].winningOutcome) {\n                // Add total minted long shares of winning outcome to total favorable\n                totalMintedFavorable = totalMintedFavorable.add(\n                    getTotalMintedOutcomeShareTokens(\n                        marketId,\n                        markets[marketId].outcomes[i],\n                        SHARE_LONG\n                    )\n                );\n                // Add total minted short shares of winning outcome to total unfavorable\n                totalMintedUnfavorable = totalMintedUnfavorable.add(\n                    getTotalMintedOutcomeShareTokens(\n                        marketId,\n                        markets[marketId].outcomes[i],\n                        SHARE_SHORT\n                    )\n                );\n            } else {\n                // Add total minted short shares of winning outcome to total favorable\n                totalMintedFavorable = totalMintedFavorable.add(\n                    getTotalMintedOutcomeShareTokens(\n                        marketId,\n                        markets[marketId].outcomes[i],\n                        SHARE_SHORT\n                    )\n                );\n                // Add total minted long shares of winning outcome to total unfavorable\n                totalMintedUnfavorable = totalMintedUnfavorable.add(\n                    getTotalMintedOutcomeShareTokens(\n                        marketId,\n                        markets[marketId].outcomes[i],\n                        SHARE_LONG\n                    )\n                );\n            }\n        }\n        // Calculate profit per favorable outcome share token\n        // (Unfavorable/favorable) share tokens\n        return totalMintedUnfavorable.div(totalMintedFavorable);\n    }\n\n\n    /**\n    * Adds an admin to the market contract\n    * @param _address Address to add as admin\n    * @return whether admin was added\n    */\n    function addAdmin(\n        address _address\n    )\n    public\n    returns (bool) {\n        require(\n            msg.sender == owner,\n            \"INVALID_SENDER\"\n        );\n        admins[_address] = true;\n        emit LogAddAdmin(_address);\n    }\n\n    /**\n    * Removes an admin from the market contract\n    * @param _address Address of admin\n    * @return whether admin was removed\n    */\n    function removeAdmin(\n        address _address\n    )\n    public\n    returns (bool) {\n        require(\n            msg.sender == owner,\n            \"INVALID_SENDER\"\n        );\n        admins[_address] = false;\n        emit LogRemoveAdmin(_address);\n    }\n\n    /**\n    * Returns market outcome count for a market by ID\n    * @param marketId ID of a market\n    * @return Number of outcomes\n    */\n    function getMarketOutcomeCount(\n        bytes32 marketId\n    )\n    public\n    view\n    returns (uint256) {\n        return markets[marketId].outcomes.length;\n    }\n\n    /**\n    * Returns market outcomes for a market by ID at index\n    * @param marketId ID of a market\n    * @param index Index of outcome\n    * @return Outcome at index\n    */\n    function getMarketOutcomeAtIndex(\n        bytes32 marketId,\n        uint256 index\n    )\n    public\n    view\n    returns (bytes32) {\n        return markets[marketId].outcomes[index];\n    }\n\n    /**\n    * Returns address for an outcome share token based on it's name\n    * @param marketId ID of a market\n    * @param outcomeShareTokenName Outcome share token name\n    */\n    function getMarketOutcomeShareToken(\n        bytes32 marketId,\n        bytes32 outcomeShareTokenName\n    )\n    public\n    view\n    returns (address) {\n        return markets[marketId].outcomeShareTokens[outcomeShareTokenName];\n    }\n\n    /**\n    * Returns address for an outcome share token based on it's outcome type\n    * @param marketId Market ID\n    * @param outcome Market outcome\n    * @param shareType Type of share (Long/short)\n    */\n    function getMarketOutcomeShareToken(\n        bytes32 marketId,\n        bytes32 outcome,\n        string memory shareType\n    )\n    public\n    view\n    returns (address) {\n        bytes32 outcomeShareTokenName = getMarketOutcomeShareTokenName(\n            marketId,\n            outcome,\n            shareType\n        );\n        return getMarketOutcomeShareToken(\n            marketId,\n            outcomeShareTokenName\n        );\n    }\n\n    /**\n    * Returns name for an outcome share token\n    * @param marketId ID of a market\n    * @param outcome outcome\n    * @param shareType long/short\n    * @return name of outcome share token\n    */\n    function getMarketOutcomeShareTokenName(\n        bytes32 marketId,\n        bytes32 outcome,\n        string memory shareType\n    )\n    public\n    view\n    returns (bytes32) {\n        return sha256(\n            abi.encodePacked(\n                marketId,\n                outcome,\n                shareType\n            )\n        );\n    }\n\n    /**\n    * Market mapping accessor function\n    * @param marketId ID of a market\n    * @return Unpacked market struct\n    */\n    function getMarketInfo(\n        bytes32 marketId\n    )\n    public\n    view\n    returns (\n        uint8,\n        uint256,\n        uint256,\n        uint256,\n        string memory,\n        bytes32\n    ) {\n        return (\n            (uint8) (markets[marketId].marketType),\n            markets[marketId].eventStart,\n            markets[marketId].marketOpen,\n            markets[marketId].marketClose,\n            markets[marketId].ipfsHash,\n            markets[marketId].winningOutcome\n        );\n    }\n\n}\n",
  "sourcePath": "/home/zubietaroberto/work/prediction-market/core/contracts/protocol/Market.sol",
  "compiler": {
    "name": "solc",
    "version": "0.5.0+commit.1d4f565a.Emscripten.clang"
  },
  "schemaVersion": "3.0.1",
  "updatedAt": "2019-02-12T16:47:14.361Z",
  "devdoc": {
    "methods": {
      "addAdmin(address)": {
        "params": {
          "_address": "Address to add as admin"
        },
        "return": "whether admin was added"
      },
      "calculateProfitPerFavorableOutcomeShareToken(bytes32)": {
        "params": {
          "marketId": "Market ID"
        }
      },
      "createBettingMarket(uint8,uint256,uint256,uint256,uint256,bytes32[],uint256,uint256,string)": {
        "params": {
          "categoryId": "Category ID",
          "eventStart": "Time the event starts",
          "ipfsHash": "Hash of betting market details pushed to IPFS",
          "marketClose": "Time the betting market closes",
          "marketOpen": "Time the betting market opens",
          "marketType": "Type of market to open - one side or p2p",
          "maxBet": "Maximum amount in DBETs to bet",
          "minBet": "Minimum amount in DBETs to bet",
          "outcomes": "All possible outcomes to bet on"
        },
        "return": "bytes32 Unique ID for betting market"
      },
      "getMarketInfo(bytes32)": {
        "params": {
          "marketId": "ID of a market"
        },
        "return": "Unpacked market struct"
      },
      "getMarketOutcomeAtIndex(bytes32,uint256)": {
        "params": {
          "index": "Index of outcome",
          "marketId": "ID of a market"
        },
        "return": "Outcome at index"
      },
      "getMarketOutcomeCount(bytes32)": {
        "params": {
          "marketId": "ID of a market"
        },
        "return": "Number of outcomes"
      },
      "getMarketOutcomeShareToken(bytes32,bytes32)": {
        "params": {
          "marketId": "ID of a market",
          "outcomeShareTokenName": "Outcome share token name"
        }
      },
      "getMarketOutcomeShareToken(bytes32,bytes32,string)": {
        "params": {
          "marketId": "Market ID",
          "outcome": "Market outcome",
          "shareType": "Type of share (Long/short)"
        }
      },
      "getMarketOutcomeShareTokenBalance(bytes32,address,bytes32,string)": {
        "params": {
          "_address": "Address of user",
          "marketId": "Market ID",
          "outcome": "Market outcome",
          "shareType": "Type of share (Long/short)"
        }
      },
      "getMarketOutcomeShareTokenName(bytes32,bytes32,string)": {
        "params": {
          "marketId": "ID of a market",
          "outcome": "outcome",
          "shareType": "long/short"
        },
        "return": "name of outcome share token"
      },
      "getTotalMintedOutcomeShareTokens(bytes32,bytes32,string)": {
        "params": {
          "marketId": "Market ID",
          "outcome": "Market outcome",
          "shareType": "Type of share (Long/short)"
        }
      },
      "redeemFavorableOutcomeShares(bytes32)": {
        "params": {
          "marketId": "Market ID"
        }
      },
      "removeAdmin(address)": {
        "params": {
          "_address": "Address of admin"
        },
        "return": "whether admin was removed"
      },
      "resolveMarket(bytes32,bytes32)": {
        "params": {
          "id": "Market ID",
          "outcome": "Winning outcome"
        },
        "return": "whether market resolution was successful"
      },
      "setBettingExchange(address)": {
        "params": {
          "_exchange": "Address of betting exchange contract"
        },
        "return": "bool whether exchange address was updated"
      }
    }
  },
  "userdoc": {
    "methods": {
      "addAdmin(address)": {
        "notice": "Adds an admin to the market contract"
      },
      "calculateProfitPerFavorableOutcomeShareToken(bytes32)": {
        "notice": "Calculate profit per favorable outcome share token and calculate profit"
      },
      "createBettingMarket(uint8,uint256,uint256,uint256,uint256,bytes32[],uint256,uint256,string)": {
        "notice": "Creates a new betting market"
      },
      "getMarketInfo(bytes32)": {
        "notice": "Market mapping accessor function"
      },
      "getMarketOutcomeAtIndex(bytes32,uint256)": {
        "notice": "Returns market outcomes for a market by ID at index"
      },
      "getMarketOutcomeCount(bytes32)": {
        "notice": "Returns market outcome count for a market by ID"
      },
      "getMarketOutcomeShareToken(bytes32,bytes32)": {
        "notice": "Returns address for an outcome share token based on it's name"
      },
      "getMarketOutcomeShareToken(bytes32,bytes32,string)": {
        "notice": "Returns address for an outcome share token based on it's outcome type"
      },
      "getMarketOutcomeShareTokenBalance(bytes32,address,bytes32,string)": {
        "notice": "Returns user balance for an outcome share token"
      },
      "getMarketOutcomeShareTokenName(bytes32,bytes32,string)": {
        "notice": "Returns name for an outcome share token"
      },
      "getTotalMintedOutcomeShareTokens(bytes32,bytes32,string)": {
        "notice": "Returns total minted outcome share tokens for a market"
      },
      "redeemFavorableOutcomeShares(bytes32)": {
        "notice": "Redeems favorable outcome shares (long winning outcome/short losing outcome(s)) for a closed market"
      },
      "removeAdmin(address)": {
        "notice": "Removes an admin from the market contract"
      },
      "resolveMarket(bytes32,bytes32)": {
        "notice": "Resolves a market with a winning outcome"
      },
      "setBettingExchange(address)": {
        "notice": "Sets the betting exchange contract"
      }
    }
  }
}