{"contractName":"AssetProxyOwner","abi":[{"constant":true,"inputs":[{"name":"","type":"uint256"}],"name":"owners","outputs":[{"name":"","type":"address"}],"payable":false,"stateMutability":"view","type":"function","signature":"0x025e7c27"},{"constant":false,"inputs":[{"name":"owner","type":"address"}],"name":"removeOwner","outputs":[],"payable":false,"stateMutability":"nonpayable","type":"function","signature":"0x173825d9"},{"constant":false,"inputs":[{"name":"transactionId","type":"uint256"}],"name":"revokeConfirmation","outputs":[],"payable":false,"stateMutability":"nonpayable","type":"function","signature":"0x20ea8d86"},{"constant":true,"inputs":[{"name":"","type":"address"}],"name":"isOwner","outputs":[{"name":"","type":"bool"}],"payable":false,"stateMutability":"view","type":"function","signature":"0x2f54bf6e"},{"constant":true,"inputs":[{"name":"","type":"uint256"},{"name":"","type":"address"}],"name":"confirmations","outputs":[{"name":"","type":"bool"}],"payable":false,"stateMutability":"view","type":"function","signature":"0x3411c81c"},{"constant":true,"inputs":[],"name":"secondsTimeLocked","outputs":[{"name":"","type":"uint256"}],"payable":false,"stateMutability":"view","type":"function","signature":"0x37bd78a0"},{"constant":true,"inputs":[{"name":"pending","type":"bool"},{"name":"executed","type":"bool"}],"name":"getTransactionCount","outputs":[{"name":"count","type":"uint256"}],"payable":false,"stateMutability":"view","type":"function","signature":"0x54741525"},{"constant":false,"inputs":[{"name":"owner","type":"address"}],"name":"addOwner","outputs":[],"payable":false,"stateMutability":"nonpayable","type":"function","signature":"0x7065cb48"},{"constant":true,"inputs":[{"name":"transactionId","type":"uint256"}],"name":"isConfirmed","outputs":[{"name":"","type":"bool"}],"payable":false,"stateMutability":"view","type":"function","signature":"0x784547a7"},{"constant":false,"inputs":[{"name":"_secondsTimeLocked","type":"uint256"}],"name":"changeTimeLock","outputs":[],"payable":false,"stateMutability":"nonpayable","type":"function","signature":"0x7ad28c51"},{"constant":true,"inputs":[{"name":"","type":"address"}],"name":"isAssetProxyRegistered","outputs":[{"name":"","type":"bool"}],"payable":false,"stateMutability":"view","type":"function","signature":"0x83250f79"},{"constant":true,"inputs":[{"name":"transactionId","type":"uint256"}],"name":"getConfirmationCount","outputs":[{"name":"count","type":"uint256"}],"payable":false,"stateMutability":"view","type":"function","signature":"0x8b51d13f"},{"constant":true,"inputs":[{"name":"","type":"uint256"}],"name":"transactions","outputs":[{"name":"destination","type":"address"},{"name":"value","type":"uint256"},{"name":"data","type":"bytes"},{"name":"executed","type":"bool"}],"payable":false,"stateMutability":"view","type":"function","signature":"0x9ace38c2"},{"constant":true,"inputs":[],"name":"getOwners","outputs":[{"name":"","type":"address[]"}],"payable":false,"stateMutability":"view","type":"function","signature":"0xa0e67e2b"},{"constant":true,"inputs":[{"name":"from","type":"uint256"},{"name":"to","type":"uint256"},{"name":"pending","type":"bool"},{"name":"executed","type":"bool"}],"name":"getTransactionIds","outputs":[{"name":"_transactionIds","type":"uint256[]"}],"payable":false,"stateMutability":"view","type":"function","signature":"0xa8abe69a"},{"constant":true,"inputs":[{"name":"transactionId","type":"uint256"}],"name":"getConfirmations","outputs":[{"name":"_confirmations","type":"address[]"}],"payable":false,"stateMutability":"view","type":"function","signature":"0xb5dc40c3"},{"constant":true,"inputs":[],"name":"transactionCount","outputs":[{"name":"","type":"uint256"}],"payable":false,"stateMutability":"view","type":"function","signature":"0xb77bf600"},{"constant":false,"inputs":[{"name":"_required","type":"uint256"}],"name":"changeRequirement","outputs":[],"payable":false,"stateMutability":"nonpayable","type":"function","signature":"0xba51a6df"},{"constant":false,"inputs":[{"name":"transactionId","type":"uint256"}],"name":"confirmTransaction","outputs":[],"payable":false,"stateMutability":"nonpayable","type":"function","signature":"0xc01a8c84"},{"constant":false,"inputs":[{"name":"destination","type":"address"},{"name":"value","type":"uint256"},{"name":"data","type":"bytes"}],"name":"submitTransaction","outputs":[{"name":"transactionId","type":"uint256"}],"payable":false,"stateMutability":"nonpayable","type":"function","signature":"0xc6427474"},{"constant":true,"inputs":[{"name":"","type":"uint256"}],"name":"confirmationTimes","outputs":[{"name":"","type":"uint256"}],"payable":false,"stateMutability":"view","type":"function","signature":"0xd38f2d82"},{"constant":true,"inputs":[],"name":"MAX_OWNER_COUNT","outputs":[{"name":"","type":"uint256"}],"payable":false,"stateMutability":"view","type":"function","signature":"0xd74f8edd"},{"constant":true,"inputs":[],"name":"required","outputs":[{"name":"","type":"uint256"}],"payable":false,"stateMutability":"view","type":"function","signature":"0xdc8452cd"},{"constant":false,"inputs":[{"name":"owner","type":"address"},{"name":"newOwner","type":"address"}],"name":"replaceOwner","outputs":[],"payable":false,"stateMutability":"nonpayable","type":"function","signature":"0xe20056e6"},{"constant":false,"inputs":[{"name":"transactionId","type":"uint256"}],"name":"executeTransaction","outputs":[],"payable":false,"stateMutability":"nonpayable","type":"function","signature":"0xee22610b"},{"inputs":[{"name":"_owners","type":"address[]"},{"name":"_assetProxyContracts","type":"address[]"},{"name":"_required","type":"uint256"},{"name":"_secondsTimeLocked","type":"uint256"}],"payable":false,"stateMutability":"nonpayable","type":"constructor","signature":"constructor"},{"payable":true,"stateMutability":"payable","type":"fallback"},{"anonymous":false,"inputs":[{"indexed":false,"name":"assetProxyContract","type":"address"},{"indexed":false,"name":"isRegistered","type":"bool"}],"name":"AssetProxyRegistration","type":"event","signature":"0xdaef8ff7dc66c5e34eb9c338aab679d9f427f89868d9228494455a4d982eb2b0"},{"anonymous":false,"inputs":[{"indexed":true,"name":"transactionId","type":"uint256"},{"indexed":false,"name":"confirmationTime","type":"uint256"}],"name":"ConfirmationTimeSet","type":"event","signature":"0x0b237afe65f1514fd7ea3f923ea4fe792bdd07000a912b6cd1602a8e7f573c8d"},{"anonymous":false,"inputs":[{"indexed":false,"name":"secondsTimeLocked","type":"uint256"}],"name":"TimeLockChange","type":"event","signature":"0xd1c9101a34feff75cccef14a28785a0279cb0b49c1f321f21f5f422e746b4377"},{"anonymous":false,"inputs":[{"indexed":true,"name":"sender","type":"address"},{"indexed":true,"name":"transactionId","type":"uint256"}],"name":"Confirmation","type":"event","signature":"0x4a504a94899432a9846e1aa406dceb1bcfd538bb839071d49d1e5e23f5be30ef"},{"anonymous":false,"inputs":[{"indexed":true,"name":"sender","type":"address"},{"indexed":true,"name":"transactionId","type":"uint256"}],"name":"Revocation","type":"event","signature":"0xf6a317157440607f36269043eb55f1287a5a19ba2216afeab88cd46cbcfb88e9"},{"anonymous":false,"inputs":[{"indexed":true,"name":"transactionId","type":"uint256"}],"name":"Submission","type":"event","signature":"0xc0ba8fe4b176c1714197d43b9cc6bcf797a4a7461c5fe8d0ef6e184ae7601e51"},{"anonymous":false,"inputs":[{"indexed":true,"name":"transactionId","type":"uint256"}],"name":"Execution","type":"event","signature":"0x33e13ecb54c3076d8e8bb8c2881800a4d972b792045ffae98fdf46df365fed75"},{"anonymous":false,"inputs":[{"indexed":true,"name":"transactionId","type":"uint256"}],"name":"ExecutionFailure","type":"event","signature":"0x526441bb6c1aba3c9a4a6ca1d6545da9c2333c8c48343ef398eb858d72b79236"},{"anonymous":false,"inputs":[{"indexed":true,"name":"sender","type":"address"},{"indexed":false,"name":"value","type":"uint256"}],"name":"Deposit","type":"event","signature":"0xe1fffcc4923d04b559f4d29a8bfc6cda04eb5b0d3c460751c2402c5c5cc9109c"},{"anonymous":false,"inputs":[{"indexed":true,"name":"owner","type":"address"}],"name":"OwnerAddition","type":"event","signature":"0xf39e6e1eb0edcf53c221607b54b00cd28f3196fed0a24994dc308b8f611b682d"},{"anonymous":false,"inputs":[{"indexed":true,"name":"owner","type":"address"}],"name":"OwnerRemoval","type":"event","signature":"0x8001553a916ef2f495d26a907cc54d96ed840d7bda71e73194bf5a9df7a76b90"},{"anonymous":false,"inputs":[{"indexed":false,"name":"required","type":"uint256"}],"name":"RequirementChange","type":"event","signature":"0xa3f1ee9126a074d9326c682f561767f710e927faa811f7a99829d49dc421797a"},{"constant":false,"inputs":[{"name":"assetProxyContract","type":"address"},{"name":"isRegistered","type":"bool"}],"name":"registerAssetProxy","outputs":[],"payable":false,"stateMutability":"nonpayable","type":"function","signature":"0x5a1a66af"},{"constant":false,"inputs":[{"name":"transactionId","type":"uint256"}],"name":"executeRemoveAuthorizedAddressAtIndex","outputs":[],"payable":false,"stateMutability":"nonpayable","type":"function","signature":"0x3589b35c"}],"bytecode":"0x60806040523480156200001157600080fd5b506040516200217c3803806200217c833981018060405260808110156200003757600080fd5b8101908080516401000000008111156200005057600080fd5b820160208101848111156200006457600080fd5b81518560208202830111640100000000821117156200008257600080fd5b505092919060200180516401000000008111156200009f57600080fd5b82016020810184811115620000b357600080fd5b8151856020820283011164010000000082111715620000d157600080fd5b505060208201516040909201518551919450919250849083908390839083908160328211801590620001035750818111155b80156200010f57508015155b80156200011b57508115155b15156200012757600080fd5b60005b8451811015620001fa576002600086838151811015156200014757fe5b6020908102909101810151600160a060020a031682528101919091526040016000205460ff161580156200019e575084516000908690839081106200018857fe5b90602001906020020151600160a060020a031614155b1515620001aa57600080fd5b6001600260008784815181101515620001bf57fe5b602090810291909101810151600160a060020a03168252810191909152604001600020805460ff19169115159190911790556001016200012a565b50835162000210906003906020870190620002f6565b5050506004555060065550600090505b8351811015620002eb57600084828151811015156200023b57fe5b602090810290910101519050600160a060020a0381161515620002bf57604080517f08c379a000000000000000000000000000000000000000000000000000000000815260206004820152601360248201527f494e56414c49445f41535345545f50524f585900000000000000000000000000604482015290519081900360640190fd5b600160a060020a03166000908152600860205260409020805460ff191660019081179091550162000220565b50505050506200038a565b8280548282559060005260206000209081019282156200034e579160200282015b828111156200034e5782518254600160a060020a031916600160a060020a0390911617825560209092019160019091019062000317565b506200035c92915062000360565b5090565b6200038791905b808211156200035c578054600160a060020a031916815560010162000367565b90565b611de2806200039a6000396000f3fe60806040526004361061015e5763ffffffff7c0100000000000000000000000000000000000000000000000000000000600035041663025e7c2781146101a0578063173825d9146101e657806320ea8d86146102195780632f54bf6e146102435780633411c81c1461028a5780633589b35c146102c357806337bd78a0146102ed57806354741525146103145780635a1a66af146103485780637065cb4814610383578063784547a7146103b65780637ad28c51146103e057806383250f791461040a5780638b51d13f1461043d5780639ace38c214610467578063a0e67e2b14610534578063a8abe69a14610599578063b5dc40c3146105d9578063b77bf60014610603578063ba51a6df14610618578063c01a8c8414610642578063c64274741461066c578063d38f2d8214610734578063d74f8edd1461075e578063dc8452cd14610773578063e20056e614610788578063ee22610b146107c3575b600034111561019e5760408051348152905133917fe1fffcc4923d04b559f4d29a8bfc6cda04eb5b0d3c460751c2402c5c5cc9109c919081900360200190a25b005b3480156101ac57600080fd5b506101ca600480360360208110156101c357600080fd5b50356107ed565b60408051600160a060020a039092168252519081900360200190f35b3480156101f257600080fd5b5061019e6004803603602081101561020957600080fd5b5035600160a060020a0316610815565b34801561022557600080fd5b5061019e6004803603602081101561023c57600080fd5b5035610985565b34801561024f57600080fd5b506102766004803603602081101561026657600080fd5b5035600160a060020a0316610a3f565b604080519115158252519081900360200190f35b34801561029657600080fd5b50610276600480360360408110156102ad57600080fd5b5080359060200135600160a060020a0316610a54565b3480156102cf57600080fd5b5061019e600480360360208110156102e657600080fd5b5035610a74565b3480156102f957600080fd5b50610302610e47565b60408051918252519081900360200190f35b34801561032057600080fd5b506103026004803603604081101561033757600080fd5b508035151590602001351515610e4d565b34801561035457600080fd5b5061019e6004803603604081101561036b57600080fd5b50600160a060020a0381351690602001351515610eb9565b34801561038f57600080fd5b5061019e600480360360208110156103a657600080fd5b5035600160a060020a0316610f40565b3480156103c257600080fd5b50610276600480360360208110156103d957600080fd5b5035611065565b3480156103ec57600080fd5b5061019e6004803603602081101561040357600080fd5b50356110ec565b34801561041657600080fd5b506102766004803603602081101561042d57600080fd5b5035600160a060020a0316611133565b34801561044957600080fd5b506103026004803603602081101561046057600080fd5b5035611148565b34801561047357600080fd5b506104916004803603602081101561048a57600080fd5b50356111b7565b6040518085600160a060020a0316600160a060020a031681526020018481526020018060200183151515158152602001828103825284818151815260200191508051906020019080838360005b838110156104f65781810151838201526020016104de565b50505050905090810190601f1680156105235780820380516001836020036101000a031916815260200191505b509550505050505060405180910390f35b34801561054057600080fd5b50610549611275565b60408051602080825283518183015283519192839290830191858101910280838360005b8381101561058557818101518382015260200161056d565b505050509050019250505060405180910390f35b3480156105a557600080fd5b50610549600480360360808110156105bc57600080fd5b5080359060208101359060408101351515906060013515156112d8565b3480156105e557600080fd5b50610549600480360360208110156105fc57600080fd5b5035611409565b34801561060f57600080fd5b5061030261157a565b34801561062457600080fd5b5061019e6004803603602081101561063b57600080fd5b5035611580565b34801561064e57600080fd5b5061019e6004803603602081101561066557600080fd5b50356115ff565b34801561067857600080fd5b506103026004803603606081101561068f57600080fd5b600160a060020a03823516916020810135918101906060810160408201356401000000008111156106bf57600080fd5b8201836020820111156106d157600080fd5b803590602001918460018302840111640100000000831117156106f357600080fd5b91908080601f016020809104026020016040519081016040528093929190818152602001838380828437600092019190915250929550611731945050505050565b34801561074057600080fd5b506103026004803603602081101561075757600080fd5b5035611750565b34801561076a57600080fd5b50610302611762565b34801561077f57600080fd5b50610302611767565b34801561079457600080fd5b5061019e600480360360408110156107ab57600080fd5b50600160a060020a038135811691602001351661176d565b3480156107cf57600080fd5b5061019e600480360360208110156107e657600080fd5b50356118f0565b60038054829081106107fb57fe5b600091825260209091200154600160a060020a0316905081565b33301461082157600080fd5b600160a060020a038116600090815260026020526040902054819060ff16151561084a57600080fd5b600160a060020a0382166000908152600260205260408120805460ff191690555b600354600019018110156109205782600160a060020a031660038281548110151561089257fe5b600091825260209091200154600160a060020a03161415610918576003805460001981019081106108bf57fe5b60009182526020909120015460038054600160a060020a0390921691839081106108e557fe5b9060005260206000200160006101000a815481600160a060020a030219169083600160a060020a03160217905550610920565b60010161086b565b506003805460001901906109349082611cf5565b50600354600454111561094d5760035461094d90611580565b604051600160a060020a038316907f8001553a916ef2f495d26a907cc54d96ed840d7bda71e73194bf5a9df7a76b9090600090a25050565b3360008181526002602052604090205460ff1615156109a357600080fd5b60008281526001602090815260408083203380855292529091205483919060ff1615156109cf57600080fd5b600084815260208190526040902060030154849060ff16156109f057600080fd5b6000858152600160209081526040808320338085529252808320805460ff191690555187927ff6a317157440607f36269043eb55f1287a5a19ba2216afeab88cd46cbcfb88e991a35050505050565b60026020526000908152604090205460ff1681565b600160209081526000928352604080842090915290825290205460ff1681565b600081815260208190526040902060030154819060ff1615610a9557600080fd5b81610a9f81611065565b1515610af5576040805160e560020a62461bcd02815260206004820152601660248201527f54585f4e4f545f46554c4c595f434f4e4649524d454400000000000000000000604482015290519081900360640190fd5b6000838152602081815260408083208054600160a060020a0316845260089092529091205484919060ff161515610b76576040805160e560020a62461bcd02815260206004820152601860248201527f554e524547495354455245445f41535345545f50524f58590000000000000000604482015290519081900360640190fd5b604080517f72656d6f7665417574686f72697a6564416464726573734174496e646578286181527f6464726573732c75696e74323536290000000000000000000000000000000000602080830191909152825191829003602f01822060028086018054601f60001961010060018416150201909116929092049182018490048402850184019095528084527bffffffffffffffffffffffffffffffffffffffffffffffffffffffff1990911693610c9193600093909290830182828015610c7e5780601f10610c5357610100808354040283529160200191610c7e565b820191906000526020600020905b815481529060010190602001808311610c6157829003601f168201915b5050505050611ae990919063ffffffff16565b7bffffffffffffffffffffffffffffffffffffffffffffffffffffffff191614610d05576040805160e560020a62461bcd02815260206004820152601960248201527f494e56414c49445f46554e4354494f4e5f53454c4543544f5200000000000000604482015290519081900360640190fd5b6000858152602081815260409182902060038101805460ff19166001908117909155815481830154600280850180548851601f600019978316156101000297909701909116929092049485018790048702820187019097528381529395610dd295600160a060020a03909316949193928390830182828015610dc85780601f10610d9d57610100808354040283529160200191610dc8565b820191906000526020600020905b815481529060010190602001808311610dab57829003601f168201915b5050505050611b97565b15610e075760405186907f33e13ecb54c3076d8e8bb8c2881800a4d972b792045ffae98fdf46df365fed7590600090a2610e3f565b60405186907f526441bb6c1aba3c9a4a6ca1d6545da9c2333c8c48343ef398eb858d72b7923690600090a260038101805460ff191690555b505050505050565b60065481565b6000805b600554811015610eb257838015610e7a575060008181526020819052604090206003015460ff16155b80610e9e5750828015610e9e575060008181526020819052604090206003015460ff165b15610eaa576001820191505b600101610e51565b5092915050565b333014610ec557600080fd5b81600160a060020a0381161515610edb57600080fd5b600160a060020a038316600081815260086020908152604091829020805460ff191686151590811790915582519384529083015280517fdaef8ff7dc66c5e34eb9c338aab679d9f427f89868d9228494455a4d982eb2b09281900390910190a1505050565b333014610f4c57600080fd5b600160a060020a038116600090815260026020526040902054819060ff1615610f7457600080fd5b81600160a060020a0381161515610f8a57600080fd5b60038054905060010160045460328211158015610fa75750818111155b8015610fb257508015155b8015610fbd57508115155b1515610fc857600080fd5b600160a060020a038516600081815260026020526040808220805460ff1916600190811790915560038054918201815583527fc2575a0e9e593c00f959f8c92f12db2869c3395a3b0502d05e2516446f71f85b01805473ffffffffffffffffffffffffffffffffffffffff191684179055517ff39e6e1eb0edcf53c221607b54b00cd28f3196fed0a24994dc308b8f611b682d9190a25050505050565b600080805b6003548110156110e4576000848152600160205260408120600380549192918490811061109357fe5b6000918252602080832090910154600160a060020a0316835282019290925260400190205460ff16156110c7576001820191505b6004548214156110dc576001925050506110e7565b60010161106a565b50505b919050565b3330146110f857600080fd5b60068190556040805182815290517fd1c9101a34feff75cccef14a28785a0279cb0b49c1f321f21f5f422e746b43779181900360200190a150565b60086020526000908152604090205460ff1681565b6000805b6003548110156111b1576000838152600160205260408120600380549192918490811061117557fe5b6000918252602080832090910154600160a060020a0316835282019290925260400190205460ff16156111a9576001820191505b60010161114c565b50919050565b6000602081815291815260409081902080546001808301546002808501805487516101009582161595909502600019011691909104601f8101889004880284018801909652858352600160a060020a03909316959094919291908301828280156112625780601f1061123757610100808354040283529160200191611262565b820191906000526020600020905b81548152906001019060200180831161124557829003601f168201915b5050506003909301549192505060ff1684565b606060038054806020026020016040519081016040528092919081815260200182805480156112cd57602002820191906000526020600020905b8154600160a060020a031681526001909101906020018083116112af575b505050505090505b90565b606080600554604051908082528060200260200182016040528015611307578160200160208202803883390190505b5090506000805b60055481101561138957858015611337575060008181526020819052604090206003015460ff16155b8061135b575084801561135b575060008181526020819052604090206003015460ff165b156113815780838381518110151561136f57fe5b60209081029091010152600191909101905b60010161130e565b8787036040519080825280602002602001820160405280156113b5578160200160208202803883390190505b5093508790505b868110156113fe5782818151811015156113d257fe5b90602001906020020151848983038151811015156113ec57fe5b602090810290910101526001016113bc565b505050949350505050565b60608060038054905060405190808252806020026020018201604052801561143b578160200160208202803883390190505b5090506000805b6003548110156114f3576000858152600160205260408120600380549192918490811061146b57fe5b6000918252602080832090910154600160a060020a0316835282019290925260400190205460ff16156114eb5760038054829081106114a657fe5b6000918252602090912001548351600160a060020a03909116908490849081106114cc57fe5b600160a060020a03909216602092830290910190910152600191909101905b600101611442565b8160405190808252806020026020018201604052801561151d578160200160208202803883390190505b509350600090505b8181101561157257828181518110151561153b57fe5b90602001906020020151848281518110151561155357fe5b600160a060020a03909216602092830290910190910152600101611525565b505050919050565b60055481565b33301461158c57600080fd5b60035481603282118015906115a15750818111155b80156115ac57508015155b80156115b757508115155b15156115c257600080fd5b60048390556040805184815290517fa3f1ee9126a074d9326c682f561767f710e927faa811f7a99829d49dc421797a9181900360200190a1505050565b3360008181526002602052604090205460ff16151561161d57600080fd5b6000828152602081905260409020548290600160a060020a0316151561164257600080fd5b60008381526001602090815260408083203380855292529091205484919060ff161561166d57600080fd5b8461167781611065565b156116cc576040805160e560020a62461bcd02815260206004820152601260248201527f54585f46554c4c595f434f4e4649524d45440000000000000000000000000000604482015290519081900360640190fd5b6000868152600160208181526040808420338086529252808420805460ff1916909317909255905188927f4a504a94899432a9846e1aa406dceb1bcfd538bb839071d49d1e5e23f5be30ef91a361172286611065565b15610e3f57610e3f8642611bba565b600061173e848484611c05565b9050611749816115ff565b9392505050565b60076020526000908152604090205481565b603281565b60045481565b33301461177957600080fd5b600160a060020a038216600090815260026020526040902054829060ff1615156117a257600080fd5b600160a060020a038216600090815260026020526040902054829060ff16156117ca57600080fd5b60005b6003548110156118565784600160a060020a03166003828154811015156117f057fe5b600091825260209091200154600160a060020a0316141561184e578360038281548110151561181b57fe5b9060005260206000200160006101000a815481600160a060020a030219169083600160a060020a03160217905550611856565b6001016117cd565b50600160a060020a03808516600081815260026020526040808220805460ff1990811690915593871682528082208054909416600117909355915190917f8001553a916ef2f495d26a907cc54d96ed840d7bda71e73194bf5a9df7a76b9091a2604051600160a060020a038416907ff39e6e1eb0edcf53c221607b54b00cd28f3196fed0a24994dc308b8f611b682d90600090a250505050565b600081815260208190526040902060030154819060ff161561191157600080fd5b8161191b81611065565b1515611971576040805160e560020a62461bcd02815260206004820152601660248201527f54585f4e4f545f46554c4c595f434f4e4649524d454400000000000000000000604482015290519081900360640190fd5b6006546000848152600760205260409020548491014210156119dd576040805160e560020a62461bcd02815260206004820152601460248201527f54494d455f4c4f434b5f494e434f4d504c455445000000000000000000000000604482015290519081900360640190fd5b6000848152602081815260409182902060038101805460ff19166001908117909155815481830154600280850180548851601f600019978316156101000297909701909116929092049485018790048702820187019097528381529395611a7595600160a060020a03909316949193928390830182828015610dc85780601f10610d9d57610100808354040283529160200191610dc8565b15611aaa5760405185907f33e13ecb54c3076d8e8bb8c2881800a4d972b792045ffae98fdf46df365fed7590600090a2611ae2565b60405185907f526441bb6c1aba3c9a4a6ca1d6545da9c2333c8c48343ef398eb858d72b7923690600090a260038101805460ff191690555b5050505050565b600081600401835110151515611b6f576040805160e560020a62461bcd02815260206004820152602560248201527f475245415445525f4f525f455155414c5f544f5f345f4c454e4754485f52455160448201527f5549524544000000000000000000000000000000000000000000000000000000606482015290519081900360840190fd5b5001602001517bffffffffffffffffffffffffffffffffffffffffffffffffffffffff191690565b6000806040516020840160008287838a8c6187965a03f198975050505050505050565b6000828152600760209081526040918290208390558151838152915184927f0b237afe65f1514fd7ea3f923ea4fe792bdd07000a912b6cd1602a8e7f573c8d92908290030190a25050565b600083600160a060020a0381161515611c1d57600080fd5b60055460408051608081018252600160a060020a0388811682526020808301898152838501898152600060608601819052878152808452959095208451815473ffffffffffffffffffffffffffffffffffffffff191694169390931783555160018301559251805194965091939092611c9d926002850192910190611d1e565b50606091909101516003909101805460ff191691151591909117905560058054600101905560405182907fc0ba8fe4b176c1714197d43b9cc6bcf797a4a7461c5fe8d0ef6e184ae7601e5190600090a2509392505050565b815481835581811115611d1957600083815260209020611d19918101908301611d9c565b505050565b828054600181600116156101000203166002900490600052602060002090601f016020900481019282601f10611d5f57805160ff1916838001178555611d8c565b82800160010185558215611d8c579182015b82811115611d8c578251825591602001919060010190611d71565b50611d98929150611d9c565b5090565b6112d591905b80821115611d985760008155600101611da256fea165627a7a72305820ce8e8aabda6de2f481db25b809f67626240ee30bc664d759442aeae1d2777cee0029","source":"/*\n\n  Copyright 2018 ZeroEx Intl.\n\n  Licensed under the Apache License, Version 2.0 (the \"License\");\n  you may not use this file except in compliance with the License.\n  You may obtain a copy of the License at\n\n    http://www.apache.org/licenses/LICENSE-2.0\n\n  Unless required by applicable law or agreed to in writing, software\n  distributed under the License is distributed on an \"AS IS\" BASIS,\n  WITHOUT WARRANTIES OR CONDITIONS OF ANY KIND, either express or implied.\n  See the License for the specific language governing permissions and\n  limitations under the License.\n\n*/\n\npragma solidity 0.5.0;\n\nimport \"../../multisig/MultiSigWalletWithTimeLock.sol\";\nimport \"../../utils/LibBytes/LibBytes.sol\";\n\n\ncontract AssetProxyOwner is\n    MultiSigWalletWithTimeLock\n{\n    using LibBytes for bytes;\n\n    event AssetProxyRegistration(address assetProxyContract, bool isRegistered);\n\n    // Mapping of AssetProxy contract address =>\n    // if this contract is allowed to call the AssetProxy's `removeAuthorizedAddressAtIndex` method without a time lock.\n    mapping (address => bool) public isAssetProxyRegistered;\n\n    bytes4 constant internal REMOVE_AUTHORIZED_ADDRESS_AT_INDEX_SELECTOR = bytes4(keccak256(\"removeAuthorizedAddressAtIndex(address,uint256)\"));\n\n    /// @dev Function will revert if the transaction does not call `removeAuthorizedAddressAtIndex`\n    ///      on an approved AssetProxy contract.\n    modifier validRemoveAuthorizedAddressAtIndexTx(uint256 transactionId) {\n        Transaction storage txn = transactions[transactionId];\n        require(\n            isAssetProxyRegistered[txn.destination],\n            \"UNREGISTERED_ASSET_PROXY\"\n        );\n        require(\n            txn.data.readBytes4(0) == REMOVE_AUTHORIZED_ADDRESS_AT_INDEX_SELECTOR,\n            \"INVALID_FUNCTION_SELECTOR\"\n        );\n        _;\n    }\n\n    /// @dev Contract constructor sets initial owners, required number of confirmations,\n    ///      time lock, and list of AssetProxy addresses.\n    /// @param _owners List of initial owners.\n    /// @param _assetProxyContracts Array of AssetProxy contract addresses.\n    /// @param _required Number of required confirmations.\n    /// @param _secondsTimeLocked Duration needed after a transaction is confirmed and before it becomes executable, in seconds.\n    constructor (\n        address[] memory _owners,\n        address[] memory _assetProxyContracts,\n        uint256 _required,\n        uint256 _secondsTimeLocked\n    )\n        public\n        MultiSigWalletWithTimeLock(_owners, _required, _secondsTimeLocked)\n    {\n        for (uint256 i = 0; i < _assetProxyContracts.length; i++) {\n            address assetProxy = _assetProxyContracts[i];\n            require(\n                assetProxy != address(0),\n                \"INVALID_ASSET_PROXY\"\n            );\n            isAssetProxyRegistered[assetProxy] = true;\n        }\n    }\n\n    /// @dev Registers or deregisters an AssetProxy to be able to execute\n    ///      `removeAuthorizedAddressAtIndex` without a timelock.\n    /// @param assetProxyContract Address of AssetProxy contract.\n    /// @param isRegistered Status of approval for AssetProxy contract.\n    function registerAssetProxy(address assetProxyContract, bool isRegistered)\n        public\n        onlyWallet\n        notNull(assetProxyContract)\n    {\n        isAssetProxyRegistered[assetProxyContract] = isRegistered;\n        emit AssetProxyRegistration(assetProxyContract, isRegistered);\n    }\n\n    /// @dev Allows execution of `removeAuthorizedAddressAtIndex` without time lock.\n    /// @param transactionId Transaction ID.\n    function executeRemoveAuthorizedAddressAtIndex(uint256 transactionId)\n        public\n        notExecuted(transactionId)\n        fullyConfirmed(transactionId)\n        validRemoveAuthorizedAddressAtIndexTx(transactionId)\n    {\n        Transaction storage txn = transactions[transactionId];\n        txn.executed = true;\n        if (external_call(txn.destination, txn.value, txn.data.length, txn.data)) {\n            emit Execution(transactionId);\n        } else {\n            emit ExecutionFailure(transactionId);\n            txn.executed = false;\n        }\n    }\n}\n","sourcePath":"/home/rogelio/Code/dbet/prediction-market/core/contracts/0x/protocol/AssetProxyOwner/AssetProxyOwner.sol","compiler":{"name":"solc","version":"0.5.0+commit.1d4f565a.Emscripten.clang"},"schemaVersion":"3.0.1","updatedAt":"2019-01-31T19:07:12.896Z","devdoc":{"methods":{"addOwner(address)":{"details":"Allows to add a new owner. Transaction has to be sent by wallet.","params":{"owner":"Address of new owner."}},"changeRequirement(uint256)":{"details":"Allows to change the number of required confirmations. Transaction has to be sent by wallet.","params":{"_required":"Number of required confirmations."}},"changeTimeLock(uint256)":{"details":"Changes the duration of the time lock for transactions.","params":{"_secondsTimeLocked":"Duration needed after a transaction is confirmed and before it becomes executable, in seconds."}},"confirmTransaction(uint256)":{"details":"Allows an owner to confirm a transaction.","params":{"transactionId":"Transaction ID."}},"constructor":{"details":"Contract constructor sets initial owners, required number of confirmations,      time lock, and list of AssetProxy addresses.","params":{"_assetProxyContracts":"Array of AssetProxy contract addresses.","_owners":"List of initial owners.","_required":"Number of required confirmations.","_secondsTimeLocked":"Duration needed after a transaction is confirmed and before it becomes executable, in seconds."}},"executeRemoveAuthorizedAddressAtIndex(uint256)":{"details":"Allows execution of `removeAuthorizedAddressAtIndex` without time lock.","params":{"transactionId":"Transaction ID."}},"executeTransaction(uint256)":{"details":"Allows anyone to execute a confirmed transaction.","params":{"transactionId":"Transaction ID."}},"getConfirmationCount(uint256)":{"details":"Returns number of confirmations of a transaction.","params":{"transactionId":"Transaction ID."},"return":"Number of confirmations."},"getConfirmations(uint256)":{"details":"Returns array with owner addresses, which confirmed transaction.","params":{"transactionId":"Transaction ID."},"return":"Returns array of owner addresses."},"getOwners()":{"details":"Returns list of owners.","return":"List of owner addresses."},"getTransactionCount(bool,bool)":{"details":"Returns total number of transactions after filers are applied.","params":{"executed":"Include executed transactions.","pending":"Include pending transactions."},"return":"Total number of transactions after filters are applied."},"getTransactionIds(uint256,uint256,bool,bool)":{"details":"Returns list of transaction IDs in defined range.","params":{"executed":"Include executed transactions.","from":"Index start position of transaction array.","pending":"Include pending transactions.","to":"Index end position of transaction array."},"return":"Returns array of transaction IDs."},"isConfirmed(uint256)":{"details":"Returns the confirmation status of a transaction.","params":{"transactionId":"Transaction ID."},"return":"Confirmation status."},"registerAssetProxy(address,bool)":{"details":"Registers or deregisters an AssetProxy to be able to execute      `removeAuthorizedAddressAtIndex` without a timelock.","params":{"assetProxyContract":"Address of AssetProxy contract.","isRegistered":"Status of approval for AssetProxy contract."}},"removeOwner(address)":{"details":"Allows to remove an owner. Transaction has to be sent by wallet.","params":{"owner":"Address of owner."}},"replaceOwner(address,address)":{"details":"Allows to replace an owner with a new owner. Transaction has to be sent by wallet.","params":{"newOwner":"Address of new owner.","owner":"Address of owner to be replaced."}},"revokeConfirmation(uint256)":{"details":"Allows an owner to revoke a confirmation for a transaction.","params":{"transactionId":"Transaction ID."}},"submitTransaction(address,uint256,bytes)":{"details":"Allows an owner to submit and confirm a transaction.","params":{"data":"Transaction data payload.","destination":"Transaction target address.","value":"Transaction ether value."},"return":"Returns transaction ID."}}},"userdoc":{"methods":{}},"chain_tags":{"0xc7":{"address":"0xAca1Dc98376bf4eA287069Ace85d6e8729464648"}}}