{"contractName":"ERC20Proxy","abi":[{"constant":false,"inputs":[{"name":"target","type":"address"}],"name":"addAuthorizedAddress","outputs":[],"payable":false,"stateMutability":"nonpayable","type":"function","signature":"0x42f1181e"},{"constant":true,"inputs":[{"name":"","type":"uint256"}],"name":"authorities","outputs":[{"name":"","type":"address"}],"payable":false,"stateMutability":"view","type":"function","signature":"0x494503d4"},{"constant":false,"inputs":[{"name":"target","type":"address"}],"name":"removeAuthorizedAddress","outputs":[],"payable":false,"stateMutability":"nonpayable","type":"function","signature":"0x70712939"},{"constant":true,"inputs":[],"name":"owner","outputs":[{"name":"","type":"address"}],"payable":false,"stateMutability":"view","type":"function","signature":"0x8da5cb5b"},{"constant":false,"inputs":[{"name":"target","type":"address"},{"name":"index","type":"uint256"}],"name":"removeAuthorizedAddressAtIndex","outputs":[],"payable":false,"stateMutability":"nonpayable","type":"function","signature":"0x9ad26744"},{"constant":true,"inputs":[{"name":"","type":"address"}],"name":"authorized","outputs":[{"name":"","type":"bool"}],"payable":false,"stateMutability":"view","type":"function","signature":"0xb9181611"},{"constant":true,"inputs":[],"name":"getAuthorizedAddresses","outputs":[{"name":"","type":"address[]"}],"payable":false,"stateMutability":"view","type":"function","signature":"0xd39de6e9"},{"constant":false,"inputs":[{"name":"newOwner","type":"address"}],"name":"transferOwnership","outputs":[],"payable":false,"stateMutability":"nonpayable","type":"function","signature":"0xf2fde38b"},{"payable":false,"stateMutability":"nonpayable","type":"fallback"},{"anonymous":false,"inputs":[{"indexed":true,"name":"target","type":"address"},{"indexed":true,"name":"caller","type":"address"}],"name":"AuthorizedAddressAdded","type":"event","signature":"0x3147867c59d17e8fa9d522465651d44aae0a9e38f902f3475b97e58072f0ed4c"},{"anonymous":false,"inputs":[{"indexed":true,"name":"target","type":"address"},{"indexed":true,"name":"caller","type":"address"}],"name":"AuthorizedAddressRemoved","type":"event","signature":"0x1f32c1b084e2de0713b8fb16bd46bb9df710a3dbeae2f3ca93af46e016dcc6b0"},{"constant":true,"inputs":[],"name":"getProxyId","outputs":[{"name":"","type":"bytes4"}],"payable":false,"stateMutability":"pure","type":"function","signature":"0xae25532e"}],"bytecode":"0x608060405260008054600160a060020a03191633179055610bfb806100256000396000f3fe6080604052600436106100985763ffffffff7c010000000000000000000000000000000000000000000000000000000060003504166342f1181e8114610217578063494503d41461024c57806370712939146102925780638da5cb5b146102c55780639ad26744146102da578063ae25532e14610313578063b91816111461035a578063d39de6e9146103a1578063f2fde38b14610406575b3480156100a457600080fd5b507bffffffffffffffffffffffffffffffffffffffffffffffffffffffff19600035167fa85e59e4000000000000000000000000000000000000000000000000000000008114156102125760408051338152600160208201529081205415156101615760e560020a62461bcd026000527c20000000000000000000000000000000000000000000000000000000006020527c1553454e4445525f4e4f545f415554484f52495a454400000000000000604052600060605260646000fd5b602860043501357f23b872dd0000000000000000000000000000000000000000000000000000000060005260606024600437602060006064600080855af1600080511160203d14163d15178116905080156101b857005b60e560020a62461bcd026000527c20000000000000000000000000000000000000000000000000000000006020527c0f5452414e534645525f4641494c454400000000000000000000000000604052600060605260646000fd5b600080fd5b34801561022357600080fd5b5061024a6004803603602081101561023a57600080fd5b5035600160a060020a0316610439565b005b34801561025857600080fd5b506102766004803603602081101561026f57600080fd5b5035610595565b60408051600160a060020a039092168252519081900360200190f35b34801561029e57600080fd5b5061024a600480360360208110156102b557600080fd5b5035600160a060020a03166105bd565b3480156102d157600080fd5b506102766107a7565b3480156102e657600080fd5b5061024a600480360360408110156102fd57600080fd5b50600160a060020a0381351690602001356107b6565b34801561031f57600080fd5b50610328610a30565b604080517bffffffffffffffffffffffffffffffffffffffffffffffffffffffff199092168252519081900360200190f35b34801561036657600080fd5b5061038d6004803603602081101561037d57600080fd5b5035600160a060020a0316610a66565b604080519115158252519081900360200190f35b3480156103ad57600080fd5b506103b6610a7b565b60408051602080825283518183015283519192839290830191858101910280838360005b838110156103f25781810151838201526020016103da565b505050509050019250505060405180910390f35b34801561041257600080fd5b5061024a6004803603602081101561042957600080fd5b5035600160a060020a0316610add565b600054600160a060020a03163314610489576040805160e560020a62461bcd0281526020600482015260136024820152600080516020610bb0833981519152604482015290519081900360640190fd5b600160a060020a03811660009081526001602052604090205460ff16156104fa576040805160e560020a62461bcd02815260206004820152601960248201527f5441524745545f414c52454144595f415554484f52495a454400000000000000604482015290519081900360640190fd5b600160a060020a0381166000818152600160208190526040808320805460ff19168317905560028054928301815583527f405787fa12a823e0f2b7631cc41b3ba8828b3321ca811111fa75cd3aa3bb5ace909101805473ffffffffffffffffffffffffffffffffffffffff191684179055513392917f3147867c59d17e8fa9d522465651d44aae0a9e38f902f3475b97e58072f0ed4c91a350565b60028054829081106105a357fe5b600091825260209091200154600160a060020a0316905081565b600054600160a060020a0316331461060d576040805160e560020a62461bcd0281526020600482015260136024820152600080516020610bb0833981519152604482015290519081900360640190fd5b600160a060020a03811660009081526001602052604090205460ff16151561067f576040805160e560020a62461bcd02815260206004820152601560248201527f5441524745545f4e4f545f415554484f52495a45440000000000000000000000604482015290519081900360640190fd5b600160a060020a0381166000908152600160205260408120805460ff191690555b60025481101561076d5781600160a060020a03166002828154811015156106c357fe5b600091825260209091200154600160a060020a03161415610765576002805460001981019081106106f057fe5b60009182526020909120015460028054600160a060020a03909216918390811061071657fe5b6000918252602090912001805473ffffffffffffffffffffffffffffffffffffffff1916600160a060020a039290921691909117905560028054600019019061075f9082610b68565b5061076d565b6001016106a0565b506040513390600160a060020a038316907f1f32c1b084e2de0713b8fb16bd46bb9df710a3dbeae2f3ca93af46e016dcc6b090600090a350565b600054600160a060020a031681565b600054600160a060020a03163314610806576040805160e560020a62461bcd0281526020600482015260136024820152600080516020610bb0833981519152604482015290519081900360640190fd5b600160a060020a03821660009081526001602052604090205460ff161515610878576040805160e560020a62461bcd02815260206004820152601560248201527f5441524745545f4e4f545f415554484f52495a45440000000000000000000000604482015290519081900360640190fd5b60025481106108d1576040805160e560020a62461bcd02815260206004820152601360248201527f494e4445585f4f55545f4f465f424f554e445300000000000000000000000000604482015290519081900360640190fd5b81600160a060020a03166002828154811015156108ea57fe5b600091825260209091200154600160a060020a031614610954576040805160e560020a62461bcd02815260206004820152601b60248201527f415554484f52495a45445f414444524553535f4d49534d415443480000000000604482015290519081900360640190fd5b600160a060020a0382166000908152600160205260409020805460ff1916905560028054600019810190811061098657fe5b60009182526020909120015460028054600160a060020a0390921691839081106109ac57fe5b6000918252602090912001805473ffffffffffffffffffffffffffffffffffffffff1916600160a060020a03929092169190911790556002805460001901906109f59082610b68565b506040513390600160a060020a038416907f1f32c1b084e2de0713b8fb16bd46bb9df710a3dbeae2f3ca93af46e016dcc6b090600090a35050565b604080517f4552433230546f6b656e28616464726573732900000000000000000000000000815290519081900360130190205b90565b60016020526000908152604090205460ff1681565b60606002805480602002602001604051908101604052809291908181526020018280548015610ad357602002820191906000526020600020905b8154600160a060020a03168152600190910190602001808311610ab5575b5050505050905090565b600054600160a060020a03163314610b2d576040805160e560020a62461bcd0281526020600482015260136024820152600080516020610bb0833981519152604482015290519081900360640190fd5b600160a060020a03811615610b65576000805473ffffffffffffffffffffffffffffffffffffffff1916600160a060020a0383161790555b50565b815481835581811115610b8c57600083815260209020610b8c918101908301610b91565b505050565b610a6391905b80821115610bab5760008155600101610b97565b509056fe4f4e4c595f434f4e54524143545f4f574e455200000000000000000000000000a165627a7a72305820f71fa69f0c1a455a6cd7c4a0bf6859b6ee1b3860f8393906c9b3435daf8627ff0029","source":"/*\n\n  Copyright 2018 ZeroEx Intl.\n\n  Licensed under the Apache License, Version 2.0 (the \"License\");\n  you may not use this file except in compliance with the License.\n  You may obtain a copy of the License at\n\n    http://www.apache.org/licenses/LICENSE-2.0\n\n  Unless required by applicable law or agreed to in writing, software\n  distributed under the License is distributed on an \"AS IS\" BASIS,\n  WITHOUT WARRANTIES OR CONDITIONS OF ANY KIND, either express or implied.\n  See the License for the specific language governing permissions and\n  limitations under the License.\n\n*/\n\npragma solidity 0.5.0;\n\nimport \"./MixinAuthorizable.sol\";\n\n\ncontract ERC20Proxy is\n    MixinAuthorizable\n{\n    // Id of this proxy.\n    bytes4 constant internal PROXY_ID = bytes4(keccak256(\"ERC20Token(address)\"));\n\n    // solhint-disable-next-line payable-fallback\n    function ()\n        external\n    {\n        assembly {\n            // The first 4 bytes of calldata holds the function selector\n            let selector := and(calldataload(0), 0xffffffff00000000000000000000000000000000000000000000000000000000)\n\n            // `transferFrom` will be called with the following parameters:\n            // assetData Encoded byte array.\n            // from Address to transfer asset from.\n            // to Address to transfer asset to.\n            // amount Amount of asset to transfer.\n            // bytes4(keccak256(\"transferFrom(bytes,address,address,uint256)\")) = 0xa85e59e4\n            if eq(selector, 0xa85e59e400000000000000000000000000000000000000000000000000000000) {\n\n                // To lookup a value in a mapping, we load from the storage location keccak256(k, p),\n                // where k is the key left padded to 32 bytes and p is the storage slot\n                let start := mload(64)\n                mstore(start, and(caller, 0xffffffffffffffffffffffffffffffffffffffff))\n                mstore(add(start, 32), authorized_slot)\n\n                // Revert if authorized[msg.sender] == false\n                if iszero(sload(keccak256(start, 64))) {\n                    // Revert with `Error(\"SENDER_NOT_AUTHORIZED\")`\n                    mstore(0, 0x08c379a000000000000000000000000000000000000000000000000000000000)\n                    mstore(32, 0x0000002000000000000000000000000000000000000000000000000000000000)\n                    mstore(64, 0x0000001553454e4445525f4e4f545f415554484f52495a454400000000000000)\n                    mstore(96, 0)\n                    revert(0, 100)\n                }\n\n                // `transferFrom`.\n                // The function is marked `external`, so no abi decodeding is done for\n                // us. Instead, we expect the `calldata` memory to contain the\n                // following:\n                //\n                // | Area     | Offset | Length  | Contents                            |\n                // |----------|--------|---------|-------------------------------------|\n                // | Header   | 0      | 4       | function selector                   |\n                // | Params   |        | 4 * 32  | function parameters:                |\n                // |          | 4      |         |   1. offset to assetData (*)        |\n                // |          | 36     |         |   2. from                           |\n                // |          | 68     |         |   3. to                             |\n                // |          | 100    |         |   4. amount                         |\n                // | Data     |        |         | assetData:                          |\n                // |          | 132    | 32      | assetData Length                    |\n                // |          | 164    | **      | assetData Contents                  |\n                //\n                // (*): offset is computed from start of function parameters, so offset\n                //      by an additional 4 bytes in the calldata.\n                //\n                // (**): see table below to compute length of assetData Contents\n                //\n                // WARNING: The ABIv2 specification allows additional padding between\n                //          the Params and Data section. This will result in a larger\n                //          offset to assetData.\n\n                // Asset data itself is encoded as follows:\n                //\n                // | Area     | Offset | Length  | Contents                            |\n                // |----------|--------|---------|-------------------------------------|\n                // | Header   | 0      | 4       | function selector                   |\n                // | Params   |        | 1 * 32  | function parameters:                |\n                // |          | 4      | 12 + 20 |   1. token address                  |\n\n                // We construct calldata for the `token.transferFrom` ABI.\n                // The layout of this calldata is in the table below.\n                //\n                // | Area     | Offset | Length  | Contents                            |\n                // |----------|--------|---------|-------------------------------------|\n                // | Header   | 0      | 4       | function selector                   |\n                // | Params   |        | 3 * 32  | function parameters:                |\n                // |          | 4      |         |   1. from                           |\n                // |          | 36     |         |   2. to                             |\n                // |          | 68     |         |   3. amount                         |\n\n                /////// Read token address from calldata ///////\n                // * The token address is stored in `assetData`.\n                //\n                // * The \"offset to assetData\" is stored at offset 4 in the calldata (table 1).\n                //   [assetDataOffsetFromParams = calldataload(4)]\n                //\n                // * Notes that the \"offset to assetData\" is relative to the \"Params\" area of calldata;\n                //   add 4 bytes to account for the length of the \"Header\" area (table 1).\n                //   [assetDataOffsetFromHeader = assetDataOffsetFromParams + 4]\n                //\n                // * The \"token address\" is offset 32+4=36 bytes into \"assetData\" (tables 1 & 2).\n                //   [tokenOffset = assetDataOffsetFromHeader + 36 = calldataload(4) + 4 + 36]\n                let token := calldataload(add(calldataload(4), 40))\n\n                /////// Setup Header Area ///////\n                // This area holds the 4-byte `transferFrom` selector.\n                // Any trailing data in transferFromSelector will be\n                // overwritten in the next `mstore` call.\n                mstore(0, 0x23b872dd00000000000000000000000000000000000000000000000000000000)\n\n                /////// Setup Params Area ///////\n                // We copy the fields `from`, `to` and `amount` in bulk\n                // from our own calldata to the new calldata.\n                calldatacopy(4, 36, 96)\n\n                /////// Call `token.transferFrom` using the calldata ///////\n                let success := call(\n                    gas,            // forward all gas\n                    token,          // call address of token contract\n                    0,              // don't send any ETH\n                    0,              // pointer to start of input\n                    100,            // length of input\n                    0,              // write output over input\n                    32              // output size should be 32 bytes\n                )\n\n                /////// Check return data. ///////\n                // If there is no return data, we assume the token incorrectly\n                // does not return a bool. In this case we expect it to revert\n                // on failure, which was handled above.\n                // If the token does return data, we require that it is a single\n                // nonzero 32 bytes value.\n                // So the transfer succeeded if the call succeeded and either\n                // returned nothing, or returned a non-zero 32 byte value.\n                success := and(success, or(\n                    iszero(returndatasize),\n                    and(\n                        eq(returndatasize, 32),\n                        gt(mload(0), 0)\n                    )\n                ))\n                if success {\n                    return(0, 0)\n                }\n\n                // Revert with `Error(\"TRANSFER_FAILED\")`\n                mstore(0, 0x08c379a000000000000000000000000000000000000000000000000000000000)\n                mstore(32, 0x0000002000000000000000000000000000000000000000000000000000000000)\n                mstore(64, 0x0000000f5452414e534645525f4641494c454400000000000000000000000000)\n                mstore(96, 0)\n                revert(0, 100)\n            }\n\n            // Revert if undefined function is called\n            revert(0, 0)\n        }\n    }\n\n    /// @dev Gets the proxy id associated with the proxy address.\n    /// @return Proxy id.\n    function getProxyId()\n        external\n        pure\n        returns (bytes4)\n    {\n        return PROXY_ID;\n    }\n}\n","sourcePath":"/home/rogelio/Code/dbet/prediction-market/core/contracts/0x/protocol/AssetProxy/ERC20Proxy.sol","compiler":{"name":"solc","version":"0.5.0+commit.1d4f565a.Emscripten.clang"},"schemaVersion":"3.0.1","updatedAt":"2019-01-31T19:07:12.894Z","devdoc":{"methods":{"addAuthorizedAddress(address)":{"details":"Authorizes an address.","params":{"target":"Address to authorize."}},"getAuthorizedAddresses()":{"details":"Gets all authorized addresses.","return":"Array of authorized addresses."},"getProxyId()":{"details":"Gets the proxy id associated with the proxy address.","return":"Proxy id."},"removeAuthorizedAddress(address)":{"details":"Removes authorizion of an address.","params":{"target":"Address to remove authorization from."}},"removeAuthorizedAddressAtIndex(address,uint256)":{"details":"Removes authorizion of an address.","params":{"index":"Index of target in authorities array.","target":"Address to remove authorization from."}}}},"userdoc":{"methods":{}},"chain_tags":{"0x4a":{"address":"0x13E183e04c33aD35A4c86279a7837115268f4A4F"}}}