{
  "contractName": "ExchangeWrapper",
  "abi": [
    {
      "inputs": [
        {
          "name": "_exchange",
          "type": "address"
        }
      ],
      "payable": false,
      "stateMutability": "nonpayable",
      "type": "constructor"
    },
    {
      "constant": false,
      "inputs": [
        {
          "name": "targetOrderEpoch",
          "type": "uint256"
        },
        {
          "name": "salt",
          "type": "uint256"
        },
        {
          "name": "makerSignature",
          "type": "bytes"
        }
      ],
      "name": "cancelOrdersUpTo",
      "outputs": [],
      "payable": false,
      "stateMutability": "nonpayable",
      "type": "function"
    },
    {
      "constant": false,
      "inputs": [
        {
          "components": [
            {
              "name": "makerAddress",
              "type": "address"
            },
            {
              "name": "takerAddress",
              "type": "address"
            },
            {
              "name": "feeRecipientAddress",
              "type": "address"
            },
            {
              "name": "senderAddress",
              "type": "address"
            },
            {
              "name": "makerAssetAmount",
              "type": "uint256"
            },
            {
              "name": "takerAssetAmount",
              "type": "uint256"
            },
            {
              "name": "makerFee",
              "type": "uint256"
            },
            {
              "name": "takerFee",
              "type": "uint256"
            },
            {
              "name": "expirationTimeSeconds",
              "type": "uint256"
            },
            {
              "name": "salt",
              "type": "uint256"
            },
            {
              "name": "makerAssetData",
              "type": "bytes"
            },
            {
              "name": "takerAssetData",
              "type": "bytes"
            }
          ],
          "name": "order",
          "type": "tuple"
        },
        {
          "name": "takerAssetFillAmount",
          "type": "uint256"
        },
        {
          "name": "salt",
          "type": "uint256"
        },
        {
          "name": "orderSignature",
          "type": "bytes"
        },
        {
          "name": "takerSignature",
          "type": "bytes"
        }
      ],
      "name": "fillOrder",
      "outputs": [],
      "payable": false,
      "stateMutability": "nonpayable",
      "type": "function"
    }
  ],
  "bytecode": "0x608060405234801561001057600080fd5b50604051602080610a1e833981018060405261002f9190810190610067565b60008054600160a060020a031916600160a060020a03929092169190911790556100aa565b60006100608251610099565b9392505050565b60006020828403121561007957600080fd5b60006100858484610054565b949350505050565b600160a060020a031690565b60006100a48261008d565b92915050565b610965806100b96000396000f3fe60806040526004361061004b5763ffffffff7c0100000000000000000000000000000000000000000000000000000000600035041663a2dbfe658114610050578063f7de1c8b14610072575b600080fd5b34801561005c57600080fd5b5061007061006b3660046104f6565b610092565b005b34801561007e57600080fd5b5061007061008d3660046105b2565b6101c3565b60405133906060907fb4be83d500000000000000000000000000000000000000000000000000000000906100ce90899089908890602401610793565b60408051601f198184030181529181526020820180517bffffffffffffffffffffffffffffffffffffffffffffffffffffffff167bffffffffffffffffffffffffffffffffffffffffffffffffffffffff199094169390931790925260005491517fbfc8bfce00000000000000000000000000000000000000000000000000000000815290925073ffffffffffffffffffffffffffffffffffffffff9091169063bfc8bfce90610188908890869086908990600401610826565b600060405180830381600087803b1580156101a257600080fd5b505af11580156101b6573d6000803e3d6000fd5b5050505050505050505050565b60405133906060907f4f9559b100000000000000000000000000000000000000000000000000000000906101fb9088906024016107c5565b60408051601f198184030181529181526020820180517bffffffffffffffffffffffffffffffffffffffffffffffffffffffff167bffffffffffffffffffffffffffffffffffffffffffffffffffffffff199094169390931790925260005491517fbfc8bfce00000000000000000000000000000000000000000000000000000000815290925073ffffffffffffffffffffffffffffffffffffffff9091169063bfc8bfce906102b7908890869086908a908a906004016107d9565b600060405180830381600087803b1580156102d157600080fd5b505af11580156102e5573d6000803e3d6000fd5b50505050505050505050565b60006102fd82356108c4565b9392505050565b600080601f8301841361031657600080fd5b50813567ffffffffffffffff81111561032e57600080fd5b60208301915083600182028301111561034657600080fd5b9250929050565b6000601f8201831361035e57600080fd5b813561037161036c82610898565b610871565b9150808252602083016020830185838301111561038d57600080fd5b6103988382846108e5565b50505092915050565b600061018082840312156103b457600080fd5b6103bf610180610871565b905060006103cd84846102f1565b82525060206103de848483016102f1565b60208301525060406103f2848285016102f1565b6040830152506060610406848285016102f1565b606083015250608061041a848285016104ea565b60808301525060a061042e848285016104ea565b60a08301525060c0610442848285016104ea565b60c08301525060e0610456848285016104ea565b60e08301525061010061046b848285016104ea565b61010083015250610120610481848285016104ea565b6101208301525061014082013567ffffffffffffffff8111156104a357600080fd5b6104af8482850161034d565b6101408301525061016082013567ffffffffffffffff8111156104d157600080fd5b6104dd8482850161034d565b6101608301525092915050565b60006102fd82356108e2565b600080600080600060a0868803121561050e57600080fd5b853567ffffffffffffffff81111561052557600080fd5b610531888289016103a1565b9550506020610542888289016104ea565b9450506040610553888289016104ea565b935050606086013567ffffffffffffffff81111561057057600080fd5b61057c8882890161034d565b925050608086013567ffffffffffffffff81111561059957600080fd5b6105a58882890161034d565b9150509295509295909350565b600080600080606085870312156105c857600080fd5b60006105d487876104ea565b94505060206105e5878288016104ea565b935050604085013567ffffffffffffffff81111561060257600080fd5b61060e87828801610304565b95989497509550505050565b610623816108c4565b82525050565b600082845260208401935061063f8385846108e5565b61064883610921565b9093019392505050565b600061065d826108c0565b8084526106718160208601602086016108f1565b61067a81610921565b9093016020019392505050565b805160009061018084019061069c858261061a565b5060208301516106af602086018261061a565b5060408301516106c2604086018261061a565b5060608301516106d5606086018261061a565b5060808301516106e8608086018261078a565b5060a08301516106fb60a086018261078a565b5060c083015161070e60c086018261078a565b5060e083015161072160e086018261078a565b5061010083015161073661010086018261078a565b5061012083015161074b61012086018261078a565b506101408301518482036101408601526107658282610652565b9150506101608301518482036101608601526107818282610652565b95945050505050565b610623816108e2565b606080825281016107a48186610687565b90506107b3602083018561078a565b81810360408301526107818184610652565b602081016107d3828461078a565b92915050565b608081016107e7828861078a565b6107f4602083018761061a565b81810360408301526108068186610652565b9050818103606083015261081b818486610629565b979650505050505050565b60808101610834828761078a565b610841602083018661061a565b81810360408301526108538185610652565b905081810360608301526108678184610652565b9695505050505050565b60405181810167ffffffffffffffff8111828210171561089057600080fd5b604052919050565b600067ffffffffffffffff8211156108af57600080fd5b506020601f91909101601f19160190565b5190565b600073ffffffffffffffffffffffffffffffffffffffff82166107d3565b90565b82818337506000910152565b60005b8381101561090c5781810151838201526020016108f4565b8381111561091b576000848401525b50505050565b601f01601f19169056fea265627a7a72305820970e4daf783e449c166c000e32d90371ca5e054d744b409d5b1afefa272652c76c6578706572696d656e74616cf50037",
  "source": "/*\n\n  Copyright 2018 ZeroEx Intl.\n\n  Licensed under the Apache License, Version 2.0 (the \"License\");\n  you may not use this file except in compliance with the License.\n  You may obtain a copy of the License at\n\n    http://www.apache.org/licenses/LICENSE-2.0\n\n  Unless required by applicable law or agreed to in writing, software\n  distributed under the License is distributed on an \"AS IS\" BASIS,\n  WITHOUT WARRANTIES OR CONDITIONS OF ANY KIND, either express or implied.\n  See the License for the specific language governing permissions and\n  limitations under the License.\n\n*/\n\npragma solidity 0.5.0;\npragma experimental ABIEncoderV2;\n\nimport \"../../protocol/Exchange/interfaces/IExchange.sol\";\nimport \"../../protocol/Exchange/libs/LibOrder.sol\";\n\n\ncontract ExchangeWrapper {\n\n    // Exchange contract.\n    // solhint-disable-next-line var-name-mixedcase\n    IExchange internal EXCHANGE;\n\n    constructor (address _exchange)\n        public\n    {\n        EXCHANGE = IExchange(_exchange);\n    }\n\n    /// @dev Cancels all orders created by sender with a salt less than or equal to the targetOrderEpoch\n    ///      and senderAddress equal to this contract.\n    /// @param targetOrderEpoch Orders created with a salt less or equal to this value will be cancelled.\n    /// @param salt Arbitrary value to gaurantee uniqueness of 0x transaction hash.\n    /// @param makerSignature Proof that maker wishes to call this function with given params.\n    function cancelOrdersUpTo(\n        uint256 targetOrderEpoch,\n        uint256 salt,\n        bytes calldata makerSignature\n    )\n        external\n    {\n        address makerAddress = msg.sender;\n\n        // Encode arguments into byte array.\n        bytes memory data = abi.encodeWithSelector(\n            EXCHANGE.cancelOrdersUpTo.selector,\n            targetOrderEpoch\n        );\n\n        // Call `cancelOrdersUpTo` via `executeTransaction`.\n        EXCHANGE.executeTransaction(\n            salt,\n            makerAddress,\n            data,\n            makerSignature\n        );\n    }\n\n    /// @dev Fills an order using `msg.sender` as the taker.\n    /// @param order Order struct containing order specifications.\n    /// @param takerAssetFillAmount Desired amount of takerAsset to sell.\n    /// @param salt Arbitrary value to gaurantee uniqueness of 0x transaction hash.\n    /// @param orderSignature Proof that order has been created by maker.\n    /// @param takerSignature Proof that taker wishes to call this function with given params.\n    function fillOrder(\n        LibOrder.Order memory order,\n        uint256 takerAssetFillAmount,\n        uint256 salt,\n        bytes memory orderSignature,\n        bytes memory takerSignature\n    )\n        public\n    {\n        address takerAddress = msg.sender;\n\n        // Encode arguments into byte array.\n        bytes memory data = abi.encodeWithSelector(\n            EXCHANGE.fillOrder.selector,\n            order,\n            takerAssetFillAmount,\n            orderSignature\n        );\n\n        // Call `fillOrder` via `executeTransaction`.\n        EXCHANGE.executeTransaction(\n            salt,\n            takerAddress,\n            data,\n            takerSignature\n        );\n    }\n}\n",
  "sourcePath": "/home/rogelio/Code/dbet/prediction-market/core/contracts/0x/examples/ExchangeWrapper/ExchangeWrapper.sol",
  "compiler": {
    "name": "solc",
    "version": "0.5.0+commit.1d4f565a.Emscripten.clang"
  },
  "schemaVersion": "3.0.1",
  "updatedAt": "2019-01-31T19:07:12.887Z",
  "devdoc": {
    "methods": {
      "cancelOrdersUpTo(uint256,uint256,bytes)": {
        "details": "Cancels all orders created by sender with a salt less than or equal to the targetOrderEpoch      and senderAddress equal to this contract.",
        "params": {
          "makerSignature": "Proof that maker wishes to call this function with given params.",
          "salt": "Arbitrary value to gaurantee uniqueness of 0x transaction hash.",
          "targetOrderEpoch": "Orders created with a salt less or equal to this value will be cancelled."
        }
      },
      "fillOrder((address,address,address,address,uint256,uint256,uint256,uint256,uint256,uint256,bytes,bytes),uint256,uint256,bytes,bytes)": {
        "details": "Fills an order using `msg.sender` as the taker.",
        "params": {
          "order": "Order struct containing order specifications.",
          "orderSignature": "Proof that order has been created by maker.",
          "salt": "Arbitrary value to gaurantee uniqueness of 0x transaction hash.",
          "takerAssetFillAmount": "Desired amount of takerAsset to sell.",
          "takerSignature": "Proof that taker wishes to call this function with given params."
        }
      }
    }
  },
  "userdoc": {
    "methods": {}
  }
}