{"contractName":"Exchange","abi":[{"constant":true,"inputs":[{"name":"","type":"bytes32"}],"name":"filled","outputs":[{"name":"","type":"uint256"}],"payable":false,"stateMutability":"view","type":"function","signature":"0x288cdc91"},{"constant":false,"inputs":[{"components":[{"name":"makerAddress","type":"address"},{"name":"takerAddress","type":"address"},{"name":"feeRecipientAddress","type":"address"},{"name":"senderAddress","type":"address"},{"name":"makerAssetAmount","type":"uint256"},{"name":"takerAssetAmount","type":"uint256"},{"name":"makerFee","type":"uint256"},{"name":"takerFee","type":"uint256"},{"name":"expirationTimeSeconds","type":"uint256"},{"name":"salt","type":"uint256"},{"name":"makerAssetData","type":"bytes"},{"name":"takerAssetData","type":"bytes"}],"name":"orders","type":"tuple[]"},{"name":"takerAssetFillAmounts","type":"uint256[]"},{"name":"signatures","type":"bytes[]"}],"name":"batchFillOrders","outputs":[{"components":[{"name":"makerAssetFilledAmount","type":"uint256"},{"name":"takerAssetFilledAmount","type":"uint256"},{"name":"makerFeePaid","type":"uint256"},{"name":"takerFeePaid","type":"uint256"}],"name":"totalFillResults","type":"tuple"}],"payable":false,"stateMutability":"nonpayable","type":"function","signature":"0x297bb70b"},{"constant":true,"inputs":[{"name":"","type":"bytes32"}],"name":"cancelled","outputs":[{"name":"","type":"bool"}],"payable":false,"stateMutability":"view","type":"function","signature":"0x2ac12622"},{"constant":false,"inputs":[{"name":"hash","type":"bytes32"},{"name":"signerAddress","type":"address"},{"name":"signature","type":"bytes"}],"name":"preSign","outputs":[],"payable":false,"stateMutability":"nonpayable","type":"function","signature":"0x3683ef8e"},{"constant":false,"inputs":[{"components":[{"name":"makerAddress","type":"address"},{"name":"takerAddress","type":"address"},{"name":"feeRecipientAddress","type":"address"},{"name":"senderAddress","type":"address"},{"name":"makerAssetAmount","type":"uint256"},{"name":"takerAssetAmount","type":"uint256"},{"name":"makerFee","type":"uint256"},{"name":"takerFee","type":"uint256"},{"name":"expirationTimeSeconds","type":"uint256"},{"name":"salt","type":"uint256"},{"name":"makerAssetData","type":"bytes"},{"name":"takerAssetData","type":"bytes"}],"name":"leftOrder","type":"tuple"},{"components":[{"name":"makerAddress","type":"address"},{"name":"takerAddress","type":"address"},{"name":"feeRecipientAddress","type":"address"},{"name":"senderAddress","type":"address"},{"name":"makerAssetAmount","type":"uint256"},{"name":"takerAssetAmount","type":"uint256"},{"name":"makerFee","type":"uint256"},{"name":"takerFee","type":"uint256"},{"name":"expirationTimeSeconds","type":"uint256"},{"name":"salt","type":"uint256"},{"name":"makerAssetData","type":"bytes"},{"name":"takerAssetData","type":"bytes"}],"name":"rightOrder","type":"tuple"},{"name":"leftSignature","type":"bytes"},{"name":"rightSignature","type":"bytes"}],"name":"matchOrders","outputs":[{"components":[{"components":[{"name":"makerAssetFilledAmount","type":"uint256"},{"name":"takerAssetFilledAmount","type":"uint256"},{"name":"makerFeePaid","type":"uint256"},{"name":"takerFeePaid","type":"uint256"}],"name":"left","type":"tuple"},{"components":[{"name":"makerAssetFilledAmount","type":"uint256"},{"name":"takerAssetFilledAmount","type":"uint256"},{"name":"makerFeePaid","type":"uint256"},{"name":"takerFeePaid","type":"uint256"}],"name":"right","type":"tuple"},{"name":"leftMakerAssetSpreadAmount","type":"uint256"}],"name":"matchedFillResults","type":"tuple"}],"payable":false,"stateMutability":"nonpayable","type":"function","signature":"0x3c28d861"},{"constant":false,"inputs":[{"components":[{"name":"makerAddress","type":"address"},{"name":"takerAddress","type":"address"},{"name":"feeRecipientAddress","type":"address"},{"name":"senderAddress","type":"address"},{"name":"makerAssetAmount","type":"uint256"},{"name":"takerAssetAmount","type":"uint256"},{"name":"makerFee","type":"uint256"},{"name":"takerFee","type":"uint256"},{"name":"expirationTimeSeconds","type":"uint256"},{"name":"salt","type":"uint256"},{"name":"makerAssetData","type":"bytes"},{"name":"takerAssetData","type":"bytes"}],"name":"order","type":"tuple"},{"name":"takerAssetFillAmount","type":"uint256"},{"name":"signature","type":"bytes"}],"name":"fillOrderNoThrow","outputs":[{"components":[{"name":"makerAssetFilledAmount","type":"uint256"},{"name":"takerAssetFilledAmount","type":"uint256"},{"name":"makerFeePaid","type":"uint256"},{"name":"takerFeePaid","type":"uint256"}],"name":"fillResults","type":"tuple"}],"payable":false,"stateMutability":"nonpayable","type":"function","signature":"0x3e228bae"},{"constant":true,"inputs":[{"name":"","type":"bytes4"}],"name":"assetProxies","outputs":[{"name":"","type":"address"}],"payable":false,"stateMutability":"view","type":"function","signature":"0x3fd3c997"},{"constant":false,"inputs":[{"components":[{"name":"makerAddress","type":"address"},{"name":"takerAddress","type":"address"},{"name":"feeRecipientAddress","type":"address"},{"name":"senderAddress","type":"address"},{"name":"makerAssetAmount","type":"uint256"},{"name":"takerAssetAmount","type":"uint256"},{"name":"makerFee","type":"uint256"},{"name":"takerFee","type":"uint256"},{"name":"expirationTimeSeconds","type":"uint256"},{"name":"salt","type":"uint256"},{"name":"makerAssetData","type":"bytes"},{"name":"takerAssetData","type":"bytes"}],"name":"orders","type":"tuple[]"}],"name":"batchCancelOrders","outputs":[],"payable":false,"stateMutability":"nonpayable","type":"function","signature":"0x4ac14782"},{"constant":false,"inputs":[{"components":[{"name":"makerAddress","type":"address"},{"name":"takerAddress","type":"address"},{"name":"feeRecipientAddress","type":"address"},{"name":"senderAddress","type":"address"},{"name":"makerAssetAmount","type":"uint256"},{"name":"takerAssetAmount","type":"uint256"},{"name":"makerFee","type":"uint256"},{"name":"takerFee","type":"uint256"},{"name":"expirationTimeSeconds","type":"uint256"},{"name":"salt","type":"uint256"},{"name":"makerAssetData","type":"bytes"},{"name":"takerAssetData","type":"bytes"}],"name":"orders","type":"tuple[]"},{"name":"takerAssetFillAmounts","type":"uint256[]"},{"name":"signatures","type":"bytes[]"}],"name":"batchFillOrKillOrders","outputs":[{"components":[{"name":"makerAssetFilledAmount","type":"uint256"},{"name":"takerAssetFilledAmount","type":"uint256"},{"name":"makerFeePaid","type":"uint256"},{"name":"takerFeePaid","type":"uint256"}],"name":"totalFillResults","type":"tuple"}],"payable":false,"stateMutability":"nonpayable","type":"function","signature":"0x4d0ae546"},{"constant":false,"inputs":[{"name":"targetOrderEpoch","type":"uint256"}],"name":"cancelOrdersUpTo","outputs":[],"payable":false,"stateMutability":"nonpayable","type":"function","signature":"0x4f9559b1"},{"constant":false,"inputs":[{"components":[{"name":"makerAddress","type":"address"},{"name":"takerAddress","type":"address"},{"name":"feeRecipientAddress","type":"address"},{"name":"senderAddress","type":"address"},{"name":"makerAssetAmount","type":"uint256"},{"name":"takerAssetAmount","type":"uint256"},{"name":"makerFee","type":"uint256"},{"name":"takerFee","type":"uint256"},{"name":"expirationTimeSeconds","type":"uint256"},{"name":"salt","type":"uint256"},{"name":"makerAssetData","type":"bytes"},{"name":"takerAssetData","type":"bytes"}],"name":"orders","type":"tuple[]"},{"name":"takerAssetFillAmounts","type":"uint256[]"},{"name":"signatures","type":"bytes[]"}],"name":"batchFillOrdersNoThrow","outputs":[{"components":[{"name":"makerAssetFilledAmount","type":"uint256"},{"name":"takerAssetFilledAmount","type":"uint256"},{"name":"makerFeePaid","type":"uint256"},{"name":"takerFeePaid","type":"uint256"}],"name":"totalFillResults","type":"tuple"}],"payable":false,"stateMutability":"nonpayable","type":"function","signature":"0x50dde190"},{"constant":true,"inputs":[{"name":"assetProxyId","type":"bytes4"}],"name":"getAssetProxy","outputs":[{"name":"","type":"address"}],"payable":false,"stateMutability":"view","type":"function","signature":"0x60704108"},{"constant":true,"inputs":[{"name":"","type":"bytes32"}],"name":"transactions","outputs":[{"name":"","type":"bool"}],"payable":false,"stateMutability":"view","type":"function","signature":"0x642f2eaf"},{"constant":false,"inputs":[{"components":[{"name":"makerAddress","type":"address"},{"name":"takerAddress","type":"address"},{"name":"feeRecipientAddress","type":"address"},{"name":"senderAddress","type":"address"},{"name":"makerAssetAmount","type":"uint256"},{"name":"takerAssetAmount","type":"uint256"},{"name":"makerFee","type":"uint256"},{"name":"takerFee","type":"uint256"},{"name":"expirationTimeSeconds","type":"uint256"},{"name":"salt","type":"uint256"},{"name":"makerAssetData","type":"bytes"},{"name":"takerAssetData","type":"bytes"}],"name":"order","type":"tuple"},{"name":"takerAssetFillAmount","type":"uint256"},{"name":"signature","type":"bytes"}],"name":"fillOrKillOrder","outputs":[{"components":[{"name":"makerAssetFilledAmount","type":"uint256"},{"name":"takerAssetFilledAmount","type":"uint256"},{"name":"makerFeePaid","type":"uint256"},{"name":"takerFeePaid","type":"uint256"}],"name":"fillResults","type":"tuple"}],"payable":false,"stateMutability":"nonpayable","type":"function","signature":"0x64a3bc15"},{"constant":false,"inputs":[{"name":"validatorAddress","type":"address"},{"name":"approval","type":"bool"}],"name":"setSignatureValidatorApproval","outputs":[],"payable":false,"stateMutability":"nonpayable","type":"function","signature":"0x77fcce68"},{"constant":true,"inputs":[{"name":"","type":"address"},{"name":"","type":"address"}],"name":"allowedValidators","outputs":[{"name":"","type":"bool"}],"payable":false,"stateMutability":"view","type":"function","signature":"0x7b8e3514"},{"constant":false,"inputs":[{"components":[{"name":"makerAddress","type":"address"},{"name":"takerAddress","type":"address"},{"name":"feeRecipientAddress","type":"address"},{"name":"senderAddress","type":"address"},{"name":"makerAssetAmount","type":"uint256"},{"name":"takerAssetAmount","type":"uint256"},{"name":"makerFee","type":"uint256"},{"name":"takerFee","type":"uint256"},{"name":"expirationTimeSeconds","type":"uint256"},{"name":"salt","type":"uint256"},{"name":"makerAssetData","type":"bytes"},{"name":"takerAssetData","type":"bytes"}],"name":"orders","type":"tuple[]"},{"name":"takerAssetFillAmount","type":"uint256"},{"name":"signatures","type":"bytes[]"}],"name":"marketSellOrders","outputs":[{"components":[{"name":"makerAssetFilledAmount","type":"uint256"},{"name":"takerAssetFilledAmount","type":"uint256"},{"name":"makerFeePaid","type":"uint256"},{"name":"takerFeePaid","type":"uint256"}],"name":"totalFillResults","type":"tuple"}],"payable":false,"stateMutability":"nonpayable","type":"function","signature":"0x7e1d9808"},{"constant":true,"inputs":[{"components":[{"name":"makerAddress","type":"address"},{"name":"takerAddress","type":"address"},{"name":"feeRecipientAddress","type":"address"},{"name":"senderAddress","type":"address"},{"name":"makerAssetAmount","type":"uint256"},{"name":"takerAssetAmount","type":"uint256"},{"name":"makerFee","type":"uint256"},{"name":"takerFee","type":"uint256"},{"name":"expirationTimeSeconds","type":"uint256"},{"name":"salt","type":"uint256"},{"name":"makerAssetData","type":"bytes"},{"name":"takerAssetData","type":"bytes"}],"name":"orders","type":"tuple[]"}],"name":"getOrdersInfo","outputs":[{"components":[{"name":"orderStatus","type":"uint8"},{"name":"orderHash","type":"bytes32"},{"name":"orderTakerAssetFilledAmount","type":"uint256"}],"name":"","type":"tuple[]"}],"payable":false,"stateMutability":"view","type":"function","signature":"0x7e9d74dc"},{"constant":true,"inputs":[{"name":"","type":"bytes32"},{"name":"","type":"address"}],"name":"preSigned","outputs":[{"name":"","type":"bool"}],"payable":false,"stateMutability":"view","type":"function","signature":"0x82c174d0"},{"constant":true,"inputs":[],"name":"owner","outputs":[{"name":"","type":"address"}],"payable":false,"stateMutability":"view","type":"function","signature":"0x8da5cb5b"},{"constant":true,"inputs":[{"name":"hash","type":"bytes32"},{"name":"signerAddress","type":"address"},{"name":"signature","type":"bytes"}],"name":"isValidSignature","outputs":[{"name":"isValid","type":"bool"}],"payable":false,"stateMutability":"view","type":"function","signature":"0x93634702"},{"constant":false,"inputs":[{"components":[{"name":"makerAddress","type":"address"},{"name":"takerAddress","type":"address"},{"name":"feeRecipientAddress","type":"address"},{"name":"senderAddress","type":"address"},{"name":"makerAssetAmount","type":"uint256"},{"name":"takerAssetAmount","type":"uint256"},{"name":"makerFee","type":"uint256"},{"name":"takerFee","type":"uint256"},{"name":"expirationTimeSeconds","type":"uint256"},{"name":"salt","type":"uint256"},{"name":"makerAssetData","type":"bytes"},{"name":"takerAssetData","type":"bytes"}],"name":"orders","type":"tuple[]"},{"name":"makerAssetFillAmount","type":"uint256"},{"name":"signatures","type":"bytes[]"}],"name":"marketBuyOrdersNoThrow","outputs":[{"components":[{"name":"makerAssetFilledAmount","type":"uint256"},{"name":"takerAssetFilledAmount","type":"uint256"},{"name":"makerFeePaid","type":"uint256"},{"name":"takerFeePaid","type":"uint256"}],"name":"totalFillResults","type":"tuple"}],"payable":false,"stateMutability":"nonpayable","type":"function","signature":"0xa3e20380"},{"constant":false,"inputs":[{"components":[{"name":"makerAddress","type":"address"},{"name":"takerAddress","type":"address"},{"name":"feeRecipientAddress","type":"address"},{"name":"senderAddress","type":"address"},{"name":"makerAssetAmount","type":"uint256"},{"name":"takerAssetAmount","type":"uint256"},{"name":"makerFee","type":"uint256"},{"name":"takerFee","type":"uint256"},{"name":"expirationTimeSeconds","type":"uint256"},{"name":"salt","type":"uint256"},{"name":"makerAssetData","type":"bytes"},{"name":"takerAssetData","type":"bytes"}],"name":"order","type":"tuple"},{"name":"takerAssetFillAmount","type":"uint256"},{"name":"signature","type":"bytes"}],"name":"fillOrder","outputs":[{"components":[{"name":"makerAssetFilledAmount","type":"uint256"},{"name":"takerAssetFilledAmount","type":"uint256"},{"name":"makerFeePaid","type":"uint256"},{"name":"takerFeePaid","type":"uint256"}],"name":"fillResults","type":"tuple"}],"payable":false,"stateMutability":"nonpayable","type":"function","signature":"0xb4be83d5"},{"constant":false,"inputs":[{"name":"salt","type":"uint256"},{"name":"signerAddress","type":"address"},{"name":"data","type":"bytes"},{"name":"signature","type":"bytes"}],"name":"executeTransaction","outputs":[],"payable":false,"stateMutability":"nonpayable","type":"function","signature":"0xbfc8bfce"},{"constant":false,"inputs":[{"name":"assetProxy","type":"address"}],"name":"registerAssetProxy","outputs":[],"payable":false,"stateMutability":"nonpayable","type":"function","signature":"0xc585bb93"},{"constant":true,"inputs":[{"components":[{"name":"makerAddress","type":"address"},{"name":"takerAddress","type":"address"},{"name":"feeRecipientAddress","type":"address"},{"name":"senderAddress","type":"address"},{"name":"makerAssetAmount","type":"uint256"},{"name":"takerAssetAmount","type":"uint256"},{"name":"makerFee","type":"uint256"},{"name":"takerFee","type":"uint256"},{"name":"expirationTimeSeconds","type":"uint256"},{"name":"salt","type":"uint256"},{"name":"makerAssetData","type":"bytes"},{"name":"takerAssetData","type":"bytes"}],"name":"order","type":"tuple"}],"name":"getOrderInfo","outputs":[{"components":[{"name":"orderStatus","type":"uint8"},{"name":"orderHash","type":"bytes32"},{"name":"orderTakerAssetFilledAmount","type":"uint256"}],"name":"orderInfo","type":"tuple"}],"payable":false,"stateMutability":"view","type":"function","signature":"0xc75e0a81"},{"constant":false,"inputs":[{"components":[{"name":"makerAddress","type":"address"},{"name":"takerAddress","type":"address"},{"name":"feeRecipientAddress","type":"address"},{"name":"senderAddress","type":"address"},{"name":"makerAssetAmount","type":"uint256"},{"name":"takerAssetAmount","type":"uint256"},{"name":"makerFee","type":"uint256"},{"name":"takerFee","type":"uint256"},{"name":"expirationTimeSeconds","type":"uint256"},{"name":"salt","type":"uint256"},{"name":"makerAssetData","type":"bytes"},{"name":"takerAssetData","type":"bytes"}],"name":"order","type":"tuple"}],"name":"cancelOrder","outputs":[],"payable":false,"stateMutability":"nonpayable","type":"function","signature":"0xd46b02c3"},{"constant":true,"inputs":[{"name":"","type":"address"},{"name":"","type":"address"}],"name":"orderEpoch","outputs":[{"name":"","type":"uint256"}],"payable":false,"stateMutability":"view","type":"function","signature":"0xd9bfa73e"},{"constant":true,"inputs":[],"name":"ZRX_ASSET_DATA","outputs":[{"name":"","type":"bytes"}],"payable":false,"stateMutability":"view","type":"function","signature":"0xdb123b1a"},{"constant":false,"inputs":[{"components":[{"name":"makerAddress","type":"address"},{"name":"takerAddress","type":"address"},{"name":"feeRecipientAddress","type":"address"},{"name":"senderAddress","type":"address"},{"name":"makerAssetAmount","type":"uint256"},{"name":"takerAssetAmount","type":"uint256"},{"name":"makerFee","type":"uint256"},{"name":"takerFee","type":"uint256"},{"name":"expirationTimeSeconds","type":"uint256"},{"name":"salt","type":"uint256"},{"name":"makerAssetData","type":"bytes"},{"name":"takerAssetData","type":"bytes"}],"name":"orders","type":"tuple[]"},{"name":"takerAssetFillAmount","type":"uint256"},{"name":"signatures","type":"bytes[]"}],"name":"marketSellOrdersNoThrow","outputs":[{"components":[{"name":"makerAssetFilledAmount","type":"uint256"},{"name":"takerAssetFilledAmount","type":"uint256"},{"name":"makerFeePaid","type":"uint256"},{"name":"takerFeePaid","type":"uint256"}],"name":"totalFillResults","type":"tuple"}],"payable":false,"stateMutability":"nonpayable","type":"function","signature":"0xdd1c7d18"},{"constant":true,"inputs":[],"name":"EIP712_DOMAIN_HASH","outputs":[{"name":"","type":"bytes32"}],"payable":false,"stateMutability":"view","type":"function","signature":"0xe306f779"},{"constant":false,"inputs":[{"components":[{"name":"makerAddress","type":"address"},{"name":"takerAddress","type":"address"},{"name":"feeRecipientAddress","type":"address"},{"name":"senderAddress","type":"address"},{"name":"makerAssetAmount","type":"uint256"},{"name":"takerAssetAmount","type":"uint256"},{"name":"makerFee","type":"uint256"},{"name":"takerFee","type":"uint256"},{"name":"expirationTimeSeconds","type":"uint256"},{"name":"salt","type":"uint256"},{"name":"makerAssetData","type":"bytes"},{"name":"takerAssetData","type":"bytes"}],"name":"orders","type":"tuple[]"},{"name":"makerAssetFillAmount","type":"uint256"},{"name":"signatures","type":"bytes[]"}],"name":"marketBuyOrders","outputs":[{"components":[{"name":"makerAssetFilledAmount","type":"uint256"},{"name":"takerAssetFilledAmount","type":"uint256"},{"name":"makerFeePaid","type":"uint256"},{"name":"takerFeePaid","type":"uint256"}],"name":"totalFillResults","type":"tuple"}],"payable":false,"stateMutability":"nonpayable","type":"function","signature":"0xe5fa431b"},{"constant":true,"inputs":[],"name":"currentContextAddress","outputs":[{"name":"","type":"address"}],"payable":false,"stateMutability":"view","type":"function","signature":"0xeea086ba"},{"constant":false,"inputs":[{"name":"newOwner","type":"address"}],"name":"transferOwnership","outputs":[],"payable":false,"stateMutability":"nonpayable","type":"function","signature":"0xf2fde38b"},{"constant":true,"inputs":[],"name":"VERSION","outputs":[{"name":"","type":"string"}],"payable":false,"stateMutability":"view","type":"function","signature":"0xffa1ad74"},{"inputs":[{"name":"_zrxAssetData","type":"bytes"}],"payable":false,"stateMutability":"nonpayable","type":"constructor","signature":"constructor"},{"anonymous":false,"inputs":[{"indexed":true,"name":"signerAddress","type":"address"},{"indexed":true,"name":"validatorAddress","type":"address"},{"indexed":false,"name":"approved","type":"bool"}],"name":"SignatureValidatorApproval","type":"event","signature":"0xa8656e308026eeabce8f0bc18048433252318ab80ac79da0b3d3d8697dfba891"},{"anonymous":false,"inputs":[{"indexed":true,"name":"makerAddress","type":"address"},{"indexed":true,"name":"feeRecipientAddress","type":"address"},{"indexed":false,"name":"takerAddress","type":"address"},{"indexed":false,"name":"senderAddress","type":"address"},{"indexed":false,"name":"makerAssetFilledAmount","type":"uint256"},{"indexed":false,"name":"takerAssetFilledAmount","type":"uint256"},{"indexed":false,"name":"makerFeePaid","type":"uint256"},{"indexed":false,"name":"takerFeePaid","type":"uint256"},{"indexed":true,"name":"orderHash","type":"bytes32"},{"indexed":false,"name":"makerAssetData","type":"bytes"},{"indexed":false,"name":"takerAssetData","type":"bytes"}],"name":"Fill","type":"event","signature":"0x0bcc4c97732e47d9946f229edb95f5b6323f601300e4690de719993f3c371129"},{"anonymous":false,"inputs":[{"indexed":true,"name":"makerAddress","type":"address"},{"indexed":true,"name":"feeRecipientAddress","type":"address"},{"indexed":false,"name":"senderAddress","type":"address"},{"indexed":true,"name":"orderHash","type":"bytes32"},{"indexed":false,"name":"makerAssetData","type":"bytes"},{"indexed":false,"name":"takerAssetData","type":"bytes"}],"name":"Cancel","type":"event","signature":"0xdc47b3613d9fe400085f6dbdc99453462279057e6207385042827ed6b1a62cf7"},{"anonymous":false,"inputs":[{"indexed":true,"name":"makerAddress","type":"address"},{"indexed":true,"name":"senderAddress","type":"address"},{"indexed":false,"name":"orderEpoch","type":"uint256"}],"name":"CancelUpTo","type":"event","signature":"0x82af639571738f4ebd4268fb0363d8957ebe1bbb9e78dba5ebd69eed39b154f0"},{"anonymous":false,"inputs":[{"indexed":false,"name":"id","type":"bytes4"},{"indexed":false,"name":"assetProxy","type":"address"}],"name":"AssetProxyRegistered","type":"event","signature":"0xd2c6b762299c609bdb96520b58a49bfb80186934d4f71a86a367571a15c03194"}],"bytecode":"0x60806040526000805460ff191690553480156200001b57600080fd5b5060405162004df238038062004df2833981018060405262000041919081019062000331565b805181906200005890600190602084019062000230565b5050604080517f454950373132446f6d61696e28000000000000000000000000000000000000006020808301919091527f737472696e67206e616d652c0000000000000000000000000000000000000000602d8301527f737472696e672076657273696f6e2c000000000000000000000000000000000060398301527f6164647265737320766572696679696e67436f6e74726163740000000000000060488301527f29000000000000000000000000000000000000000000000000000000000000006061830152825160428184030181526062830180855281519183019190912060a284018552600b9091527f30782050726f746f636f6c00000000000000000000000000000000000000000060829093019290925282518084018452600181527f3200000000000000000000000000000000000000000000000000000000000000908201528251808201929092527ff0f24618f4c4be1e62e026fb039a20ef96f4495294817d1027ffaa6d1f70e61e828401527fad7c5bef027816a800da1736444fb58a807ef4c9603b7848673f7e3a68eb14a56060830152306080808401919091528351808403909101815260a090920190925280519101206002555060038054600160a060020a03191633179055620003f3565b828054600181600116156101000203166002900490600052602060002090601f016020900481019282601f106200027357805160ff1916838001178555620002a3565b82800160010185558215620002a3579182015b82811115620002a357825182559160200191906001019062000286565b50620002b1929150620002b5565b5090565b620002d291905b80821115620002b15760008155600101620002bc565b90565b6000601f82018313620002e757600080fd5b8151620002fe620002f88262000398565b62000371565b915080825260208301602083018583830111156200031b57600080fd5b62000328838284620003c0565b50505092915050565b6000602082840312156200034457600080fd5b81516001604060020a038111156200035b57600080fd5b6200036984828501620002d5565b949350505050565b6040518181016001604060020a03811182821017156200039057600080fd5b604052919050565b60006001604060020a03821115620003af57600080fd5b506020601f91909101601f19160190565b60005b83811015620003dd578181015183820152602001620003c3565b83811115620003ed576000848401525b50505050565b6149ef80620004036000396000f3fe6080604052600436106101b65763ffffffff7c0100000000000000000000000000000000000000000000000000000000600035041663288cdc9181146101bb578063297bb70b146101f15780632ac126221461021e5780633683ef8e1461024b5780633c28d8611461026d5780633e228bae1461029a5780633fd3c997146102ba5780634ac14782146102e75780634d0ae546146103075780634f9559b11461032757806350dde190146103475780636070410814610367578063642f2eaf1461039457806364a3bc15146103b457806377fcce68146103d45780637b8e3514146103f45780637e1d9808146104145780637e9d74dc1461043457806382c174d0146104615780638da5cb5b146104815780639363470214610496578063a3e20380146104b6578063b4be83d5146104d6578063bfc8bfce146104f6578063c585bb9314610516578063c75e0a8114610536578063d46b02c314610563578063d9bfa73e14610583578063db123b1a146105a3578063dd1c7d18146105c5578063e306f779146105e5578063e5fa431b146105fa578063eea086ba1461061a578063f2fde38b1461062f578063ffa1ad741461064f575b600080fd5b3480156101c757600080fd5b506101db6101d63660046139b7565b610664565b6040516101e891906145e5565b60405180910390f35b3480156101fd57600080fd5b5061021161020c3660046138da565b610676565b6040516101e8919061488a565b34801561022a57600080fd5b5061023e6102393660046139b7565b610745565b6040516101e891906145d7565b34801561025757600080fd5b5061026b6102663660046139f4565b61075a565b005b34801561027957600080fd5b5061028d610288366004613b28565b6107fe565b6040516101e89190614898565b3480156102a657600080fd5b506102116102b5366004613be8565b610943565b3480156102c657600080fd5b506102da6102d5366004613ab7565b610999565b6040516101e8919061466c565b3480156102f357600080fd5b5061026b6103023660046138a5565b6109b4565b34801561031357600080fd5b506102116103223660046138da565b610a29565b34801561033357600080fd5b5061026b6103423660046139b7565b610adc565b34801561035357600080fd5b506102116103623660046138da565b610bf8565b34801561037357600080fd5b50610387610382366004613ab7565b610c79565b6040516101e891906144f7565b3480156103a057600080fd5b5061023e6103af3660046139b7565b610ca2565b3480156103c057600080fd5b506102116103cf366004613be8565b610cb7565b3480156103e057600080fd5b5061026b6103ef366004613875565b610d0f565b34801561040057600080fd5b5061023e61040f36600461383b565b610dca565b34801561042057600080fd5b5061021161042f36600461396e565b610dea565b34801561044057600080fd5b5061045461044f3660046138a5565b610ef3565b6040516101e891906145c6565b34801561046d57600080fd5b5061023e61047c3660046139d5565b610f8c565b34801561048d57600080fd5b50610387610fac565b3480156104a257600080fd5b5061023e6104b1366004613a5c565b610fbb565b3480156104c257600080fd5b506102116104d136600461396e565b6113e3565b3480156104e257600080fd5b506102116104f1366004613be8565b6114f2565b34801561050257600080fd5b5061026b610511366004613c31565b611538565b34801561052257600080fd5b5061026b61053136600461381d565b611754565b34801561054257600080fd5b50610556610551366004613af3565b6118db565b6040516101e891906148a7565b34801561056f57600080fd5b5061026b61057e366004613af3565b6119c8565b34801561058f57600080fd5b506101db61059e36600461383b565b611a11565b3480156105af57600080fd5b506105b8611a2e565b6040516101e8919061465b565b3480156105d157600080fd5b506102116105e036600461396e565b611abb565b3480156105f157600080fd5b506101db611b7f565b34801561060657600080fd5b5061021161061536600461396e565b611b85565b34801561062657600080fd5b50610387611c8b565b34801561063b57600080fd5b5061026b61064a36600461381d565b611c9a565b34801561065b57600080fd5b506105b8611d02565b60046020526000908152604090205481565b61067e61344f565b60005460ff16156106ad5760405160e560020a62461bcd0281526004016106a49061480a565b60405180910390fd5b6000805460ff191660011781558451905b808214610732576106cd61344f565b61071d87838151811015156106de57fe5b9060200190602002015187848151811015156106f657fe5b90602001906020020151878581518110151561070e57fe5b90602001906020020151611d39565b90506107298482611dd8565b506001016106be565b50506000805460ff191690559392505050565b60056020526000908152604090205460ff1681565b600160a060020a03831633146107cc576107ab848484848080601f016020809104026020016040519081016040528093929190818152602001838380828437600092019190915250610fbb92505050565b15156107cc5760405160e560020a62461bcd0281526004016106a49061473a565b50506000918252600760209081526040808420600160a060020a0390931684529190529020805460ff19166001179055565b610806613478565b60005460ff161561082c5760405160e560020a62461bcd0281526004016106a49061480a565b6000805460ff191660011790556101608086015161014080870191909152860151908501526108596134a7565b610862866118db565b905061086c6134a7565b610875866118db565b90506000610881611e3a565b905061088f88848389611e5f565b61089b87838388611e5f565b6108a58888611f5a565b6108b9888885604001518560400151611fa3565b8051602081015190519195506108d4918a918691819061212c565b6020808501519081015190516108f0918991859190819061212c565b61090988828560200151866040015188600001516121e9565b61092287828460200151856040015188602001516121e9565b61092e88888387612291565b5050506000805460ff19169055949350505050565b61094b61344f565b6060610958858585612431565b9050608081825160208401305af4801561098f57815183526020820151602084015260408201516040840152606082015160608401525b50505b9392505050565b600b60205260009081526040902054600160a060020a031681565b60005460ff16156109da5760405160e560020a62461bcd0281526004016106a49061480a565b6000805460ff191660011781558151905b808214610a1a57610a128382815181101515610a0357fe5b906020019060200201516125e5565b6001016109eb565b50506000805460ff1916905550565b610a3161344f565b60005460ff1615610a575760405160e560020a62461bcd0281526004016106a49061480a565b6000805460ff191660011781558451905b80821461073257610a7761344f565b610ac78783815181101515610a8857fe5b906020019060200201518784815181101515610aa057fe5b906020019060200201518785815181101515610ab857fe5b90602001906020020151612610565b9050610ad38482611dd8565b50600101610a68565b60005460ff1615610b025760405160e560020a62461bcd0281526004016106a49061480a565b6000805460ff19166001178155610b17611e3a565b90506000600160a060020a0382163314610b315733610b34565b60005b600160a060020a038084166000908152600660209081526040808320938516835292905220549091506001840190808211610b845760405160e560020a62461bcd0281526004016106a4906147ca565b600160a060020a0380851660008181526006602090815260408083209488168084529490915290819020859055517f82af639571738f4ebd4268fb0363d8957ebe1bbb9e78dba5ebd69eed39b154f090610bdf9086906145e5565b60405180910390a350506000805460ff19169055505050565b610c0061344f565b835160005b80821461098f57610c1461344f565b610c648783815181101515610c2557fe5b906020019060200201518784815181101515610c3d57fe5b906020019060200201518785815181101515610c5557fe5b90602001906020020151610943565b9050610c708482611dd8565b50600101610c05565b600160e060020a031981166000908152600b6020526040902054600160a060020a03165b919050565b60096020526000908152604090205460ff1681565b610cbf61344f565b60005460ff1615610ce55760405160e560020a62461bcd0281526004016106a49061480a565b6000805460ff19166001179055610cfd848484612610565b6000805460ff19169055949350505050565b60005460ff1615610d355760405160e560020a62461bcd0281526004016106a49061480a565b6000805460ff19166001178155610d4a611e3a565b600160a060020a0381811660008181526008602090815260408083209489168084529490915290819020805460ff19168715151790555192935090917fa8656e308026eeabce8f0bc18048433252318ab80ac79da0b3d3d8697dfba89190610db39086906145d7565b60405180910390a350506000805460ff1916905550565b600860209081526000928352604080842090915290825290205460ff1681565b610df261344f565b60005460ff1615610e185760405160e560020a62461bcd0281526004016106a49061480a565b6000805460ff19166001178155845160609186918110610e3457fe5b602090810290910101516101600151855190915060005b808214610edf57828782815181101515610e6157fe5b9060200190602002015161016001819052506000610e8387866020015161264c565b9050610e8d61344f565b610eb78984815181101515610e9e57fe5b9060200190602002015183898681518110151561070e57fe5b9050610ec38682611dd8565b60208601518811610ed5575050610edf565b5050600101610e4b565b5050506000805460ff191690559392505050565b6060600082519050606081604051908082528060200260200182016040528015610f3757816020015b610f246134a7565b815260200190600190039081610f1c5790505b50905060005b808314610f8457610f648582815181101515610f5557fe5b906020019060200201516118db565b8282815181101515610f7257fe5b60209081029091010152600101610f3d565b509392505050565b600760209081526000928352604080842090915290825290205460ff1681565b600354600160a060020a031681565b6000808251111515610fe25760405160e560020a62461bcd0281526004016106a4906147ba565b6000610fed8361267c565b60f860020a90049050600760ff82161061101c5760405160e560020a62461bcd0281526004016106a4906146da565b60008160ff16600781111561102d57fe5b905060008080808085600781111561104157fe5b14156110625760405160e560020a62461bcd0281526004016106a4906147aa565b600185600781111561107057fe5b14156110a8578751156110985760405160e560020a62461bcd0281526004016106a49061487a565b5060009550610992945050505050565b60028560078111156110b657fe5b14156111ac5787516041146110e05760405160e560020a62461bcd0281526004016106a49061467a565b8760008151811015156110ef57fe5b016020015160f860020a90819004810204935061111388600163ffffffff6126d116565b925061112688602163ffffffff6126d116565b915060018a85858560405160008152602001604052604051808581526020018460ff1660ff1681526020018381526020018281526020019450505050506020604051602081039080840390855afa158015611185573d6000803e3d6000fd5b5050604051601f190151600160a060020a038b811691161497506109929650505050505050565b60038560078111156111ba57fe5b14156112d75787516041146111e45760405160e560020a62461bcd0281526004016106a49061467a565b8760008151811015156111f357fe5b016020015160f860020a90819004810204935061121788600163ffffffff6126d116565b925061122a88602163ffffffff6126d116565b915060018a60405160200180807f19457468657265756d205369676e6564204d6573736167653a0a333200000000815250601c018281526020019150506040516020818303038152906040528051906020012085858560405160008152602001604052604051808581526020018460ff1660ff1681526020018381526020018281526020019450505050506020604051602081039080840390855afa158015611185573d6000803e3d6000fd5b60048560078111156112e557fe5b1415611304576112f68a8a8a612705565b965061099295505050505050565b600585600781111561131257fe5b14156113805760006113238961280d565b600160a060020a03808c1660009081526008602090815260408083209385168352929052205490915060ff161515611365576000975050505050505050610992565b611371818c8c8c612851565b97506109929650505050505050565b600685600781111561138e57fe5b14156113c8575050506000878152600760209081526040808320600160a060020a038a16845290915290205460ff16935061099292505050565b60405160e560020a62461bcd0281526004016106a4906146da565b6113eb61344f565b60608460008151811015156113fc57fe5b602090810290910101516101400151855190915060005b8082146114e85782878281518110151561142957fe5b602090810290910101516101400152835160009061144890889061264c565b9050600061148d898481518110151561145d57fe5b9060200190602002015160a001518a8581518110151561147957fe5b906020019060200201516080015184612960565b905061149761344f565b6114c18a858151811015156114a857fe5b90602001906020020151838a87815181101515610c5557fe5b90506114cd8782611dd8565b865189116114dd575050506114e8565b505050600101611413565b5050509392505050565b6114fa61344f565b60005460ff16156115205760405160e560020a62461bcd0281526004016106a49061480a565b6000805460ff19166001179055610cfd848484611d39565b600a54600160a060020a0316156115645760405160e560020a62461bcd0281526004016106a49061480a565b60006115af6115aa888888888080601f01602080910402602001604051908101604052809392919081815260200183838082843760009201919091525061299f92505050565b612aad565b60008181526009602052604090205490915060ff16156115e45760405160e560020a62461bcd0281526004016106a49061472a565b600160a060020a038616331461167f57611635818785858080601f016020809104026020016040519081016040528093929190818152602001838380828437600092019190915250610fbb92505050565b15156116565760405160e560020a62461bcd0281526004016106a49061486a565b600a805473ffffffffffffffffffffffffffffffffffffffff1916600160a060020a0388161790555b600081815260096020526040808220805460ff19166001179055516060903090889088908083838082843760405192019450600093509091505080830381855af49150503d80600081146116ef576040519150601f19603f3d011682016040523d82523d6000602084013e6116f4565b606091505b509150915081151561171b5760405160e560020a62461bcd0281526004016106a49061475a565b600160a060020a038816331461174957600a805473ffffffffffffffffffffffffffffffffffffffff191690555b505050505050505050565b600354600160a060020a031633146117815760405160e560020a62461bcd0281526004016106a49061481a565b6000819050600081600160a060020a031663ae25532e6040518163ffffffff167c010000000000000000000000000000000000000000000000000000000002815260040160206040518083038186803b1580156117dd57600080fd5b505afa1580156117f1573d6000803e3d6000fd5b505050506040513d601f19601f820116820180604052506118159190810190613ad5565b600160e060020a031981166000908152600b6020526040902054909150600160a060020a0316801561185c5760405160e560020a62461bcd0281526004016106a4906146ba565b600160e060020a031982166000908152600b602052604090819020805473ffffffffffffffffffffffffffffffffffffffff1916600160a060020a038616179055517fd2c6b762299c609bdb96520b58a49bfb80186934d4f71a86a367571a15c03194906118cd9084908790614640565b60405180910390a150505050565b6118e36134a7565b6118ec82612aea565b60208083018290526000918252600490526040908190205490820152608082015115156119205760015b60ff168152610c9d565b60a08201511515611932576002611916565b60a0820151604082015110611948576005611916565b610100820151421061195b576004611916565b60208082015160009081526005909152604090205460ff161561197f576006611916565b6101208201518251600160a060020a03908116600090815260066020908152604080832060608801519094168352929052205411156119bf576006611916565b60038152919050565b60005460ff16156119ee5760405160e560020a62461bcd0281526004016106a49061480a565b6000805460ff19166001179055611a04816125e5565b506000805460ff19169055565b600660209081526000928352604080842090915290825290205481565b60018054604080516020600284861615610100026000190190941693909304601f81018490048402820184019092528181529291830182828015611ab35780601f10611a8857610100808354040283529160200191611ab3565b820191906000526020600020905b815481529060010190602001808311611a9657829003601f168201915b505050505081565b611ac361344f565b6060846000815181101515611ad457fe5b602090810290910101516101600151855190915060005b8082146114e857828782815181101515611b0157fe5b9060200190602002015161016001819052506000611b2387866020015161264c565b9050611b2d61344f565b611b578984815181101515611b3e57fe5b90602001906020020151838986815181101515610c5557fe5b9050611b638682611dd8565b60208601518811611b755750506114e8565b5050600101611aeb565b60025481565b611b8d61344f565b60005460ff1615611bb35760405160e560020a62461bcd0281526004016106a49061480a565b6000805460ff19166001178155845160609186918110611bcf57fe5b602090810290910101516101400151855190915060005b808214610edf57828782815181101515611bfc57fe5b6020908102909101015161014001528351600090611c1b90889061264c565b90506000611c30898481518110151561145d57fe5b9050611c3a61344f565b611c648a85815181101515611c4b57fe5b90602001906020020151838a8781518110151561070e57fe5b9050611c708782611dd8565b86518911611c8057505050610edf565b505050600101611be6565b600a54600160a060020a031681565b600354600160a060020a03163314611cc75760405160e560020a62461bcd0281526004016106a49061481a565b600160a060020a03811615611cff576003805473ffffffffffffffffffffffffffffffffffffffff1916600160a060020a0383161790555b50565b60408051808201909152600b81527f322e302e312d616c706861000000000000000000000000000000000000000000602082015281565b611d4161344f565b611d496134a7565b611d52856118db565b90506000611d5e611e3a565b9050611d6c86838387611e5f565b6000611d808760a00151846040015161264c565b90506000611d8e8783612af8565b9050611da188858984896000015161212c565b611dab8882612b0e565b9450611dc2888486602001518760400151896121e9565b611dcd888487612b6f565b505050509392505050565b81518151611de69190612c5f565b825260208083015190820151611dfc9190612c5f565b602083015260408083015190820151611e159190612c5f565b604083015260608083015190820151611e2e9190612c5f565b60609092019190915250565b600a54600090600160a060020a0316818115611e565781611e58565b335b9250505090565b825160ff16600314611e865760405160e560020a62461bcd0281526004016106a49061483a565b6060840151600160a060020a031615611ec8576060840151600160a060020a03163314611ec85760405160e560020a62461bcd0281526004016106a49061484a565b6020840151600160a060020a031615611f155781600160a060020a03168460200151600160a060020a0316141515611f155760405160e560020a62461bcd0281526004016106a49061468a565b60408301511515611f5457611f338360200151856000015183610fbb565b1515611f545760405160e560020a62461bcd0281526004016106a4906146fa565b50505050565b611f6c8260a001518260a00151612c87565b611f7e83608001518360800151612c87565b1015611f9f5760405160e560020a62461bcd0281526004016106a49061485a565b5050565b611fab613478565b6000611fbb8660a001518561264c565b90506000611fd287608001518860a0015184612cc8565b90506000611fe48760a001518661264c565b90506000611ffb88608001518960a0015184612cc8565b905080841061203e5760208086018051839052805182018490525151865182015260808a015160a08b01518751909201516120369290612cc8565b85515261207b565b845183905284516020908101859052855181015190860180519190915260a089015160808a01519151516120729290612d17565b60208087015101525b8451516020808701510151612090919061264c565b604086015284515160808a015160c08b01516120ad929190612cc8565b85516040015284516020015160a08a015160e08b01516120ce929190612cc8565b855160600152602085015151608089015160c08a01516120ef929190612cc8565b856020015160400181815250506121178560200151602001518960a001518a60e00151612cc8565b60208601516060015250505050949350505050565b82151561214e5760405160e560020a62461bcd0281526004016106a49061477a565b828211156121715760405160e560020a62461bcd0281526004016106a49061476a565b8460a00151612184856040015184612c5f565b11156121a55760405160e560020a62461bcd0281526004016106a49061469a565b6121b3856080015183612c87565b6121c1828760a00151612c87565b11156121e25760405160e560020a62461bcd0281526004016106a4906147fa565b5050505050565b6121f7828260200151612c5f565b6004600085815260200190815260200160002081905550828560400151600160a060020a03168660000151600160a060020a03167f0bcc4c97732e47d9946f229edb95f5b6323f601300e4690de719993f3c371129873386600001518760200151886040015189606001518e61014001518f6101600151604051612282989796959493929190614542565b60405180910390a45050505050565b60018054604080516020601f6002600019610100878916150201909516949094049384018190048102820181019092528281526060939092909183018282801561231c5780601f106122f15761010080835404028352916020019161231c565b820191906000526020600020905b8154815290600101906020018083116122ff57829003601f168201915b5050505050905061234485610140015186600001518660000151856020015160200151612d86565b6101408401518451865184516020015161236093929190612d86565b6123798561014001518660000151858560400151612d86565b6123958186600001518760400151856000015160400151612d86565b6123b18185600001518660400151856020015160400151612d86565b8360400151600160a060020a03168560400151600160a060020a03161415612401576123fc818487604001516123f7866000015160600151876020015160600151612c5f565b612d86565b6121e2565b61241981848760400151856000015160600151612d86565b6121e281848660400151856020015160600151612d86565b604080517fb4be83d5000000000000000000000000000000000000000000000000000000006020808301919091526060602483018181528751608485019081528884015160a48601529488015160c48501529087015160e4840152608087015161010484015260a087015161012484015260c087015161014484015260e08701516101648401526101008701516101848401526101208701516101a4840152610140870180516101c485019081526101608901516101e4860152610180905251805161020485018190529394919384936044870192849261022489019291820191601f82010460005b8181101561253857835185526020948501949093019260010161251a565b50505050818103610160808401919091528a0151805180835260209283019291820191601f82010460005b81811015612581578351855260209485019490930192600101612563565b50505089845250848103602093840190815288518083529093918201918981019190601f82010460005b818110156125c95783518552602094850194909301926001016125ab565b505050601f198883030188525060405250505050509392505050565b6125ed6134a7565b6125f6826118db565b90506126028282612ec3565b611f9f828260200151612f6d565b61261861344f565b612623848484611d39565b602081015190915083146109925760405160e560020a62461bcd0281526004016106a4906147ea565b6000828211156126715760405160e560020a62461bcd0281526004016106a4906146aa565b508082035b92915050565b60008082511115156126a35760405160e560020a62461bcd0281526004016106a49061479a565b8151829060001981019081106126b557fe5b01602001518251600019019092525060f860020a908190040290565b6000816020018351101515156126fc5760405160e560020a62461bcd0281526004016106a4906146ca565b50016020015190565b6040516000906060907f1626ba7e00000000000000000000000000000000000000000000000000000000906127409087908690602401614620565b60408051601f19818403018152919052602080820180517bffffffffffffffffffffffffffffffffffffffffffffffffffffffff16600160e060020a0319909416939093178352815191935090829081885afa8080156127a7576001811461280157611dcd565b60e560020a62461bcd026000527c20000000000000000000000000000000000000000000000000000000006020527c0c57414c4c45545f4552524f5200000000000000000000000000000000604052600060605260646000fd5b50505195945050505050565b600060148251101515156128365760405160e560020a62461bcd0281526004016106a49061482a565b612844826014845103612fe9565b8251601319019092525090565b6040516000906060907f93634702000000000000000000000000000000000000000000000000000000009061288e908790879087906024016145f3565b60408051601f19818403018152919052602080820180517bffffffffffffffffffffffffffffffffffffffffffffffffffffffff16600160e060020a03199094169390931783528151919350908290818a5afa8080156128f5576001811461294f57612954565b60e560020a62461bcd026000527c20000000000000000000000000000000000000000000000000000000006020527c0f56414c494441544f525f4552524f5200000000000000000000000000604052600060605260646000fd5b825194505b50505050949350505050565b60008083116129845760405160e560020a62461bcd0281526004016106a4906146ea565b6129976129918584612c87565b84613026565b949350505050565b604080517f5a65726f45785472616e73616374696f6e2800000000000000000000000000006020808301919091527f75696e743235362073616c742c0000000000000000000000000000000000000060328301527f61646472657373207369676e6572416464726573732c00000000000000000000603f8301527f627974657320646174610000000000000000000000000000000000000000000060558301527f2900000000000000000000000000000000000000000000000000000000000000605f830152825180830384018152606083019384905280519082012084519490910193909320928252608080820195909552600160a060020a039390931660a084015260c0909201522090565b600280546040517f190100000000000000000000000000000000000000000000000000000000000081529182015260228101919091526042902090565b60006126766115aa8361303d565b6000818310612b075781610992565b5090919050565b612b1661344f565b6020810182905260a08301516080840151612b32918491612cc8565b808252608084015160c0850151612b4a929190612cc8565b604082015260a083015160e0840151612b64918491612cc8565b606082015292915050565b60018054604080516020601f60026000196101008789161502019095169490940493840181900481028201810190925282815260609390929091830182828015612bfa5780601f10612bcf57610100808354040283529160200191612bfa565b820191906000526020600020905b815481529060010190602001808311612bdd57829003601f168201915b50505050509050612c1a8461014001518560000151858560000151612d86565b612c338461016001518486600001518560200151612d86565b612c4b81856000015186604001518560400151612d86565b611f54818486604001518560600151612d86565b6000828201838110156109925760405160e560020a62461bcd0281526004016106a49061471a565b6000821515612c9857506000612676565b828202828482811515612ca757fe5b04146109925760405160e560020a62461bcd0281526004016106a49061471a565b6000808311612cec5760405160e560020a62461bcd0281526004016106a4906146ea565b612cf7848484613373565b156129845760405160e560020a62461bcd0281526004016106a49061474a565b6000808311612d3b5760405160e560020a62461bcd0281526004016106a4906146ea565b612d468484846133e1565b15612d665760405160e560020a62461bcd0281526004016106a49061474a565b612997612991612d768685612c87565b612d8186600161264c565b612c5f565b600081118015612da8575081600160a060020a031683600160a060020a031614155b15611f54578351600310612dd15760405160e560020a62461bcd0281526004016106a4906147da565b602084810151600160e060020a0319166000818152600b909252604090912054600160a060020a0316801515612e1c5760405160e560020a62461bcd0281526004016106a49061478a565b604051660fffffffffffe0603f885101168060840182017fa85e59e400000000000000000000000000000000000000000000000000000000835260806004840152600160a060020a0388166024840152600160a060020a0387166044840152856064840152608483015b81811015612e9e57895181526020998a019901612e86565b61020084858403866000895af1801515612eb6573d85fd5b5050505050505050505050565b805160ff16600314612eea5760405160e560020a62461bcd0281526004016106a49061483a565b6060820151600160a060020a031615612f2c576060820151600160a060020a03163314612f2c5760405160e560020a62461bcd0281526004016106a49061484a565b6000612f36611e3a565b8351909150600160a060020a03808316911614612f685760405160e560020a62461bcd0281526004016106a49061470a565b505050565b60008181526005602052604090819020805460ff1916600117905582810151835161014085015161016086015193518594600160a060020a039485169493909316927fdc47b3613d9fe400085f6dbdc99453462279057e6207385042827ed6b1a62cf792612fdd92339290614505565b60405180910390a45050565b6000816014018351101515156130145760405160e560020a62461bcd0281526004016106a49061482a565b500160140151600160a060020a031690565b600080828481151561303457fe5b04949350505050565b604080517f4f726465722800000000000000000000000000000000000000000000000000006020808301919091527f61646472657373206d616b6572416464726573732c000000000000000000000060268301527f616464726573732074616b6572416464726573732c0000000000000000000000603b8301527f6164647265737320666565526563697069656e74416464726573732c0000000060508301527f616464726573732073656e646572416464726573732c00000000000000000000606c8301527f75696e74323536206d616b65724173736574416d6f756e742c0000000000000060828301527f75696e743235362074616b65724173736574416d6f756e742c00000000000000609b8301527f75696e74323536206d616b65724665652c00000000000000000000000000000060b48301527f75696e743235362074616b65724665652c00000000000000000000000000000060c58301527f75696e743235362065787069726174696f6e54696d655365636f6e64732c000060d68301527f75696e743235362073616c742c0000000000000000000000000000000000000060f48301527f6279746573206d616b65724173736574446174612c00000000000000000000006101018301527f62797465732074616b65724173736574446174610000000000000000000000006101168301527f290000000000000000000000000000000000000000000000000000000000000061012a830152825161010b81840301815261012b909201928390528151918101919091206101408401518051600094929385939182918401908083835b602083106132b25780518252601f199092019160209182019101613293565b51815160209384036101000a60001901801990921691161790526040519190930181900381206101608a0151805191975060009650945090928392508401908083835b602083106133145780518252601f1990920191602091820191016132f5565b5181516020939093036101000a60001901801990911692169190911790526040519201829003909120601f19890180516101408b018051610160909c0180519a84529881529288526101a0822091529890525050509190525090919050565b60008083116133975760405160e560020a62461bcd0281526004016106a4906146ea565b8115806133a2575083155b156133af57506000610992565b6000838015156133bb57fe5b85840990506133ca8584612c87565b6133d66103e883612c87565b101595945050505050565b60008083116134055760405160e560020a62461bcd0281526004016106a4906146ea565b811580613410575083155b1561341d57506000610992565b60008380151561342957fe5b858409905083613439858361264c565b81151561344257fe5b0690506133ca8584612c87565b608060405190810160405280600081526020016000815260200160008152602001600081525090565b6101206040519081016040528061348d61344f565b815260200161349a61344f565b8152602001600081525090565b604080516060810182526000808252602082018190529181019190915290565b6000610992823561492f565b6000601f820183136134e457600080fd5b81356134f76134f2826148dc565b6148b5565b81815260209384019390925082018360005b83811015613535578135860161351f8882613685565b8452506020928301929190910190600101613509565b5050505092915050565b6000601f8201831361355057600080fd5b813561355e6134f2826148dc565b81815260209384019390925082018360005b83811015613535578135860161358688826136d4565b8452506020928301929190910190600101613570565b6000601f820183136135ad57600080fd5b81356135bb6134f2826148dc565b915081818352602084019350602081019050838560208402820111156135e057600080fd5b60005b8381101561353557816135f68882613618565b84525060209283019291909101906001016135e3565b6000610992823561493a565b6000610992823561493f565b60006109928235614942565b60006109928251614942565b600080601f8301841361364e57600080fd5b50813567ffffffffffffffff81111561366657600080fd5b60208301915083600182028301111561367e57600080fd5b9250929050565b6000601f8201831361369657600080fd5b81356136a46134f2826148fd565b915080825260208301602083018583830111156136c057600080fd5b6136cb838284614973565b50505092915050565b600061018082840312156136e757600080fd5b6136f26101806148b5565b9050600061370084846134c7565b8252506020613711848483016134c7565b6020830152506040613725848285016134c7565b6040830152506060613739848285016134c7565b606083015250608061374d84828501613618565b60808301525060a061376184828501613618565b60a08301525060c061377584828501613618565b60c08301525060e061378984828501613618565b60e08301525061010061379e84828501613618565b610100830152506101206137b484828501613618565b6101208301525061014082013567ffffffffffffffff8111156137d657600080fd5b6137e284828501613685565b6101408301525061016082013567ffffffffffffffff81111561380457600080fd5b61381084828501613685565b6101608301525092915050565b60006020828403121561382f57600080fd5b600061299784846134c7565b6000806040838503121561384e57600080fd5b600061385a85856134c7565b925050602061386b858286016134c7565b9150509250929050565b6000806040838503121561388857600080fd5b600061389485856134c7565b925050602061386b8582860161360c565b6000602082840312156138b757600080fd5b813567ffffffffffffffff8111156138ce57600080fd5b6129978482850161353f565b6000806000606084860312156138ef57600080fd5b833567ffffffffffffffff81111561390657600080fd5b6139128682870161353f565b935050602084013567ffffffffffffffff81111561392f57600080fd5b61393b8682870161359c565b925050604084013567ffffffffffffffff81111561395857600080fd5b613964868287016134d3565b9150509250925092565b60008060006060848603121561398357600080fd5b833567ffffffffffffffff81111561399a57600080fd5b6139a68682870161353f565b935050602061393b86828701613618565b6000602082840312156139c957600080fd5b60006129978484613618565b600080604083850312156139e857600080fd5b600061385a8585613618565b60008060008060608587031215613a0a57600080fd5b6000613a168787613618565b9450506020613a27878288016134c7565b935050604085013567ffffffffffffffff811115613a4457600080fd5b613a508782880161363c565b95989497509550505050565b600080600060608486031215613a7157600080fd5b6000613a7d8686613618565b9350506020613a8e868287016134c7565b925050604084013567ffffffffffffffff811115613aab57600080fd5b61396486828701613685565b600060208284031215613ac957600080fd5b60006129978484613624565b600060208284031215613ae757600080fd5b60006129978484613630565b600060208284031215613b0557600080fd5b813567ffffffffffffffff811115613b1c57600080fd5b612997848285016136d4565b60008060008060808587031215613b3e57600080fd5b843567ffffffffffffffff811115613b5557600080fd5b613b61878288016136d4565b945050602085013567ffffffffffffffff811115613b7e57600080fd5b613b8a878288016136d4565b935050604085013567ffffffffffffffff811115613ba757600080fd5b613bb387828801613685565b925050606085013567ffffffffffffffff811115613bd057600080fd5b613bdc87828801613685565b91505092959194509250565b600080600060608486031215613bfd57600080fd5b833567ffffffffffffffff811115613c1457600080fd5b613c20868287016136d4565b9350506020613a8e86828701613618565b60008060008060008060808789031215613c4a57600080fd5b6000613c568989613618565b9650506020613c6789828a016134c7565b955050604087013567ffffffffffffffff811115613c8457600080fd5b613c9089828a0161363c565b9450945050606087013567ffffffffffffffff811115613caf57600080fd5b613cbb89828a0161363c565b92509250509295509295509295565b613cd381614961565b82525050565b613cd38161492f565b6000613ced8261492b565b808452602084019350613cff83614925565b60005b82811015613d2f57613d158683516144b7565b613d1e82614925565b606096909601959150600101613d02565b5093949350505050565b613cd38161493a565b613cd38161493f565b613cd381614942565b6000613d5f8261492b565b808452613d7381602086016020860161497f565b613d7c816149ab565b9093016020019392505050565b613cd381614968565b601281527f4c454e4754485f36355f52455155495245440000000000000000000000000000602082015260400190565b600d81527f494e56414c49445f54414b455200000000000000000000000000000000000000602082015260400190565b600e81527f4f524445525f4f56455246494c4c000000000000000000000000000000000000602082015260400190565b601181527f55494e543235365f554e444552464c4f57000000000000000000000000000000602082015260400190565b601a81527f41535345545f50524f58595f414c52454144595f455849535453000000000000602082015260400190565b602681527f475245415445525f4f525f455155414c5f544f5f33325f4c454e4754485f524560208201527f5155495245440000000000000000000000000000000000000000000000000000604082015260600190565b601581527f5349474e41545552455f554e535550504f525445440000000000000000000000602082015260400190565b601081527f4449564953494f4e5f42595f5a45524f00000000000000000000000000000000602082015260400190565b601781527f494e56414c49445f4f524445525f5349474e4154555245000000000000000000602082015260400190565b600d81527f494e56414c49445f4d414b455200000000000000000000000000000000000000602082015260400190565b601081527f55494e543235365f4f564552464c4f5700000000000000000000000000000000602082015260400190565b600f81527f494e56414c49445f54585f484153480000000000000000000000000000000000602082015260400190565b601181527f494e56414c49445f5349474e4154555245000000000000000000000000000000602082015260400190565b600e81527f524f554e44494e475f4552524f52000000000000000000000000000000000000602082015260400190565b601081527f4641494c45445f455845435554494f4e00000000000000000000000000000000602082015260400190565b600d81527f54414b45525f4f56455250415900000000000000000000000000000000000000602082015260400190565b601481527f494e56414c49445f54414b45525f414d4f554e54000000000000000000000000602082015260400190565b601a81527f41535345545f50524f58595f444f45535f4e4f545f4558495354000000000000602082015260400190565b602181527f475245415445525f5448414e5f5a45524f5f4c454e4754485f5245515549524560208201527f4400000000000000000000000000000000000000000000000000000000000000604082015260600190565b601181527f5349474e41545552455f494c4c4547414c000000000000000000000000000000602082015260400190565b601e81527f4c454e4754485f475245415445525f5448414e5f305f52455155495245440000602082015260400190565b601781527f494e56414c49445f4e45575f4f524445525f45504f4348000000000000000000602082015260400190565b601e81527f4c454e4754485f475245415445525f5448414e5f335f52455155495245440000602082015260400190565b601481527f434f4d504c4554455f46494c4c5f4641494c4544000000000000000000000000602082015260400190565b601281527f494e56414c49445f46494c4c5f50524943450000000000000000000000000000602082015260400190565b601281527f5245454e5452414e43595f494c4c4547414c0000000000000000000000000000602082015260400190565b601381527f4f4e4c595f434f4e54524143545f4f574e455200000000000000000000000000602082015260400190565b602681527f475245415445525f4f525f455155414c5f544f5f32305f4c454e4754485f524560208201527f5155495245440000000000000000000000000000000000000000000000000000604082015260600190565b601081527f4f524445525f554e46494c4c41424c4500000000000000000000000000000000602082015260400190565b600e81527f494e56414c49445f53454e444552000000000000000000000000000000000000602082015260400190565b601881527f4e454741544956455f5350524541445f52455155495245440000000000000000602082015260400190565b601481527f494e56414c49445f54585f5349474e4154555245000000000000000000000000602082015260400190565b601181527f4c454e4754485f305f5245515549524544000000000000000000000000000000602082015260400190565b805160808301906144458482613d42565b5060208201516144586020850182613d42565b50604082015161446b6040850182613d42565b506060820151611f546060850182613d42565b80516101208301906144908482614434565b5060208201516144a36080850182614434565b506040820151611f54610100850182613d42565b805160608301906144c884826144ee565b5060208201516144db6020850182613d42565b506040820151611f546040850182613d42565b613cd38161495b565b602081016126768284613cd9565b606081016145138286613cca565b81810360208301526145258185613d54565b905081810360408301526145398184613d54565b95945050505050565b6101008101614551828b613cd9565b61455e602083018a613cca565b61456b6040830189613d42565b6145786060830188613d42565b6145856080830187613d42565b61459260a0830186613d42565b81810360c08301526145a48185613d54565b905081810360e08301526145b88184613d54565b9a9950505050505050505050565b602080825281016109928184613ce2565b602081016126768284613d39565b602081016126768284613d42565b606081016146018286613d42565b61460e6020830185613cd9565b81810360408301526145398184613d54565b6040810161462e8285613d42565b81810360208301526129978184613d54565b6040810161464e8285613d4b565b6109926020830184613cd9565b602080825281016109928184613d54565b602081016126768284613d89565b6020808252810161267681613d92565b6020808252810161267681613dc2565b6020808252810161267681613df2565b6020808252810161267681613e22565b6020808252810161267681613e52565b6020808252810161267681613e82565b6020808252810161267681613ed8565b6020808252810161267681613f08565b6020808252810161267681613f38565b6020808252810161267681613f68565b6020808252810161267681613f98565b6020808252810161267681613fc8565b6020808252810161267681613ff8565b6020808252810161267681614028565b6020808252810161267681614058565b6020808252810161267681614088565b60208082528101612676816140b8565b60208082528101612676816140e8565b6020808252810161267681614118565b602080825281016126768161416e565b602080825281016126768161419e565b60208082528101612676816141ce565b60208082528101612676816141fe565b602080825281016126768161422e565b602080825281016126768161425e565b602080825281016126768161428e565b60208082528101612676816142be565b60208082528101612676816142ee565b6020808252810161267681614344565b6020808252810161267681614374565b60208082528101612676816143a4565b60208082528101612676816143d4565b6020808252810161267681614404565b608081016126768284614434565b6101208101612676828461447e565b6060810161267682846144b7565b60405181810167ffffffffffffffff811182821017156148d457600080fd5b604052919050565b600067ffffffffffffffff8211156148f357600080fd5b5060209081020190565b600067ffffffffffffffff82111561491457600080fd5b506020601f91909101601f19160190565b60200190565b5190565b60006126768261494f565b151590565b90565b600160e060020a03191690565b600160a060020a031690565b60ff1690565b6000612676825b60006126768261492f565b82818337506000910152565b60005b8381101561499a578181015183820152602001614982565b83811115611f545750506000910152565b601f01601f19169056fea265627a7a72305820944f742362cd353cb897590925baad625c9c1216f16408542c309300cbc4afd76c6578706572696d656e74616cf50037","source":"/*\n\n  Copyright 2018 ZeroEx Intl.\n\n  Licensed under the Apache License, Version 2.0 (the \"License\");\n  you may not use this file except in compliance with the License.\n  You may obtain a copy of the License at\n\n    http://www.apache.org/licenses/LICENSE-2.0\n\n  Unless required by applicable law or agreed to in writing, software\n  distributed under the License is distributed on an \"AS IS\" BASIS,\n  WITHOUT WARRANTIES OR CONDITIONS OF ANY KIND, either express or implied.\n  See the License for the specific language governing permissions and\n  limitations under the License.\n\n*/\n\npragma solidity 0.5.0;\npragma experimental ABIEncoderV2;\n\nimport \"./libs/LibConstants.sol\";\nimport \"./MixinExchangeCore.sol\";\nimport \"./MixinSignatureValidator.sol\";\nimport \"./MixinWrapperFunctions.sol\";\nimport \"./MixinAssetProxyDispatcher.sol\";\nimport \"./MixinTransactions.sol\";\nimport \"./MixinMatchOrders.sol\";\n\n\n// solhint-disable no-empty-blocks\ncontract Exchange is\n    MixinExchangeCore,\n    MixinMatchOrders,\n    MixinSignatureValidator,\n    MixinTransactions,\n    MixinAssetProxyDispatcher,\n    MixinWrapperFunctions\n{\n    string constant public VERSION = \"2.0.1-alpha\";\n\n    // Mixins are instantiated in the order they are inherited\n    constructor (bytes memory _zrxAssetData)\n        public\n        LibConstants(_zrxAssetData) // @TODO: Remove when we deploy.\n        MixinExchangeCore()\n        MixinMatchOrders()\n        MixinSignatureValidator()\n        MixinTransactions()\n        MixinAssetProxyDispatcher()\n        MixinWrapperFunctions()\n    {}\n}\n","sourcePath":"/home/rogelio/Code/dbet/prediction-market/core/contracts/0x/protocol/Exchange/Exchange.sol","compiler":{"name":"solc","version":"0.5.0+commit.1d4f565a.Emscripten.clang"},"schemaVersion":"3.0.1","updatedAt":"2019-01-31T19:07:12.897Z","devdoc":{"methods":{"batchCancelOrders((address,address,address,address,uint256,uint256,uint256,uint256,uint256,uint256,bytes,bytes)[])":{"details":"Synchronously cancels multiple orders in a single transaction.","params":{"orders":"Array of order specifications."}},"batchFillOrKillOrders((address,address,address,address,uint256,uint256,uint256,uint256,uint256,uint256,bytes,bytes)[],uint256[],bytes[])":{"details":"Synchronously executes multiple calls of fillOrKill.","params":{"orders":"Array of order specifications.","signatures":"Proofs that orders have been created by makers.","takerAssetFillAmounts":"Array of desired amounts of takerAsset to sell in orders."},"return":"Amounts filled and fees paid by makers and taker.         NOTE: makerAssetFilledAmount and takerAssetFilledAmount may include amounts filled of different assets."},"batchFillOrders((address,address,address,address,uint256,uint256,uint256,uint256,uint256,uint256,bytes,bytes)[],uint256[],bytes[])":{"details":"Synchronously executes multiple calls of fillOrder.","params":{"orders":"Array of order specifications.","signatures":"Proofs that orders have been created by makers.","takerAssetFillAmounts":"Array of desired amounts of takerAsset to sell in orders."},"return":"Amounts filled and fees paid by makers and taker.         NOTE: makerAssetFilledAmount and takerAssetFilledAmount may include amounts filled of different assets."},"batchFillOrdersNoThrow((address,address,address,address,uint256,uint256,uint256,uint256,uint256,uint256,bytes,bytes)[],uint256[],bytes[])":{"details":"Fills an order with specified parameters and ECDSA signature.      Returns false if the transaction would otherwise revert.","params":{"orders":"Array of order specifications.","signatures":"Proofs that orders have been created by makers.","takerAssetFillAmounts":"Array of desired amounts of takerAsset to sell in orders."},"return":"Amounts filled and fees paid by makers and taker.         NOTE: makerAssetFilledAmount and takerAssetFilledAmount may include amounts filled of different assets."},"cancelOrder((address,address,address,address,uint256,uint256,uint256,uint256,uint256,uint256,bytes,bytes))":{"details":"After calling, the order can not be filled anymore.      Throws if order is invalid or sender does not have permission to cancel.","params":{"order":"Order to cancel. Order must be OrderStatus.FILLABLE."}},"cancelOrdersUpTo(uint256)":{"details":"Cancels all orders created by makerAddress with a salt less than or equal to the targetOrderEpoch      and senderAddress equal to msg.sender (or null address if msg.sender == makerAddress).","params":{"targetOrderEpoch":"Orders created with a salt less or equal to this value will be cancelled."}},"executeTransaction(uint256,address,bytes,bytes)":{"details":"Executes an exchange method call in the context of signer.","params":{"data":"AbiV2 encoded calldata.","salt":"Arbitrary number to ensure uniqueness of transaction hash.","signature":"Proof of signer transaction by signer.","signerAddress":"Address of transaction signer."}},"fillOrKillOrder((address,address,address,address,uint256,uint256,uint256,uint256,uint256,uint256,bytes,bytes),uint256,bytes)":{"details":"Fills the input order. Reverts if exact takerAssetFillAmount not filled.","params":{"order":"Order struct containing order specifications.","signature":"Proof that order has been created by maker.","takerAssetFillAmount":"Desired amount of takerAsset to sell."}},"fillOrder((address,address,address,address,uint256,uint256,uint256,uint256,uint256,uint256,bytes,bytes),uint256,bytes)":{"details":"Fills the input order.","params":{"order":"Order struct containing order specifications.","signature":"Proof that order has been created by maker.","takerAssetFillAmount":"Desired amount of takerAsset to sell."},"return":"Amounts filled and fees paid by maker and taker."},"fillOrderNoThrow((address,address,address,address,uint256,uint256,uint256,uint256,uint256,uint256,bytes,bytes),uint256,bytes)":{"details":"Fills the input order.      Returns false if the transaction would otherwise revert.","params":{"order":"Order struct containing order specifications.","signature":"Proof that order has been created by maker.","takerAssetFillAmount":"Desired amount of takerAsset to sell."},"return":"Amounts filled and fees paid by maker and taker."},"getAssetProxy(bytes4)":{"details":"Gets an asset proxy.","params":{"assetProxyId":"Id of the asset proxy."},"return":"The asset proxy registered to assetProxyId. Returns 0x0 if no proxy is registered."},"getOrderInfo((address,address,address,address,uint256,uint256,uint256,uint256,uint256,uint256,bytes,bytes))":{"details":"Gets information about an order: status, hash, and amount filled.","params":{"order":"Order to gather information on."},"return":"OrderInfo Information about the order and its state.         See LibOrder.OrderInfo for a complete description."},"getOrdersInfo((address,address,address,address,uint256,uint256,uint256,uint256,uint256,uint256,bytes,bytes)[])":{"details":"Fetches information for all passed in orders.","params":{"orders":"Array of order specifications."},"return":"Array of OrderInfo instances that correspond to each order."},"isValidSignature(bytes32,address,bytes)":{"details":"Verifies that a hash has been signed by the given signer.","params":{"hash":"Any 32 byte hash.","signature":"Proof that the hash has been signed by signer.","signerAddress":"Address that should have signed the given hash."},"return":"True if the address recovered from the provided signature matches the input signer address."},"marketBuyOrders((address,address,address,address,uint256,uint256,uint256,uint256,uint256,uint256,bytes,bytes)[],uint256,bytes[])":{"details":"Synchronously executes multiple calls of fillOrder until total amount of makerAsset is bought by taker.","params":{"makerAssetFillAmount":"Desired amount of makerAsset to buy.","orders":"Array of order specifications.","signatures":"Proofs that orders have been signed by makers."},"return":"Amounts filled and fees paid by makers and taker."},"marketBuyOrdersNoThrow((address,address,address,address,uint256,uint256,uint256,uint256,uint256,uint256,bytes,bytes)[],uint256,bytes[])":{"details":"Synchronously executes multiple fill orders in a single transaction until total amount is bought by taker.      Returns false if the transaction would otherwise revert.","params":{"makerAssetFillAmount":"Desired amount of makerAsset to buy.","orders":"Array of order specifications.","signatures":"Proofs that orders have been signed by makers."},"return":"Amounts filled and fees paid by makers and taker."},"marketSellOrders((address,address,address,address,uint256,uint256,uint256,uint256,uint256,uint256,bytes,bytes)[],uint256,bytes[])":{"details":"Synchronously executes multiple calls of fillOrder until total amount of takerAsset is sold by taker.","params":{"orders":"Array of order specifications.","signatures":"Proofs that orders have been created by makers.","takerAssetFillAmount":"Desired amount of takerAsset to sell."},"return":"Amounts filled and fees paid by makers and taker."},"marketSellOrdersNoThrow((address,address,address,address,uint256,uint256,uint256,uint256,uint256,uint256,bytes,bytes)[],uint256,bytes[])":{"details":"Synchronously executes multiple calls of fillOrder until total amount of takerAsset is sold by taker.      Returns false if the transaction would otherwise revert.","params":{"orders":"Array of order specifications.","signatures":"Proofs that orders have been signed by makers.","takerAssetFillAmount":"Desired amount of takerAsset to sell."},"return":"Amounts filled and fees paid by makers and taker."},"matchOrders((address,address,address,address,uint256,uint256,uint256,uint256,uint256,uint256,bytes,bytes),(address,address,address,address,uint256,uint256,uint256,uint256,uint256,uint256,bytes,bytes),bytes,bytes)":{"details":"Match two complementary orders that have a profitable spread.      Each order is filled at their respective price point. However, the calculations are      carried out as though the orders are both being filled at the right order's price point.      The profit made by the left order goes to the taker (who matched the two orders).","params":{"leftOrder":"First order to match.","leftSignature":"Proof that order was created by the left maker.","rightOrder":"Second order to match.","rightSignature":"Proof that order was created by the right maker."},"return":"matchedFillResults Amounts filled and fees paid by maker and taker of matched orders."},"preSign(bytes32,address,bytes)":{"details":"Approves a hash on-chain using any valid signature type.      After presigning a hash, the preSign signature type will become valid for that hash and signer.","params":{"signature":"Proof that the hash has been signed by signer.","signerAddress":"Address that should have signed the given hash."}},"registerAssetProxy(address)":{"details":"Registers an asset proxy to its asset proxy id.      Once an asset proxy is registered, it cannot be unregistered.","params":{"assetProxy":"Address of new asset proxy to register."}},"setSignatureValidatorApproval(address,bool)":{"details":"Approves/unnapproves a Validator contract to verify signatures on signer's behalf.","params":{"approval":"Approval or disapproval of  Validator contract.","validatorAddress":"Address of Validator contract."}}}},"userdoc":{"methods":{}},"chain_tags":{"0xc7":{"address":"0x52a694a3178ada5f66c7ADC9095969D970777e35"}}}