{"contractName":"BettingExchange","abi":[{"constant":true,"inputs":[],"name":"SHARE_LONG","outputs":[{"name":"","type":"string"}],"payable":false,"stateMutability":"view","type":"function","signature":"0x48b2529a"},{"constant":true,"inputs":[],"name":"SEPARATOR","outputs":[{"name":"","type":"string"}],"payable":false,"stateMutability":"view","type":"function","signature":"0x5d27e9a6"},{"constant":true,"inputs":[],"name":"SHARE_SHORT","outputs":[{"name":"","type":"string"}],"payable":false,"stateMutability":"view","type":"function","signature":"0xc22c0915"},{"constant":true,"inputs":[],"name":"token","outputs":[{"name":"","type":"address"}],"payable":false,"stateMutability":"view","type":"function","signature":"0xfc0c546a"},{"inputs":[{"name":"_exchange","type":"address"},{"name":"_market","type":"address"}],"payable":false,"stateMutability":"nonpayable","type":"constructor","signature":"constructor"},{"anonymous":false,"inputs":[{"indexed":true,"name":"marketId","type":"bytes32"},{"indexed":false,"name":"outcome","type":"bytes32"},{"indexed":true,"name":"user","type":"address"}],"name":"LogRedeemOutcomeShareTokens","type":"event","signature":"0x43523558ed4e6720ade09337d57c5319411026d0756fc70cd72abbfe6ba47a0a"},{"constant":false,"inputs":[{"name":"marketId","type":"bytes32"},{"name":"outcome","type":"bytes32"},{"name":"isLong","type":"bool"},{"components":[{"name":"makerAddress","type":"address"},{"name":"takerAddress","type":"address"},{"name":"feeRecipientAddress","type":"address"},{"name":"senderAddress","type":"address"},{"name":"makerAssetAmount","type":"uint256"},{"name":"takerAssetAmount","type":"uint256"},{"name":"makerFee","type":"uint256"},{"name":"takerFee","type":"uint256"},{"name":"expirationTimeSeconds","type":"uint256"},{"name":"salt","type":"uint256"},{"name":"makerAssetData","type":"bytes"},{"name":"takerAssetData","type":"bytes"}],"name":"order","type":"tuple"},{"name":"takerAssetFillAmount","type":"uint256"},{"name":"salt","type":"uint256"},{"name":"makerSignature","type":"bytes"},{"name":"takerSignature","type":"bytes"}],"name":"fillOrder","outputs":[{"name":"","type":"bool"}],"payable":false,"stateMutability":"nonpayable","type":"function","signature":"0x18c8eeaa"},{"constant":true,"inputs":[{"name":"marketId","type":"bytes32"},{"name":"outcome","type":"bytes32"},{"components":[{"name":"makerAddress","type":"address"},{"name":"takerAddress","type":"address"},{"name":"feeRecipientAddress","type":"address"},{"name":"senderAddress","type":"address"},{"name":"makerAssetAmount","type":"uint256"},{"name":"takerAssetAmount","type":"uint256"},{"name":"makerFee","type":"uint256"},{"name":"takerFee","type":"uint256"},{"name":"expirationTimeSeconds","type":"uint256"},{"name":"salt","type":"uint256"},{"name":"makerAssetData","type":"bytes"},{"name":"takerAssetData","type":"bytes"}],"name":"order","type":"tuple"},{"name":"takerAssetFillAmount","type":"uint256"}],"name":"assertValidFillOrderParams","outputs":[{"name":"","type":"bool"}],"payable":false,"stateMutability":"view","type":"function","signature":"0x572bb16c"},{"constant":false,"inputs":[{"name":"marketId","type":"bytes32"},{"name":"outcome","type":"bytes32"},{"name":"isLong","type":"bool"},{"components":[{"name":"makerAddress","type":"address"},{"name":"takerAddress","type":"address"},{"name":"feeRecipientAddress","type":"address"},{"name":"senderAddress","type":"address"},{"name":"makerAssetAmount","type":"uint256"},{"name":"takerAssetAmount","type":"uint256"},{"name":"makerFee","type":"uint256"},{"name":"takerFee","type":"uint256"},{"name":"expirationTimeSeconds","type":"uint256"},{"name":"salt","type":"uint256"},{"name":"makerAssetData","type":"bytes"},{"name":"takerAssetData","type":"bytes"}],"name":"orders","type":"tuple[]"},{"name":"takerAssetFillAmounts","type":"uint256[]"},{"name":"salts","type":"uint256[]"},{"name":"makerSignatures","type":"bytes[]"},{"name":"takerSignatures","type":"bytes[]"}],"name":"batchFillOrders","outputs":[{"name":"","type":"bool"}],"payable":false,"stateMutability":"nonpayable","type":"function","signature":"0x1244a915"},{"constant":false,"inputs":[{"name":"marketId","type":"bytes32"},{"name":"outcome","type":"bytes32"},{"name":"user","type":"address"}],"name":"redeemFavorableOutcomeShareTokens","outputs":[{"name":"","type":"bool"}],"payable":false,"stateMutability":"nonpayable","type":"function","signature":"0x8686bc99"},{"constant":true,"inputs":[{"name":"outcomeShareToken","type":"address"},{"name":"user","type":"address"}],"name":"getOutcomeShareTokenBalanceOf","outputs":[{"name":"","type":"uint256"}],"payable":false,"stateMutability":"view","type":"function","signature":"0x5a7178a0"}],"bytecode":"0x60806040526000805460ff191690553480156200001b57600080fd5b50604051604080620026d283398101806040526200003d919081019062000156565b6000805461010060a860020a031916610100600160a060020a03858116919091029190911790915560018054600160a060020a0319168383161790819055604080517ffc0c546a0000000000000000000000000000000000000000000000000000000081529051919092169163fc0c546a916004808301926020929190829003018186803b158015620000cf57600080fd5b505afa158015620000e4573d6000803e3d6000fd5b505050506040513d601f19601f820116820180604052506200010a919081019062000195565b60028054600160a060020a031916600160a060020a039290921691909117905550620001ea9050565b6000620001418251620001be565b9392505050565b6000620001418251620001dd565b600080604083850312156200016a57600080fd5b600062000178858562000133565b92505060206200018b8582860162000133565b9150509250929050565b600060208284031215620001a857600080fd5b6000620001b6848462000148565b949350505050565b6000620001cb82620001d1565b92915050565b600160a060020a031690565b6000620001cb82620001be565b6124d880620001fa6000396000f3fe60806040526004361061007f5763ffffffff60e060020a6000350416631244a915811461008457806318c8eeaa146100ba57806348b2529a146100da578063572bb16c146100fc5780635a7178a01461011c5780635d27e9a6146101495780638686bc991461015e578063c22c09151461017e578063fc0c546a14610193575b600080fd5b34801561009057600080fd5b506100a461009f36600461196e565b6101b5565b6040516100b19190612163565b60405180910390f35b3480156100c657600080fd5b506100a46100d5366004611a96565b61025d565b3480156100e657600080fd5b506100ef61059e565b6040516100b19190612227565b34801561010857600080fd5b506100a4610117366004611b7e565b6105bf565b34801561012857600080fd5b5061013c6101373660046118ab565b610bb3565b6040516100b19190612171565b34801561015557600080fd5b506100ef610c54565b34801561016a57600080fd5b506100a4610179366004611921565b610c8b565b34801561018a57600080fd5b506100ef611173565b34801561019f57600080fd5b506101a8611198565b6040516100b19190612219565b6000805b8651811461024d576102448a8a8a8a858151811015156101d557fe5b906020019060200201518a868151811015156101ed57fe5b906020019060200201518a8781518110151561020557fe5b906020019060200201518a8881518110151561021d57fe5b906020019060200201518a8981518110151561023557fe5b9060200190602002015161025d565b506001016101b9565b5060019998505050505050505050565b6000805460ff161561028d5760405160e560020a62461bcd028152600401610284906122d8565b60405180910390fd5b6000805460ff191660011790556102a6898988886105bf565b15156102c75760405160e560020a62461bcd02815260040161028490612238565b6000600160009054906101000a9004600160a060020a0316600160a060020a031663a85377f58b600160009054906101000a9004600160a060020a0316600160a060020a03166382b9373d8e8e60408051908101604052806004815260200160e060020a636c6f6e67028152506040518463ffffffff1660e060020a028152600401610355939291906121d1565b60206040518083038186803b15801561036d57600080fd5b505afa158015610381573d6000803e3d6000fd5b505050506040513d601f19601f820116820180604052506103a59190810190611903565b6040518363ffffffff1660e060020a0281526004016103c59291906121c3565b60206040518083038186803b1580156103dd57600080fd5b505afa1580156103f1573d6000803e3d6000fd5b505050506040513d601f19601f82011682018060405250610415919081019061188d565b90506000600160009054906101000a9004600160a060020a0316600160a060020a031663a85377f58c600160009054906101000a9004600160a060020a0316600160a060020a03166382b9373d8f8f60408051908101604052806005815260200160008051602061247f8339815191528152506040518463ffffffff1660e060020a0281526004016104a9939291906121d1565b60206040518083038186803b1580156104c157600080fd5b505afa1580156104d5573d6000803e3d6000fd5b505050506040513d601f19601f820116820180604052506104f99190810190611903565b6040518363ffffffff1660e060020a0281526004016105199291906121c3565b60206040518083038186803b15801561053157600080fd5b505afa158015610545573d6000803e3d6000fd5b505050506040513d601f19601f82011682018060405250610569919081019061188d565b905061057b82828b8b8b8b8b8b6111a7565b151561058657600080fd5b50506000805460ff1916905598975050505050505050565b604080518082019091526004815260e060020a636c6f6e6702602082015281565b6001546040517fa270cdf300000000000000000000000000000000000000000000000000000000815260009160609183913391600160a060020a039091169063a270cdf390610612908b90600401612171565b60006040518083038186803b15801561062a57600080fd5b505afa15801561063e573d6000803e3d6000fd5b505050506040513d6000823e601f3d908101601f191682016040526106669190810190611bf7565b508051909750909550151592506106959150505760405160e560020a62461bcd02815260040161028490612288565b428210156106b85760405160e560020a62461bcd028152600401610284906122b8565b600085116106db5760405160e560020a62461bcd02815260040161028490612268565b6000805b6001546040517f5afa89ee000000000000000000000000000000000000000000000000000000008152600160a060020a0390911690635afa89ee90610728908d90600401612171565b60206040518083038186803b15801561074057600080fd5b505afa158015610754573d6000803e3d6000fd5b505050506040513d601f19601f820116820180604052506107789190810190611903565b8160ff161015610830576001546040517f1df4732d0000000000000000000000000000000000000000000000000000000081528a91600160a060020a031690631df4732d906107cd908e9086906004016121fe565b60206040518083038186803b1580156107e557600080fd5b505afa1580156107f9573d6000803e3d6000fd5b505050506040513d601f19601f8201168201806040525061081d9190810190611903565b141561082857600191505b6001016106df565b508015156108535760405160e560020a62461bcd028152600401610284906122a8565b600254610140880151600160a060020a039091169061087990601063ffffffff6114bc16565b600160a060020a0316146108a25760405160e560020a62461bcd02815260040161028490612248565b608087015160025488516040517f70a08231000000000000000000000000000000000000000000000000000000008152600160a060020a03909216916370a08231916108f0916004016120f7565b60206040518083038186803b15801561090857600080fd5b505afa15801561091c573d6000803e3d6000fd5b505050506040513d601f19601f820116820180604052506109409190810190611903565b10156109615760405160e560020a62461bcd02815260040161028490612298565b608087015160025488516040517fdd62ed3e000000000000000000000000000000000000000000000000000000008152600160a060020a039092169163dd62ed3e916109b1913090600401612105565b60206040518083038186803b1580156109c957600080fd5b505afa1580156109dd573d6000803e3d6000fd5b505050506040513d601f19601f82011682018060405250610a019190810190611903565b1015610a225760405160e560020a62461bcd02815260040161028490612278565b60808701516002546040517f70a08231000000000000000000000000000000000000000000000000000000008152918803918291600160a060020a0316906370a0823190610a749087906004016120f7565b60206040518083038186803b158015610a8c57600080fd5b505afa158015610aa0573d6000803e3d6000fd5b505050506040513d601f19601f82011682018060405250610ac49190810190611903565b1015610ae55760405160e560020a62461bcd02815260040161028490612308565b6002546040517fdd62ed3e0000000000000000000000000000000000000000000000000000000081528891600160a060020a03169063dd62ed3e90610b309087903090600401612105565b60206040518083038186803b158015610b4857600080fd5b505afa158015610b5c573d6000803e3d6000fd5b505050506040513d601f19601f82011682018060405250610b809190810190611903565b1015610ba15760405160e560020a62461bcd02815260040161028490612318565b6001955050505050505b949350505050565b6040517f70a08231000000000000000000000000000000000000000000000000000000008152600090600160a060020a038416906370a0823190610bfb9085906004016120f7565b60206040518083038186803b158015610c1357600080fd5b505afa158015610c27573d6000803e3d6000fd5b505050506040513d601f19601f82011682018060405250610c4b9190810190611903565b90505b92915050565b60408051808201909152600181527f2d00000000000000000000000000000000000000000000000000000000000000602082015281565b600154600090600160a060020a03163314610cbb5760405160e560020a62461bcd028152600401610284906122f8565b6001546040517fa270cdf3000000000000000000000000000000000000000000000000000000008152600091600160a060020a03169063a270cdf390610d05908890600401612171565b60006040518083038186803b158015610d1d57600080fd5b505afa158015610d31573d6000803e3d6000fd5b505050506040513d6000823e601f3d908101601f19168201604052610d599190810190611bf7565b60015490965060009550600160a060020a0316935063d5c3a748925089915087905088808714610daa57604080518082019091526005815260008051602061247f8339815191526020820152610dc9565b604080518082019091526004815260e060020a636c6f6e670260208201525b6040518563ffffffff1660e060020a028152600401610deb949392919061217f565b60206040518083038186803b158015610e0357600080fd5b505afa158015610e17573d6000803e3d6000fd5b505050506040513d601f19601f82011682018060405250610e3b9190810190611903565b6001546040517fe1f7a3ab000000000000000000000000000000000000000000000000000000008152919250600091600160a060020a039091169063e1f7a3ab90610e8a908a90600401612171565b60206040518083038186803b158015610ea257600080fd5b505afa158015610eb6573d6000803e3d6000fd5b505050506040513d601f19601f82011682018060405250610eda9190810190611903565b90506000610eee838363ffffffff6114f916565b600154909150600160a060020a031663c3cbe87f8989878114610f3257604080518082019091526005815260008051602061247f8339815191526020820152610f51565b604080518082019091526004815260e060020a636c6f6e670260208201525b6040518463ffffffff1660e060020a028152600401610f72939291906121d1565b60206040518083038186803b158015610f8a57600080fd5b505afa158015610f9e573d6000803e3d6000fd5b505050506040513d601f19601f82011682018060405250610fc2919081019061188d565b600160a060020a03166395a2251f876040518263ffffffff1660e060020a028152600401610ff091906120f7565b602060405180830381600087803b15801561100a57600080fd5b505af115801561101e573d6000803e3d6000fd5b505050506040513d601f19601f8201168201806040525061104291908101906118e5565b15156110635760405160e560020a62461bcd02815260040161028490612258565b6002546040517fa9059cbb000000000000000000000000000000000000000000000000000000008152600160a060020a039091169063a9059cbb906110ae9089908590600401612148565b602060405180830381600087803b1580156110c857600080fd5b505af11580156110dc573d6000803e3d6000fd5b505050506040513d601f19601f8201168201806040525061110091908101906118e5565b15156111215760405160e560020a62461bcd028152600401610284906122c8565b85600160a060020a0316887f43523558ed4e6720ade09337d57c5319411026d0756fc70cd72abbfe6ba47a0a8960405161115b9190612171565b60405180910390a360019450505050505b9392505050565b604080518082019091526005815260008051602061247f833981519152602082015281565b600254600160a060020a031681565b600033876111b557886111b7565b895b600160a060020a03166340c10f1982886040518363ffffffff1660e060020a0281526004016111e7929190612148565b602060405180830381600087803b15801561120157600080fd5b505af1158015611215573d6000803e3d6000fd5b505050506040513d601f19601f8201168201806040525061123991908101906118e5565b151561124457600080fd5b6040516060907fb4be83d5000000000000000000000000000000000000000000000000000000009061127e908a908a908990602401612328565b60408051601f198184030181529181526020820180517bffffffffffffffffffffffffffffffffffffffffffffffffffffffff167fffffffff000000000000000000000000000000000000000000000000000000009094169390931790925260005491517fbfc8bfce000000000000000000000000000000000000000000000000000000008152909250600160a060020a03610100909204919091169063bfc8bfce90611335908990869086908a90600401612348565b600060405180830381600087803b15801561134f57600080fd5b505af1158015611363573d6000803e3d6000fd5b50506002546040517f23b872dd000000000000000000000000000000000000000000000000000000008152600160a060020a0390911692506323b872dd91506113b490859030908c90600401612120565b602060405180830381600087803b1580156113ce57600080fd5b505af11580156113e2573d6000803e3d6000fd5b505050506040513d601f19601f8201168201806040525061140691908101906118e5565b151561141157600080fd5b8861141c578a61141e565b895b600160a060020a03166340c10f1983896040518363ffffffff1660e060020a02815260040161144e929190612148565b602060405180830381600087803b15801561146857600080fd5b505af115801561147c573d6000803e3d6000fd5b505050506040513d601f19601f820116820180604052506114a091908101906118e5565b15156114ab57600080fd5b5060019a9950505050505050505050565b6000816014018351101515156114e75760405160e560020a62461bcd028152600401610284906122e8565b500160140151600160a060020a031690565b600082151561150a57506000610c4e565b5081810281838281151561151a57fe5b0414610c4e57fe5b6000610c4b82356123fd565b6000610c4b82516123fd565b6000601f8201831361154b57600080fd5b813561155e611559826123b0565b612389565b81815260209384019390925082018360005b8381101561159c578135860161158688826116a3565b8452506020928301929190910190600101611570565b5050505092915050565b6000601f820183136115b757600080fd5b81356115c5611559826123b0565b81815260209384019390925082018360005b8381101561159c57813586016115ed8882611738565b84525060209283019291909101906001016115d7565b6000601f8201831361161457600080fd5b8135611622611559826123b0565b9150818183526020840193506020810190508385602084028201111561164757600080fd5b60005b8381101561159c578161165d888261168b565b845250602092830192919091019060010161164a565b6000610c4b8235612408565b6000610c4b8251612408565b6000610c4b823561240d565b6000610c4b825161240d565b6000601f820183136116b457600080fd5b81356116c2611559826123d1565b915080825260208301602083018583830111156116de57600080fd5b6116e9838284612438565b50505092915050565b6000601f8201831361170357600080fd5b8151611711611559826123d1565b9150808252602083016020830185838301111561172d57600080fd5b6116e9838284612444565b6000610180828403121561174b57600080fd5b611756610180612389565b905060006117648484611522565b825250602061177584848301611522565b602083015250604061178984828501611522565b604083015250606061179d84828501611522565b60608301525060806117b18482850161168b565b60808301525060a06117c58482850161168b565b60a08301525060c06117d98482850161168b565b60c08301525060e06117ed8482850161168b565b60e0830152506101006118028482850161168b565b610100830152506101206118188482850161168b565b6101208301525061014082013567ffffffffffffffff81111561183a57600080fd5b611846848285016116a3565b6101408301525061016082013567ffffffffffffffff81111561186857600080fd5b611874848285016116a3565b6101608301525092915050565b6000610c4b825161241c565b60006020828403121561189f57600080fd5b6000610bab848461152e565b600080604083850312156118be57600080fd5b60006118ca8585611522565b92505060206118db85828601611522565b9150509250929050565b6000602082840312156118f757600080fd5b6000610bab848461167f565b60006020828403121561191557600080fd5b6000610bab8484611697565b60008060006060848603121561193657600080fd5b6000611942868661168b565b93505060206119538682870161168b565b925050604061196486828701611522565b9150509250925092565b600080600080600080600080610100898b03121561198b57600080fd5b60006119978b8b61168b565b98505060206119a88b828c0161168b565b97505060406119b98b828c01611673565b965050606089013567ffffffffffffffff8111156119d657600080fd5b6119e28b828c016115a6565b955050608089013567ffffffffffffffff8111156119ff57600080fd5b611a0b8b828c01611603565b94505060a089013567ffffffffffffffff811115611a2857600080fd5b611a348b828c01611603565b93505060c089013567ffffffffffffffff811115611a5157600080fd5b611a5d8b828c0161153a565b92505060e089013567ffffffffffffffff811115611a7a57600080fd5b611a868b828c0161153a565b9150509295985092959890939650565b600080600080600080600080610100898b031215611ab357600080fd5b6000611abf8b8b61168b565b9850506020611ad08b828c0161168b565b9750506040611ae18b828c01611673565b965050606089013567ffffffffffffffff811115611afe57600080fd5b611b0a8b828c01611738565b9550506080611b1b8b828c0161168b565b94505060a0611b2c8b828c0161168b565b93505060c089013567ffffffffffffffff811115611b4957600080fd5b611b558b828c016116a3565b92505060e089013567ffffffffffffffff811115611b7257600080fd5b611a868b828c016116a3565b60008060008060808587031215611b9457600080fd5b6000611ba0878761168b565b9450506020611bb18782880161168b565b935050604085013567ffffffffffffffff811115611bce57600080fd5b611bda87828801611738565b9250506060611beb8782880161168b565b91505092959194509250565b60008060008060008060c08789031215611c1057600080fd5b6000611c1c8989611881565b9650506020611c2d89828a01611697565b9550506040611c3e89828a01611697565b9450506060611c4f89828a01611697565b935050608087015167ffffffffffffffff811115611c6c57600080fd5b611c7889828a016116f2565b92505060a0611c8989828a01611697565b9150509295509295509295565b611c9f816123fd565b82525050565b611c9f81612408565b611c9f8161240d565b6000611cc2826123f9565b808452611cd6816020860160208601612444565b611cdf81612474565b9093016020019392505050565b611c9f81612422565b601281527f494e56414c49445f46494c4c5f4f524445520000000000000000000000000000602082015260400190565b601981527f494e56414c49445f4d414b45525f41535345545f544f4b454e00000000000000602082015260400190565b601f81527f4f5554434f4d455f53484152455f544f4b454e5f52454445454d5f4641494c00602082015260400190565b601f81527f494e56414c49445f54414b45525f46494c4c5f41535345545f414d4f554e5400602082015260400190565b601d81527f494e56414c49445f4d414b45525f544f4b454e5f414c4c4f57414e4345000000602082015260400190565b601181527f494e56414c49445f495046535f48415348000000000000000000000000000000602082015260400190565b601b81527f494e56414c49445f4d414b45525f544f4b454e5f42414c414e43450000000000602082015260400190565b600f81527f494e56414c49445f4f5554434f4d450000000000000000000000000000000000602082015260400190565b601481527f494e56414c49445f4d41524b45545f434c4f5345000000000000000000000000602082015260400190565b601381527f544f4b454e5f5452414e534645525f4641494c00000000000000000000000000602082015260400190565b601281527f5245454e5452414e43595f494c4c4547414c0000000000000000000000000000602082015260400190565b602681527f475245415445525f4f525f455155414c5f544f5f32305f4c454e4754485f524560208201527f5155495245440000000000000000000000000000000000000000000000000000604082015260600190565b600e81527f494e56414c49445f53454e444552000000000000000000000000000000000000602082015260400190565b601b81527f494e56414c49445f54414b45525f544f4b454e5f42414c414e43450000000000602082015260400190565b601d81527f494e56414c49445f54414b45525f544f4b454e5f414c4c4f57414e4345000000602082015260400190565b80516000906101808401906120008582611c96565b5060208301516120136020860182611c96565b5060408301516120266040860182611c96565b5060608301516120396060860182611c96565b50608083015161204c6080860182611cae565b5060a083015161205f60a0860182611cae565b5060c083015161207260c0860182611cae565b5060e083015161208560e0860182611cae565b5061010083015161209a610100860182611cae565b506101208301516120af610120860182611cae565b506101408301518482036101408601526120c98282611cb7565b9150506101608301518482036101608601526120e58282611cb7565b95945050505050565b611c9f8161242d565b60208101610c4e8284611c96565b604081016121138285611c96565b61116c6020830184611c96565b6060810161212e8286611c96565b61213b6020830185611c96565b610bab6040830184611cae565b604081016121568285611c96565b61116c6020830184611cae565b60208101610c4e8284611ca5565b60208101610c4e8284611cae565b6080810161218d8287611cae565b61219a6020830186611c96565b6121a76040830185611cae565b81810360608301526121b98184611cb7565b9695505050505050565b604081016121568285611cae565b606081016121df8286611cae565b6121ec6020830185611cae565b81810360408301526120e58184611cb7565b6040810161220c8285611cae565b61116c60208301846120ee565b60208101610c4e8284611cec565b60208082528101610c4b8184611cb7565b60208082528101610c4e81611cf5565b60208082528101610c4e81611d25565b60208082528101610c4e81611d55565b60208082528101610c4e81611d85565b60208082528101610c4e81611db5565b60208082528101610c4e81611de5565b60208082528101610c4e81611e15565b60208082528101610c4e81611e45565b60208082528101610c4e81611e75565b60208082528101610c4e81611ea5565b60208082528101610c4e81611ed5565b60208082528101610c4e81611f05565b60208082528101610c4e81611f5b565b60208082528101610c4e81611f8b565b60208082528101610c4e81611fbb565b606080825281016123398186611feb565b90506121ec6020830185611cae565b608081016123568287611cae565b6123636020830186611c96565b81810360408301526123758185611cb7565b905081810360608301526121b98184611cb7565b60405181810167ffffffffffffffff811182821017156123a857600080fd5b604052919050565b600067ffffffffffffffff8211156123c757600080fd5b5060209081020190565b600067ffffffffffffffff8211156123e857600080fd5b506020601f91909101601f19160190565b5190565b6000610c4e82612410565b151590565b90565b600160a060020a031690565b60ff1690565b6000610c4e826123fd565b6000610c4e8261241c565b82818337506000910152565b60005b8381101561245f578181015183820152602001612447565b8381111561246e576000848401525b50505050565b601f01601f19169056fe73686f7274000000000000000000000000000000000000000000000000000000a265627a7a7230582073d432a886d9303fa18eadbae57d33d92c88e6118801361ad06ab6da7859abbe6c6578706572696d656e74616cf50037","source":"pragma solidity 0.5.0;\npragma experimental ABIEncoderV2;\n\nimport \"../0x/protocol/Exchange/interfaces/IExchange.sol\";\nimport \"../0x/protocol/Exchange/libs/LibOrder.sol\";\nimport \"../0x/utils/ReentrancyGuard/ReentrancyGuard.sol\";\n\nimport \"./libs/LibBytes.sol\";\nimport \"./libs/LibConstants.sol\";\nimport \"./libs/LibSafeMath.sol\";\n\nimport \"./Market.sol\";\nimport \"../token/OutcomeShareToken.sol\";\n\n// Wrapper for 0x exchange contract.\n// Mints outcome share tokens for all order fills.\ncontract BettingExchange is\n    LibConstants,\n    ReentrancyGuard\n{\n\n    using LibBytes for bytes;\n    using LibSafeMath for uint256;\n\n    // Exchange contract.\n    // solhint-disable-next-line var-name-mixedcase\n    IExchange internal EXCHANGE;\n    Market internal market;\n    ERC20 public token;\n\n    // Redeem outcome share tokens event\n    event LogRedeemOutcomeShareTokens(\n        bytes32 indexed marketId,\n        bytes32 outcome,\n        address indexed user\n    );\n\n    constructor (\n        address _exchange,\n        address _market\n    )\n        public\n    {\n        EXCHANGE = IExchange(_exchange);\n        market = Market(_market);\n        token = ERC20(market.token());\n    }\n\n    /// @dev Fills an order using `msg.sender` as the taker.\n    /// @param marketId ID of betting market\n    /// @param outcome Outcome being bet on\n    /// @param isLong is order filling a long or short position\n    /// @param order Order struct containing order specifications.\n    /// @param takerAssetFillAmount Desired amount of takerAsset to sell.\n    /// @param salt Arbitrary value to guarantee uniqueness of 0x transaction hash.\n    /// @param makerSignature Proof that order has been created by maker.\n    /// @param takerSignature Proof that taker wishes to call this function with given params.\n    /// @return bool Whether order fill was successful\n    function fillOrder(\n        bytes32 marketId,\n        bytes32 outcome,\n        bool isLong,\n        LibOrder.Order memory order,\n        uint256 takerAssetFillAmount,\n        uint256 salt,\n        bytes memory makerSignature,\n        bytes memory takerSignature\n    )\n    public\n    nonReentrant\n    returns (bool) {\n        require(\n            assertValidFillOrderParams(\n                marketId,\n                outcome,\n                order,\n                takerAssetFillAmount\n            ),\n            \"INVALID_FILL_ORDER\"\n        );\n\n        address longShareToken = market.getMarketOutcomeShareToken(\n            marketId,\n            market.getMarketOutcomeShareTokenName(\n                marketId,\n                outcome,\n                SHARE_LONG\n            )\n        );\n        address shortShareToken = market.getMarketOutcomeShareToken(\n            marketId,\n            market.getMarketOutcomeShareTokenName(\n                marketId,\n                outcome,\n                SHARE_SHORT\n            )\n        );\n\n        require(\n            fillOrderInternal(\n                longShareToken,\n                shortShareToken,\n                isLong,\n                order,\n                takerAssetFillAmount,\n                salt,\n                makerSignature,\n                takerSignature\n            )\n        );\n    }\n\n    /**\n    * Assert that fill order parameters are valid\n    * @param marketId ID of market\n    * @param outcome Outcome being bet on\n    * @param order Order struct containing order specifications.\n    * @param takerAssetFillAmount Desired amount of takerAsset to sell.\n    * @return whether fill order parameters are valid\n    */\n    function assertValidFillOrderParams(\n        bytes32 marketId,\n        bytes32 outcome,\n        LibOrder.Order memory order,\n        uint256 takerAssetFillAmount\n    )\n    public\n    view\n    returns (bool) {\n        string memory ipfsHash;\n        uint256 marketClose;\n        address takerAddress = msg.sender;\n\n        (,,,marketClose,ipfsHash,) = market.getMarketInfo(marketId);\n\n        // Check if market exists\n        require(bytes(ipfsHash).length != 0, \"INVALID_IPFS_HASH\");\n        // Check if bets are allowed\n        require(marketClose >= block.timestamp, \"INVALID_MARKET_CLOSE\");\n        // Check if takerAssetFillAmount > 0\n        require(takerAssetFillAmount > 0, \"INVALID_TAKER_FILL_ASSET_AMOUNT\");\n        // Check if outcome is valid\n        bool validOutcome;\n        for(uint8 i = 0; i < market.getMarketOutcomeCount(marketId); i++) {\n            if(market.getMarketOutcomeAtIndex(marketId, i) == outcome)\n                validOutcome = true;\n        }\n        // Outcome must be valid\n        require(validOutcome, \"INVALID_OUTCOME\");\n\n        // Maker asset token must be DBET\n        require(order.makerAssetData.readAddress(16) == address(token), \"INVALID_MAKER_ASSET_TOKEN\");\n\n        // For eg. with a bid of 0.1 for 100 longs of outcome A by the maker,\n        // Maker asset amount would be set at 10 DBETs, taker asset amount would be set at 100 long outcome share tokens\n\n        // Contract would check whether maker has and has approved makerAssetAmount (10) DBETs\n        require(token.balanceOf(order.makerAddress) >= order.makerAssetAmount, \"INVALID_MAKER_TOKEN_BALANCE\");\n        require(token.allowance(order.makerAddress, address(this)) >= order.makerAssetAmount, \"INVALID_MAKER_TOKEN_ALLOWANCE\");\n\n        // Contract would then check whether taker has (takerAssetFillAmount - makerAssetAmount) DBETs\n        // and has approved (takerAssetFillAmount) DBETs\n        // which would be a min. balance of (100 - 10) DBETs or 90 DBETs and allowance of 100 DBETs\n        uint256 takerTokenRequirement = takerAssetFillAmount - order.makerAssetAmount;\n        require(token.balanceOf(takerAddress) >= takerTokenRequirement, \"INVALID_TAKER_TOKEN_BALANCE\");\n        require(token.allowance(takerAddress, address(this)) >= takerAssetFillAmount, \"INVALID_TAKER_TOKEN_ALLOWANCE\");\n\n        return true;\n    }\n\n    /**\n    * Assert that fill order parameters are valid\n    * @param longShareToken address of long share token\n    * @param shortShareToken address of short share token\n    * @param isLong is order filling a long or short position\n    * @param order Order struct containing order specifications.\n    * @param takerAssetFillAmount Desired amount of takerAsset to sell.\n    * @param salt Arbitrary value to guarantee uniqueness of 0x transaction hash.\n    * @param makerSignature Proof that order has been created by maker.\n    * @param takerSignature Proof that taker wishes to call this function with given params.\n    * @return whether fill order was successful\n    */\n    function fillOrderInternal(\n        address longShareToken,\n        address shortShareToken,\n        bool isLong,\n        LibOrder.Order memory order,\n        uint256 takerAssetFillAmount,\n        uint256 salt,\n        bytes memory makerSignature,\n        bytes memory takerSignature\n    )\n    internal\n    returns (bool) {\n        address takerAddress = msg.sender;\n        // Contract would mint takerAssetFillAmount (100) long share tokens (assuming maker is long) for the taker.\n        // This would later be transferred to the taker using dispatchTransferFrom()\n\n        // Maker - 10 DBETs, 0 longs, 0 shorts\n        // Taker - 90 DBETs, 100 longs, 0 shorts\n        require(\n            OutcomeShareToken(\n                isLong ? longShareToken : shortShareToken\n            ).mint(\n                takerAddress,\n                takerAssetFillAmount\n            )\n        );\n\n        // Contract would execute the 0x transaction for 100 longs and 10 DBETs between maker and taker\n        // Maker would now have 100 longs and taker would have 10 DBETs (for a total of 100 transferable DBETs)\n        // Encode arguments into byte array.\n        bytes memory data = abi.encodeWithSelector(\n            EXCHANGE.fillOrder.selector,\n            order,\n            takerAssetFillAmount,\n            makerSignature\n        );\n\n        // Call `fillOrder` via `executeTransaction`.\n        // Maker - 0 DBETs, 100 longs, 0 shorts\n        // Taker - 100 DBETs, 0 longs, 0 shorts\n        EXCHANGE.executeTransaction(\n            salt,\n            takerAddress,\n            data,\n            takerSignature\n        );\n\n        // Contract would transfer takerAssetFillAmount (100) DBETs from taker to contract as an escrow\n        // Maker - 0 DBETs, 100 longs, 0 shorts\n        // Taker - 0 DBETs, 0 longs, 0 shorts\n        require(\n            token.transferFrom(\n                takerAddress,\n                address(this),\n                takerAssetFillAmount\n            )\n        );\n\n        // Contract would mint takerAssetFillAmount short share tokens (assuming maker is long) for the taker\n        // Maker - 0 DBETs, 100 longs, 0 shorts\n        // Taker - 0 DBETs, 0 longs, 100 shorts\n        require(\n            OutcomeShareToken(\n                isLong ? shortShareToken : longShareToken\n            ).mint(\n                takerAddress,\n                takerAssetFillAmount\n            )\n        );\n\n        // Maker would have 100 long share tokens, taker would have 100 short share tokens and contract would have 100 DBETs escrow-ed\n        return true;\n    }\n\n    /// @dev Synchronously executes multiple calls of fillOrder.\n    /// @param marketId ID of betting market\n    /// @param outcome Outcome being bet on\n    /// @param isLong is order filling a long or short position\n    /// @param orders Array of order specifications.\n    /// @param takerAssetFillAmounts Array of desired amounts of takerAsset to sell in orders.\n    /// @param salts Arbitrary values to guarantee uniqueness of 0x transaction hashes.\n    /// @param makerSignatures Proofs that order has been created by maker.\n    /// @param takerSignatures Proofs that taker wishes to call this function with given params.\n    /// @return bool Whether order fills were successful\n    function batchFillOrders(\n        bytes32 marketId,\n        bytes32 outcome,\n        bool isLong,\n        LibOrder.Order[] memory orders,\n        uint256[] memory takerAssetFillAmounts,\n        uint256[] memory salts,\n        bytes[] memory makerSignatures,\n        bytes[] memory takerSignatures\n    )\n    public\n    returns (bool)\n    {\n        for (uint256 i = 0; i != orders.length; i++) {\n            fillOrder(\n                marketId,\n                outcome,\n                isLong,\n                orders[i],\n                takerAssetFillAmounts[i],\n                salts[i],\n                makerSignatures[i],\n                takerSignatures[i]\n            );\n        }\n        return true;\n    }\n\n    /**\n    * Redeems favorable outcome share tokens owned by a user for a market\n    * @param marketId Market ID\n    * @param outcome Market outcome\n    * @param user User address\n    * @return Whether redemption was successful\n    */\n    function redeemFavorableOutcomeShareTokens(\n        bytes32 marketId,\n        bytes32 outcome,\n        address user\n    )\n    public\n    returns (bool) {\n        // Only the market contract can call this function\n        require(msg.sender == address(market), \"INVALID_SENDER\");\n        // Call the redeem function for the outcome share token\n        bytes32 winningOutcome;\n        (,,,,,winningOutcome) = market.getMarketInfo(marketId);\n        uint256 favorableOutcomeShareTokenBalance = market.getMarketOutcomeShareTokenBalance(\n            marketId,\n            user,\n            outcome,\n            outcome == winningOutcome ? SHARE_LONG : SHARE_SHORT\n        );\n        uint256 profitPerFavorableOutcomeShareToken =\n            market.calculateProfitPerFavorableOutcomeShareToken(\n                marketId\n            );\n        uint256 totalDbetsToTransfer =\n            favorableOutcomeShareTokenBalance.mul(profitPerFavorableOutcomeShareToken);\n\n        // Burns user's token balance\n        require(\n            OutcomeShareToken(market.getMarketOutcomeShareToken(\n                marketId,\n                outcome,\n                outcome == winningOutcome ? SHARE_LONG : SHARE_SHORT\n            )).redeem(\n                user\n            ),\n            \"OUTCOME_SHARE_TOKEN_REDEEM_FAIL\"\n        );\n        // Transfer DBETs equivalent to outcome share token balance + profit\n        require(\n            token.transfer(\n                user,\n                totalDbetsToTransfer\n            ),\n            \"TOKEN_TRANSFER_FAIL\"\n        );\n        // Emit redeem event\n        emit LogRedeemOutcomeShareTokens(\n            marketId,\n            outcome,\n            user\n        );\n\n        return true;\n    }\n\n    /**\n    * Returns outcome share token balance for a user\n    * @param outcomeShareToken Address of outcome share token\n    * @param user User address\n    * @return Outcome share token balance\n    */\n    function getOutcomeShareTokenBalanceOf(\n        address outcomeShareToken,\n        address user\n    )\n    public\n    view\n    returns (uint256) {\n        return ERC20(outcomeShareToken).balanceOf(user);\n    }\n}\n","sourcePath":"/home/rogelio/Code/dbet/prediction-market/core/contracts/protocol/BettingExchange.sol","compiler":{"name":"solc","version":"0.5.0+commit.1d4f565a.Emscripten.clang"},"schemaVersion":"3.0.1","updatedAt":"2019-01-31T19:07:12.936Z","devdoc":{"methods":{"assertValidFillOrderParams(bytes32,bytes32,(address,address,address,address,uint256,uint256,uint256,uint256,uint256,uint256,bytes,bytes),uint256)":{"params":{"marketId":"ID of market","order":"Order struct containing order specifications.","outcome":"Outcome being bet on","takerAssetFillAmount":"Desired amount of takerAsset to sell."},"return":"whether fill order parameters are valid"},"batchFillOrders(bytes32,bytes32,bool,(address,address,address,address,uint256,uint256,uint256,uint256,uint256,uint256,bytes,bytes)[],uint256[],uint256[],bytes[],bytes[])":{"details":"Synchronously executes multiple calls of fillOrder.","params":{"isLong":"is order filling a long or short position","makerSignatures":"Proofs that order has been created by maker.","marketId":"ID of betting market","orders":"Array of order specifications.","outcome":"Outcome being bet on","salts":"Arbitrary values to guarantee uniqueness of 0x transaction hashes.","takerAssetFillAmounts":"Array of desired amounts of takerAsset to sell in orders.","takerSignatures":"Proofs that taker wishes to call this function with given params."},"return":"bool Whether order fills were successful"},"fillOrder(bytes32,bytes32,bool,(address,address,address,address,uint256,uint256,uint256,uint256,uint256,uint256,bytes,bytes),uint256,uint256,bytes,bytes)":{"details":"Fills an order using `msg.sender` as the taker.","params":{"isLong":"is order filling a long or short position","makerSignature":"Proof that order has been created by maker.","marketId":"ID of betting market","order":"Order struct containing order specifications.","outcome":"Outcome being bet on","salt":"Arbitrary value to guarantee uniqueness of 0x transaction hash.","takerAssetFillAmount":"Desired amount of takerAsset to sell.","takerSignature":"Proof that taker wishes to call this function with given params."},"return":"bool Whether order fill was successful"},"getOutcomeShareTokenBalanceOf(address,address)":{"params":{"outcomeShareToken":"Address of outcome share token","user":"User address"},"return":"Outcome share token balance"},"redeemFavorableOutcomeShareTokens(bytes32,bytes32,address)":{"params":{"marketId":"Market ID","outcome":"Market outcome","user":"User address"},"return":"Whether redemption was successful"}}},"userdoc":{"methods":{"assertValidFillOrderParams(bytes32,bytes32,(address,address,address,address,uint256,uint256,uint256,uint256,uint256,uint256,bytes,bytes),uint256)":{"notice":"Assert that fill order parameters are valid"},"getOutcomeShareTokenBalanceOf(address,address)":{"notice":"Returns outcome share token balance for a user"},"redeemFavorableOutcomeShareTokens(bytes32,bytes32,address)":{"notice":"Redeems favorable outcome share tokens owned by a user for a market"}}},"chain_tags":{"0xc7":{"address":"0x016796874EA2fDE06B70b6a85a3e2c46c6e74563"}}}