{
  "contractName": "LibConstants",
  "abi": [
    {
      "constant": true,
      "inputs": [],
      "name": "SHARE_LONG",
      "outputs": [
        {
          "name": "",
          "type": "string"
        }
      ],
      "payable": false,
      "stateMutability": "view",
      "type": "function"
    },
    {
      "constant": true,
      "inputs": [],
      "name": "SEPARATOR",
      "outputs": [
        {
          "name": "",
          "type": "string"
        }
      ],
      "payable": false,
      "stateMutability": "view",
      "type": "function"
    },
    {
      "constant": true,
      "inputs": [],
      "name": "SHARE_SHORT",
      "outputs": [
        {
          "name": "",
          "type": "string"
        }
      ],
      "payable": false,
      "stateMutability": "view",
      "type": "function"
    }
  ],
  "bytecode": "0x608060405234801561001057600080fd5b506101e0806100206000396000f3fe6080604052600436106100565763ffffffff7c010000000000000000000000000000000000000000000000000000000060003504166348b2529a811461005b5780635d27e9a6146100e5578063c22c0915146100fa575b600080fd5b34801561006757600080fd5b5061007061010f565b6040805160208082528351818301528351919283929083019185019080838360005b838110156100aa578181015183820152602001610092565b50505050905090810190601f1680156100d75780820380516001836020036101000a031916815260200191505b509250505060405180910390f35b3480156100f157600080fd5b50610070610146565b34801561010657600080fd5b5061007061017d565b60408051808201909152600481527f6c6f6e6700000000000000000000000000000000000000000000000000000000602082015281565b60408051808201909152600181527f2d00000000000000000000000000000000000000000000000000000000000000602082015281565b60408051808201909152600581527f73686f727400000000000000000000000000000000000000000000000000000060208201528156fea165627a7a723058201593df9fa22d9565019da722f41ef6978d4c1396036a8bcadfe8baa31c54ba990029",
  "source": "pragma solidity 0.5.0;\n\ncontract LibConstants {\n\n    string public constant SHARE_LONG = \"long\";\n    string public constant SHARE_SHORT = \"short\";\n    string public constant SEPARATOR = \"-\";\n\n}\n",
  "sourcePath": "/home/rogelio/Code/dbet/prediction-market/core/contracts/protocol/libs/LibConstants.sol",
  "compiler": {
    "name": "solc",
    "version": "0.5.0+commit.1d4f565a.Emscripten.clang"
  },
  "schemaVersion": "3.0.1",
  "updatedAt": "2019-01-31T19:07:12.920Z",
  "devdoc": {
    "methods": {}
  },
  "userdoc": {
    "methods": {}
  }
}