{
  "contractName": "MixinAuthorizable",
  "abi": [
    {
      "constant": true,
      "inputs": [
        {
          "name": "",
          "type": "uint256"
        }
      ],
      "name": "authorities",
      "outputs": [
        {
          "name": "",
          "type": "address"
        }
      ],
      "payable": false,
      "stateMutability": "view",
      "type": "function"
    },
    {
      "constant": true,
      "inputs": [],
      "name": "owner",
      "outputs": [
        {
          "name": "",
          "type": "address"
        }
      ],
      "payable": false,
      "stateMutability": "view",
      "type": "function"
    },
    {
      "constant": true,
      "inputs": [
        {
          "name": "",
          "type": "address"
        }
      ],
      "name": "authorized",
      "outputs": [
        {
          "name": "",
          "type": "bool"
        }
      ],
      "payable": false,
      "stateMutability": "view",
      "type": "function"
    },
    {
      "constant": false,
      "inputs": [
        {
          "name": "newOwner",
          "type": "address"
        }
      ],
      "name": "transferOwnership",
      "outputs": [],
      "payable": false,
      "stateMutability": "nonpayable",
      "type": "function"
    },
    {
      "anonymous": false,
      "inputs": [
        {
          "indexed": true,
          "name": "target",
          "type": "address"
        },
        {
          "indexed": true,
          "name": "caller",
          "type": "address"
        }
      ],
      "name": "AuthorizedAddressAdded",
      "type": "event"
    },
    {
      "anonymous": false,
      "inputs": [
        {
          "indexed": true,
          "name": "target",
          "type": "address"
        },
        {
          "indexed": true,
          "name": "caller",
          "type": "address"
        }
      ],
      "name": "AuthorizedAddressRemoved",
      "type": "event"
    },
    {
      "constant": false,
      "inputs": [
        {
          "name": "target",
          "type": "address"
        }
      ],
      "name": "addAuthorizedAddress",
      "outputs": [],
      "payable": false,
      "stateMutability": "nonpayable",
      "type": "function"
    },
    {
      "constant": false,
      "inputs": [
        {
          "name": "target",
          "type": "address"
        }
      ],
      "name": "removeAuthorizedAddress",
      "outputs": [],
      "payable": false,
      "stateMutability": "nonpayable",
      "type": "function"
    },
    {
      "constant": false,
      "inputs": [
        {
          "name": "target",
          "type": "address"
        },
        {
          "name": "index",
          "type": "uint256"
        }
      ],
      "name": "removeAuthorizedAddressAtIndex",
      "outputs": [],
      "payable": false,
      "stateMutability": "nonpayable",
      "type": "function"
    },
    {
      "constant": true,
      "inputs": [],
      "name": "getAuthorizedAddresses",
      "outputs": [
        {
          "name": "",
          "type": "address[]"
        }
      ],
      "payable": false,
      "stateMutability": "view",
      "type": "function"
    }
  ],
  "bytecode": "0x608060405260008054600160a060020a031916331790556109fa806100256000396000f3fe60806040526004361061008d5763ffffffff7c010000000000000000000000000000000000000000000000000000000060003504166342f1181e8114610092578063494503d4146100c7578063707129391461010d5780638da5cb5b146101405780639ad2674414610155578063b91816111461018e578063d39de6e9146101d5578063f2fde38b1461023a575b600080fd5b34801561009e57600080fd5b506100c5600480360360208110156100b557600080fd5b5035600160a060020a031661026d565b005b3480156100d357600080fd5b506100f1600480360360208110156100ea57600080fd5b50356103c9565b60408051600160a060020a039092168252519081900360200190f35b34801561011957600080fd5b506100c56004803603602081101561013057600080fd5b5035600160a060020a03166103f1565b34801561014c57600080fd5b506100f16105db565b34801561016157600080fd5b506100c56004803603604081101561017857600080fd5b50600160a060020a0381351690602001356105ea565b34801561019a57600080fd5b506101c1600480360360208110156101b157600080fd5b5035600160a060020a0316610864565b604080519115158252519081900360200190f35b3480156101e157600080fd5b506101ea610879565b60408051602080825283518183015283519192839290830191858101910280838360005b8381101561022657818101518382015260200161020e565b505050509050019250505060405180910390f35b34801561024657600080fd5b506100c56004803603602081101561025d57600080fd5b5035600160a060020a03166108dc565b600054600160a060020a031633146102bd576040805160e560020a62461bcd02815260206004820152601360248201526000805160206109af833981519152604482015290519081900360640190fd5b600160a060020a03811660009081526001602052604090205460ff161561032e576040805160e560020a62461bcd02815260206004820152601960248201527f5441524745545f414c52454144595f415554484f52495a454400000000000000604482015290519081900360640190fd5b600160a060020a0381166000818152600160208190526040808320805460ff19168317905560028054928301815583527f405787fa12a823e0f2b7631cc41b3ba8828b3321ca811111fa75cd3aa3bb5ace909101805473ffffffffffffffffffffffffffffffffffffffff191684179055513392917f3147867c59d17e8fa9d522465651d44aae0a9e38f902f3475b97e58072f0ed4c91a350565b60028054829081106103d757fe5b600091825260209091200154600160a060020a0316905081565b600054600160a060020a03163314610441576040805160e560020a62461bcd02815260206004820152601360248201526000805160206109af833981519152604482015290519081900360640190fd5b600160a060020a03811660009081526001602052604090205460ff1615156104b3576040805160e560020a62461bcd02815260206004820152601560248201527f5441524745545f4e4f545f415554484f52495a45440000000000000000000000604482015290519081900360640190fd5b600160a060020a0381166000908152600160205260408120805460ff191690555b6002548110156105a15781600160a060020a03166002828154811015156104f757fe5b600091825260209091200154600160a060020a031614156105995760028054600019810190811061052457fe5b60009182526020909120015460028054600160a060020a03909216918390811061054a57fe5b6000918252602090912001805473ffffffffffffffffffffffffffffffffffffffff1916600160a060020a03929092169190911790556002805460001901906105939082610967565b506105a1565b6001016104d4565b506040513390600160a060020a038316907f1f32c1b084e2de0713b8fb16bd46bb9df710a3dbeae2f3ca93af46e016dcc6b090600090a350565b600054600160a060020a031681565b600054600160a060020a0316331461063a576040805160e560020a62461bcd02815260206004820152601360248201526000805160206109af833981519152604482015290519081900360640190fd5b600160a060020a03821660009081526001602052604090205460ff1615156106ac576040805160e560020a62461bcd02815260206004820152601560248201527f5441524745545f4e4f545f415554484f52495a45440000000000000000000000604482015290519081900360640190fd5b6002548110610705576040805160e560020a62461bcd02815260206004820152601360248201527f494e4445585f4f55545f4f465f424f554e445300000000000000000000000000604482015290519081900360640190fd5b81600160a060020a031660028281548110151561071e57fe5b600091825260209091200154600160a060020a031614610788576040805160e560020a62461bcd02815260206004820152601b60248201527f415554484f52495a45445f414444524553535f4d49534d415443480000000000604482015290519081900360640190fd5b600160a060020a0382166000908152600160205260409020805460ff191690556002805460001981019081106107ba57fe5b60009182526020909120015460028054600160a060020a0390921691839081106107e057fe5b6000918252602090912001805473ffffffffffffffffffffffffffffffffffffffff1916600160a060020a03929092169190911790556002805460001901906108299082610967565b506040513390600160a060020a038416907f1f32c1b084e2de0713b8fb16bd46bb9df710a3dbeae2f3ca93af46e016dcc6b090600090a35050565b60016020526000908152604090205460ff1681565b606060028054806020026020016040519081016040528092919081815260200182805480156108d157602002820191906000526020600020905b8154600160a060020a031681526001909101906020018083116108b3575b505050505090505b90565b600054600160a060020a0316331461092c576040805160e560020a62461bcd02815260206004820152601360248201526000805160206109af833981519152604482015290519081900360640190fd5b600160a060020a03811615610964576000805473ffffffffffffffffffffffffffffffffffffffff1916600160a060020a0383161790555b50565b81548183558181111561098b5760008381526020902061098b918101908301610990565b505050565b6108d991905b808211156109aa5760008155600101610996565b509056fe4f4e4c595f434f4e54524143545f4f574e455200000000000000000000000000a165627a7a72305820b264ad5943a29c0acf38c5c2e0fac83e131402556511dd645559aeaa8102d8e60029",
  "source": "/*\n\n  Copyright 2018 ZeroEx Intl.\n\n  Licensed under the Apache License, Version 2.0 (the \"License\");\n  you may not use this file except in compliance with the License.\n  You may obtain a copy of the License at\n\n    http://www.apache.org/licenses/LICENSE-2.0\n\n  Unless required by applicable law or agreed to in writing, software\n  distributed under the License is distributed on an \"AS IS\" BASIS,\n  WITHOUT WARRANTIES OR CONDITIONS OF ANY KIND, either express or implied.\n  See the License for the specific language governing permissions and\n  limitations under the License.\n\n*/\n\npragma solidity 0.5.0;\n\nimport \"../../utils/Ownable/Ownable.sol\";\nimport \"./mixins/MAuthorizable.sol\";\n\n\ncontract MixinAuthorizable is\n    Ownable,\n    MAuthorizable\n{\n    /// @dev Only authorized addresses can invoke functions with this modifier.\n    modifier onlyAuthorized {\n        require(\n            authorized[msg.sender],\n            \"SENDER_NOT_AUTHORIZED\"\n        );\n        _;\n    }\n\n    mapping (address => bool) public authorized;\n    address[] public authorities;\n\n    /// @dev Authorizes an address.\n    /// @param target Address to authorize.\n    function addAuthorizedAddress(address target)\n        external\n        onlyOwner\n    {\n        require(\n            !authorized[target],\n            \"TARGET_ALREADY_AUTHORIZED\"\n        );\n\n        authorized[target] = true;\n        authorities.push(target);\n        emit AuthorizedAddressAdded(target, msg.sender);\n    }\n\n    /// @dev Removes authorizion of an address.\n    /// @param target Address to remove authorization from.\n    function removeAuthorizedAddress(address target)\n        external\n        onlyOwner\n    {\n        require(\n            authorized[target],\n            \"TARGET_NOT_AUTHORIZED\"\n        );\n\n        delete authorized[target];\n        for (uint256 i = 0; i < authorities.length; i++) {\n            if (authorities[i] == target) {\n                authorities[i] = authorities[authorities.length - 1];\n                authorities.length -= 1;\n                break;\n            }\n        }\n        emit AuthorizedAddressRemoved(target, msg.sender);\n    }\n\n    /// @dev Removes authorizion of an address.\n    /// @param target Address to remove authorization from.\n    /// @param index Index of target in authorities array.\n    function removeAuthorizedAddressAtIndex(\n        address target,\n        uint256 index\n    )\n        external\n        onlyOwner\n    {\n        require(\n            authorized[target],\n            \"TARGET_NOT_AUTHORIZED\"\n        );\n        require(\n            index < authorities.length,\n            \"INDEX_OUT_OF_BOUNDS\"\n        );\n        require(\n            authorities[index] == target,\n            \"AUTHORIZED_ADDRESS_MISMATCH\"\n        );\n\n        delete authorized[target];\n        authorities[index] = authorities[authorities.length - 1];\n        authorities.length -= 1;\n        emit AuthorizedAddressRemoved(target, msg.sender);\n    }\n\n    /// @dev Gets all authorized addresses.\n    /// @return Array of authorized addresses.\n    function getAuthorizedAddresses()\n        external\n        view\n        returns (address[] memory)\n    {\n        return authorities;\n    }\n}\n",
  "sourcePath": "/home/rogelio/Code/dbet/prediction-market/core/contracts/0x/protocol/AssetProxy/MixinAuthorizable.sol",
  "compiler": {
    "name": "solc",
    "version": "0.5.0+commit.1d4f565a.Emscripten.clang"
  },
  "schemaVersion": "3.0.1",
  "updatedAt": "2019-01-31T19:07:12.894Z",
  "devdoc": {
    "methods": {
      "addAuthorizedAddress(address)": {
        "details": "Authorizes an address.",
        "params": {
          "target": "Address to authorize."
        }
      },
      "getAuthorizedAddresses()": {
        "details": "Gets all authorized addresses.",
        "return": "Array of authorized addresses."
      },
      "removeAuthorizedAddress(address)": {
        "details": "Removes authorizion of an address.",
        "params": {
          "target": "Address to remove authorization from."
        }
      },
      "removeAuthorizedAddressAtIndex(address,uint256)": {
        "details": "Removes authorizion of an address.",
        "params": {
          "index": "Index of target in authorities array.",
          "target": "Address to remove authorization from."
        }
      }
    }
  },
  "userdoc": {
    "methods": {}
  }
}