{
  "contractName": "MixinAssetProxyDispatcher",
  "abi": [
    {
      "constant": true,
      "inputs": [
        {
          "name": "",
          "type": "bytes4"
        }
      ],
      "name": "assetProxies",
      "outputs": [
        {
          "name": "",
          "type": "address"
        }
      ],
      "payable": false,
      "stateMutability": "view",
      "type": "function"
    },
    {
      "constant": true,
      "inputs": [],
      "name": "owner",
      "outputs": [
        {
          "name": "",
          "type": "address"
        }
      ],
      "payable": false,
      "stateMutability": "view",
      "type": "function"
    },
    {
      "constant": false,
      "inputs": [
        {
          "name": "newOwner",
          "type": "address"
        }
      ],
      "name": "transferOwnership",
      "outputs": [],
      "payable": false,
      "stateMutability": "nonpayable",
      "type": "function"
    },
    {
      "anonymous": false,
      "inputs": [
        {
          "indexed": false,
          "name": "id",
          "type": "bytes4"
        },
        {
          "indexed": false,
          "name": "assetProxy",
          "type": "address"
        }
      ],
      "name": "AssetProxyRegistered",
      "type": "event"
    },
    {
      "constant": false,
      "inputs": [
        {
          "name": "assetProxy",
          "type": "address"
        }
      ],
      "name": "registerAssetProxy",
      "outputs": [],
      "payable": false,
      "stateMutability": "nonpayable",
      "type": "function"
    },
    {
      "constant": true,
      "inputs": [
        {
          "name": "assetProxyId",
          "type": "bytes4"
        }
      ],
      "name": "getAssetProxy",
      "outputs": [
        {
          "name": "",
          "type": "address"
        }
      ],
      "payable": false,
      "stateMutability": "view",
      "type": "function"
    }
  ],
  "bytecode": "0x608060405260008054600160a060020a031916331790556104ba806100256000396000f3fe60806040526004361061006c5763ffffffff7c01000000000000000000000000000000000000000000000000000000006000350416633fd3c997811461007157806360704108146100c15780638da5cb5b146100f5578063c585bb931461010a578063f2fde38b1461013f575b600080fd5b34801561007d57600080fd5b506100a56004803603602081101561009457600080fd5b5035600160e060020a031916610172565b60408051600160a060020a039092168252519081900360200190f35b3480156100cd57600080fd5b506100a5600480360360208110156100e457600080fd5b5035600160e060020a03191661018d565b34801561010157600080fd5b506100a56101b2565b34801561011657600080fd5b5061013d6004803603602081101561012d57600080fd5b5035600160a060020a03166101c1565b005b34801561014b57600080fd5b5061013d6004803603602081101561016257600080fd5b5035600160a060020a03166103da565b600160205260009081526040902054600160a060020a031681565b600160e060020a031916600090815260016020526040902054600160a060020a031690565b600054600160a060020a031681565b600054600160a060020a0316331461023a57604080517f08c379a000000000000000000000000000000000000000000000000000000000815260206004820152601360248201527f4f4e4c595f434f4e54524143545f4f574e455200000000000000000000000000604482015290519081900360640190fd5b6000819050600081600160a060020a031663ae25532e6040518163ffffffff167c010000000000000000000000000000000000000000000000000000000002815260040160206040518083038186803b15801561029657600080fd5b505afa1580156102aa573d6000803e3d6000fd5b505050506040513d60208110156102c057600080fd5b5051600160e060020a03198116600090815260016020526040902054909150600160a060020a0316801561035557604080517f08c379a000000000000000000000000000000000000000000000000000000000815260206004820152601a60248201527f41535345545f50524f58595f414c52454144595f455849535453000000000000604482015290519081900360640190fd5b600160e060020a03198216600081815260016020908152604091829020805473ffffffffffffffffffffffffffffffffffffffff1916600160a060020a0388811691909117909155825193845287169083015280517fd2c6b762299c609bdb96520b58a49bfb80186934d4f71a86a367571a15c031949281900390910190a150505050565b600054600160a060020a0316331461045357604080517f08c379a000000000000000000000000000000000000000000000000000000000815260206004820152601360248201527f4f4e4c595f434f4e54524143545f4f574e455200000000000000000000000000604482015290519081900360640190fd5b600160a060020a0381161561048b576000805473ffffffffffffffffffffffffffffffffffffffff1916600160a060020a0383161790555b5056fea165627a7a72305820d5e4d72c273d68b8904f99eabe1e9ee3f8bb1359c1c2a98efb24b8e71f6175120029",
  "source": "/*\n\n  Copyright 2018 ZeroEx Intl.\n\n  Licensed under the Apache License, Version 2.0 (the \"License\");\n  you may not use this file except in compliance with the License.\n  You may obtain a copy of the License at\n\n    http://www.apache.org/licenses/LICENSE-2.0\n\n  Unless required by applicable law or agreed to in writing, software\n  distributed under the License is distributed on an \"AS IS\" BASIS,\n  WITHOUT WARRANTIES OR CONDITIONS OF ANY KIND, either express or implied.\n  See the License for the specific language governing permissions and\n  limitations under the License.\n\n*/\n\npragma solidity 0.5.0;\n\nimport \"../../utils/Ownable/Ownable.sol\";\nimport \"./mixins/MAssetProxyDispatcher.sol\";\nimport \"../AssetProxy/interfaces/IAssetProxy.sol\";\n\n\ncontract MixinAssetProxyDispatcher is\n    Ownable,\n    MAssetProxyDispatcher\n{\n    // Mapping from Asset Proxy Id's to their respective Asset Proxy\n    mapping (bytes4 => IAssetProxy) public assetProxies;\n\n    /// @dev Registers an asset proxy to its asset proxy id.\n    ///      Once an asset proxy is registered, it cannot be unregistered.\n    /// @param assetProxy Address of new asset proxy to register.\n    function registerAssetProxy(address assetProxy)\n        external\n        onlyOwner\n    {\n        IAssetProxy assetProxyContract = IAssetProxy(assetProxy);\n\n        // Ensure that no asset proxy exists with current id.\n        bytes4 assetProxyId = assetProxyContract.getProxyId();\n        address currentAssetProxy = address(assetProxies[assetProxyId]);\n        require(\n            currentAssetProxy == address(0),\n            \"ASSET_PROXY_ALREADY_EXISTS\"\n        );\n\n        // Add asset proxy and log registration.\n        assetProxies[assetProxyId] = assetProxyContract;\n        emit AssetProxyRegistered(\n            assetProxyId,\n            assetProxy\n        );\n    }\n\n    /// @dev Gets an asset proxy.\n    /// @param assetProxyId Id of the asset proxy.\n    /// @return The asset proxy registered to assetProxyId. Returns 0x0 if no proxy is registered.\n    function getAssetProxy(bytes4 assetProxyId)\n        external\n        view\n        returns (address)\n    {\n        return address(assetProxies[assetProxyId]);\n    }\n\n    /// @dev Forwards arguments to assetProxy and calls `transferFrom`. Either succeeds or throws.\n    /// @param assetData Byte array encoded for the asset.\n    /// @param from Address to transfer token from.\n    /// @param to Address to transfer token to.\n    /// @param amount Amount of token to transfer.\n    function dispatchTransferFrom(\n        bytes memory assetData,\n        address from,\n        address to,\n        uint256 amount\n    )\n        internal\n    {\n        // Do nothing if no amount should be transferred.\n        if (amount > 0 && from != to) {\n            // Ensure assetData length is valid\n            require(\n                assetData.length > 3,\n                \"LENGTH_GREATER_THAN_3_REQUIRED\"\n            );\n\n            // Lookup assetProxy. We do not use `LibBytes.readBytes4` for gas efficiency reasons.\n            bytes4 assetProxyId;\n            assembly {\n                assetProxyId := and(mload(\n                    add(assetData, 32)),\n                    0xFFFFFFFF00000000000000000000000000000000000000000000000000000000\n                )\n            }\n            address assetProxy = address(assetProxies[assetProxyId]);\n\n            // Ensure that assetProxy exists\n            require(\n                assetProxy != address(0),\n                \"ASSET_PROXY_DOES_NOT_EXIST\"\n            );\n\n            // We construct calldata for the `assetProxy.transferFrom` ABI.\n            // The layout of this calldata is in the table below.\n            //\n            // | Area     | Offset | Length  | Contents                                    |\n            // | -------- |--------|---------|-------------------------------------------- |\n            // | Header   | 0      | 4       | function selector                           |\n            // | Params   |        | 4 * 32  | function parameters:                        |\n            // |          | 4      |         |   1. offset to assetData (*)                |\n            // |          | 36     |         |   2. from                                   |\n            // |          | 68     |         |   3. to                                     |\n            // |          | 100    |         |   4. amount                                 |\n            // | Data     |        |         | assetData:                                  |\n            // |          | 132    | 32      | assetData Length                            |\n            // |          | 164    | **      | assetData Contents                          |\n\n            assembly {\n                /////// Setup State ///////\n                // `cdStart` is the start of the calldata for `assetProxy.transferFrom` (equal to free memory ptr).\n                let cdStart := mload(64)\n                // `dataAreaLength` is the total number of words needed to store `assetData`\n                //  As-per the ABI spec, this value is padded up to the nearest multiple of 32,\n                //  and includes 32-bytes for length.\n                let dataAreaLength := and(add(mload(assetData), 63), 0xFFFFFFFFFFFE0)\n                // `cdEnd` is the end of the calldata for `assetProxy.transferFrom`.\n                let cdEnd := add(cdStart, add(132, dataAreaLength))\n\n\n                /////// Setup Header Area ///////\n                // This area holds the 4-byte `transferFromSelector`.\n                // bytes4(keccak256(\"transferFrom(bytes,address,address,uint256)\")) = 0xa85e59e4\n                mstore(cdStart, 0xa85e59e400000000000000000000000000000000000000000000000000000000)\n\n                /////// Setup Params Area ///////\n                // Each parameter is padded to 32-bytes. The entire Params Area is 128 bytes.\n                // Notes:\n                //   1. The offset to `assetData` is the length of the Params Area (128 bytes).\n                //   2. A 20-byte mask is applied to addresses to zero-out the unused bytes.\n                mstore(add(cdStart, 4), 128)\n                mstore(add(cdStart, 36), and(from, 0xffffffffffffffffffffffffffffffffffffffff))\n                mstore(add(cdStart, 68), and(to, 0xffffffffffffffffffffffffffffffffffffffff))\n                mstore(add(cdStart, 100), amount)\n\n                /////// Setup Data Area ///////\n                // This area holds `assetData`.\n                let dataArea := add(cdStart, 132)\n                // solhint-disable-next-line no-empty-blocks\n                for {} lt(dataArea, cdEnd) {} {\n                    mstore(dataArea, mload(assetData))\n                    dataArea := add(dataArea, 32)\n                    assetData := add(assetData, 32)\n                }\n\n                /////// Call `assetProxy.transferFrom` using the constructed calldata ///////\n                let success := call(\n                    gas,                    // forward all gas\n                    assetProxy,             // call address of asset proxy\n                    0,                      // don't send any ETH\n                    cdStart,                // pointer to start of input\n                    sub(cdEnd, cdStart),    // length of input\n                    cdStart,                // write output over input\n                    512                     // reserve 512 bytes for output\n                )\n                if iszero(success) {\n                    revert(cdStart, returndatasize())\n                }\n            }\n        }\n    }\n}\n",
  "sourcePath": "/home/rogelio/Code/dbet/prediction-market/core/contracts/0x/protocol/Exchange/MixinAssetProxyDispatcher.sol",
  "compiler": {
    "name": "solc",
    "version": "0.5.0+commit.1d4f565a.Emscripten.clang"
  },
  "schemaVersion": "3.0.1",
  "updatedAt": "2019-01-31T19:07:12.898Z",
  "devdoc": {
    "methods": {
      "getAssetProxy(bytes4)": {
        "details": "Gets an asset proxy.",
        "params": {
          "assetProxyId": "Id of the asset proxy."
        },
        "return": "The asset proxy registered to assetProxyId. Returns 0x0 if no proxy is registered."
      },
      "registerAssetProxy(address)": {
        "details": "Registers an asset proxy to its asset proxy id.      Once an asset proxy is registered, it cannot be unregistered.",
        "params": {
          "assetProxy": "Address of new asset proxy to register."
        }
      }
    }
  },
  "userdoc": {
    "methods": {}
  }
}