{
  "contractName": "Utils",
  "abi": [
    {
      "constant": true,
      "inputs": [
        {
          "name": "b",
          "type": "bytes32"
        }
      ],
      "name": "bytes32ToBool",
      "outputs": [
        {
          "name": "",
          "type": "bool"
        }
      ],
      "payable": false,
      "stateMutability": "pure",
      "type": "function"
    },
    {
      "constant": true,
      "inputs": [
        {
          "name": "x",
          "type": "bytes32"
        }
      ],
      "name": "bytes32ToString",
      "outputs": [
        {
          "name": "",
          "type": "string"
        }
      ],
      "payable": false,
      "stateMutability": "pure",
      "type": "function"
    },
    {
      "constant": true,
      "inputs": [
        {
          "name": "b",
          "type": "bool"
        }
      ],
      "name": "boolToString",
      "outputs": [
        {
          "name": "",
          "type": "string"
        }
      ],
      "payable": false,
      "stateMutability": "pure",
      "type": "function"
    }
  ],
  "bytecode": "0x608060405234801561001057600080fd5b506103d1806100206000396000f3fe6080604052600436106100565763ffffffff7c01000000000000000000000000000000000000000000000000000000006000350416639201de55811461005b578063e6659197146100fa578063f7302d7b14610126575b600080fd5b34801561006757600080fd5b506100856004803603602081101561007e57600080fd5b5035610164565b6040805160208082528351818301528351919283929083019185019080838360005b838110156100bf5781810151838201526020016100a7565b50505050905090810190601f1680156100ec5780820380516001836020036101000a031916815260200191505b509250505060405180910390f35b34801561010657600080fd5b506100856004803603602081101561011d57600080fd5b503515156102fb565b34801561013257600080fd5b506101506004803603602081101561014957600080fd5b5035610383565b604080519115158252519081900360200190f35b6040805160208082528183019092526060918291906020820181803883390190505090506000805b6020811015610215576008810260020a85027fff0000000000000000000000000000000000000000000000000000000000000081161561020c578084848151811015156101d557fe5b9060200101907effffffffffffffffffffffffffffffffffffffffffffffffffffffffffffff1916908160001a9053506001909201915b5060010161018c565b506060816040519080825280601f01601f191660200182016040528015610243576020820181803883390190505b50905060005b828110156102f057838181518110151561025f57fe5b9060200101517f010000000000000000000000000000000000000000000000000000000000000090047f01000000000000000000000000000000000000000000000000000000000000000282828151811015156102b857fe5b9060200101907effffffffffffffffffffffffffffffffffffffffffffffffffffffffffffff1916908160001a905350600101610249565b50925050505b919050565b606060018215151415610342575060408051808201909152600481527f747275650000000000000000000000000000000000000000000000000000000060208201526102f6565b8115156102f6575060408051808201909152600581527f66616c736500000000000000000000000000000000000000000000000000000060208201526102f6565b6000811515610394575060006102f6565b6001821415610056575060016102f656fea165627a7a723058201ec2d1769b634eb5fd651cee6b1f85fea127255b5bc82676f50843f9948891920029",
  "source": "pragma solidity 0.5.0;\n\n\n// Utility functions used by contracts on the decent.bet platform\ncontract Utils {\n\n    function bytes32ToBool(bytes32 b)\n    public\n    pure\n    returns (bool) {\n        if ((uint)(b) == 0)\n            return false;\n        else if ((uint)(b) == 1)\n            return true;\n        else\n            revert();\n    }\n\n    function bytes32ToString(bytes32 x)\n    public\n    pure\n    returns (string memory) {\n        bytes memory bytesString = new bytes(32);\n        uint charCount = 0;\n        for (uint j = 0; j < 32; j++) {\n            byte char = byte(bytes32(uint(x) * 2 ** (8 * j)));\n            if (char != 0) {\n                bytesString[charCount] = char;\n                charCount++;\n            }\n        }\n        bytes memory bytesStringTrimmed = new bytes(charCount);\n        for (uint j = 0; j < charCount; j++) {\n            bytesStringTrimmed[j] = bytesString[j];\n        }\n        return string(bytesStringTrimmed);\n    }\n\n    function boolToString(bool b)\n    public\n    pure\n    returns (string memory) {\n        if (b == true)\n            return \"true\";\n        else if (b == false)\n            return \"false\";\n    }\n\n}",
  "sourcePath": "/home/rogelio/Code/dbet/prediction-market/core/contracts/utils/Utils.sol",
  "compiler": {
    "name": "solc",
    "version": "0.5.0+commit.1d4f565a.Emscripten.clang"
  },
  "schemaVersion": "3.0.1",
  "updatedAt": "2019-01-31T19:07:12.982Z",
  "devdoc": {
    "methods": {}
  },
  "userdoc": {
    "methods": {}
  }
}